:020000040800F2
:1000000000A00020E55600082D5700082D570008D5
:100010002D5700082D5700082D570008000000003C
:100020000000000000000000000000002D57000844
:100030002D570008000000002D5700082D5700081C
:1000400000000000000000000000000000000000B0
:1000500000000000000000000000000000000000A0
:100060000000000000000000000000000000000090
:100070000000000000000000000000000000000080
:100080000000000000000000000000000000000070
:100090000000000000000000000000000000000060
:1000A0000000000000000000000000000000000050
:1000B0000000000000000000000000000000000040
:1000C0000000000000000000000000000000000030
:1000D0000000000000000000000000000000000020
:1000E0000000000000000000000000000000000010
:1000F0000000000000000000000000000000000000
:1001000000000000000000000000000000000000EF
:1001100000000000000000000000000000000000DF
:1001200000000000000000000000000000000000CF
:1001300000000000000000000000000000000000BF
:1001400000000000000000000000000000000000AF
:10015000000000000000000000000000000000009F
:10016000000000000000000000000000000000008F
:10017000000000000000000000000000000000007F
:08018000000000000000000077
:1001900038B5044600F02CF80546204600F020F85B
:1001A00048B10D49204600F057FC30B90B492046B4
:1001B00000F034FC48B9284638BD01F07BF84FF018
:1001C000FF4522230360284638BD01F073F822233F
:1001D00000250360EFE700BF1772B142B5F1CFC24F
:1001E00020F00040B0F1FF4FACBF0020012070476D
:1001F00020F00042B2F1FF4F2DE9F04704466CD8E1
:100200004FEAD07500F0C6807B49884200F3B48085
:100210000028C0F2B680794B9A4263D9784B9A4253
:1002200000F2C580774E204656F8251000F04EF9B2
:1002300006EB8503C5F10106D3F808800746761B57
:100240004146384600F042F90146044600F048FABB
:100250006D49054600F044FA6C4900F037F929462B
:1002600000F03EFA6A4900F033F9294600F038FA06
:10027000684900F02BF9294600F032FA664900F08F
:1002800027F9294600F02CFA0146204600F01EF915
:1002900005460146204600F023FAAA468146002E74
:1002A00052D029464FF0804000F010F901464846F0
:1002B00000F0CAFA0146404600F008F9394600F05D
:1002C00005F901464FF07E5000F000F916F17D0F60
:1002D00064DB00EBC650BDE8F087014600F0F8F89B
:1002E000BDE8F087B2F1505F09D24C49204600F0DA
:1002F000EFF84FF07E5100F0AFFB002875D121469A
:10030000204600F0EDF94049054600F0E9F93F4983
:1003100000F0DCF8294600F0E3F93D4900F0D8F898
:10032000294600F0DDF93B4900F0D0F8294600F0FD
:10033000D7F9394900F0CCF8294600F0D1F9014647
:10034000204600F0C3F882465146204600F0C8F926
:100350004FF080410546504600F0B8F80146284667
:1003600000F072FA214600F0B1F801464FF07E50DD
:1003700000F0ACF8BDE8F087BDE8F047002000F0E1
:1003800077B8274B9A427FF646AFBDE8F04700208A
:1003900000F06AB8002DA3D00020A1E764364FF02A
:1003A000586100EBC65000F09BF9BDE8F0871D498D
:1003B000204600F095F9134B03EB8503196900F013
:1003C00087F800F069FB064600F036F91649054645
:1003D00000F086F90146204600F078F813490746F8
:1003E000284600F07DF980462AE74FF07E512046EE
:1003F00000F06EF874E700BF1772B1421872B13E98
:100400009115853F485700084CBB31330EEADD3566
:1004100055B38A38610B363BABAA2A3ECAF2497102
:10042000B5F1CF423BAAB83F8071313FD1F71737C2
:1004300038B505460C4600F03DFF034628461C60D3
:1004400038BD00BF08B538B101F1004000F048F9EF
:10045000BDE808402221EBE7084600F041F9BDE87D
:1004600008402221E4E700BF4FF08051EAE700BFD7
:100470004FF0E041E6E700BF08B538B1054800217C
:1004800000F0E2F9BDE808402221D1E74FF07E50AC
:10049000F5E700BF000080BF10B50146044600F03C
:1004A00015F8014600F0D0F92146034620461C46C7
:1004B00000F0DCFA20B920462121BDE81040B7E762
:1004C000204610BD80F0004002E000BF81F00041F6
:1004D00042001FBF5FEA410392EA030F7FEA226CEA
:1004E0007FEA236C6AD04FEA1262D2EB1363C1BF7A
:1004F000D218414048404140B8BF5B42192B88BFE9
:10050000704710F0004F40F4000020F07F4018BF0B
:10051000404211F0004F41F4000121F07F4118BF2B
:10052000494292EA030F3FD0A2F1010241FA03FCD3
:1005300010EB0C00C3F1200301FA03F100F00043BB
:1005400002D5494260EB4000B0F5000F13D3B0F183
:10055000807F06D340084FEA310102F10102FE2AF2
:1005600051D2B1F1004F40EBC25008BF20F0010062
:1005700040EA03007047490040EB0000013A28BF01
:10058000B0F5000FEDD2B0FA80FCACF1080CB2EB84
:100590000C0200FA0CF0AABF00EBC2505242184302
:1005A000BCBFD0401843704792F0000F81F40001A7
:1005B00006BF80F400000132013BB5E74FEA41037A
:1005C0007FEA226C18BF7FEA236C21D092EA030FE6
:1005D00004D092F0000F08BF0846704790EA010F60
:1005E0001CBF0020704712F07F4F04D1400028BF8D
:1005F00040F00040704712F100723CBF00F500006F
:10060000704700F0004343F0FE4040F400007047A4
:100610007FEA226216BF08467FEA23630146420250
:1006200006BF5FEA412390EA010F40F48000704763
:100630004FF0000304E000BF10F0004348BF404209
:100640005FEA000C08BF704743F0964301464FF045
:1006500000001CE050EA010208BF70474FF00003A1
:100660000AE000BF50EA010208BF704711F00043E2
:1006700002D5404261EB41015FEA010C02BF8446B2
:100680000146002043F0B64308BFA3F18053A3F511
:100690000003BCFA8CF2083AA3EBC25310DB01FA58
:1006A00002FC634400FA02FCC2F12002BCF1004FDC
:1006B00020FA02F243EB020008BF20F0010070476D
:1006C00002F1200201FA02FCC2F1200250EA4C00C1
:1006D00021FA02F243EB020008BF20EADC70704707
:1006E0004FF0FF0C1CEAD0521EBF1CEAD15392EA15
:1006F0000C0F93EA0C0F6FD01A4480EA010C4002F1
:1007000018BF5FEA41211ED04FF0006343EA50104A
:1007100043EA5111A0FB01310CF00040B1F5000F8C
:100720003EBF490041EAD3715B0040EA010062F13B
:100730007F02FD2A1DD8B3F1004F40EBC25008BF25
:1007400020F00100704790F0000F0CF0004C08BF43
:1007500049024CEA502040EA51207F3AC2BFD2F110
:10076000FF0340EAC250704740F400004FF000031E
:10077000013A5DDC12F1190FDCBF00F00040704758
:10078000C2F10002410021FA02F1C2F1200200FA96
:1007900002FC5FEA310040F1000053EA4C0308BF5D
:1007A00020EADC70704792F0000F00F0004C02BFAE
:1007B000400010F4000F013AF9D040EA0C0093F029
:1007C000000F01F0004C02BF490011F4000F013B83
:1007D000F9D041EA0C018FE70CEAD15392EA0C0FF1
:1007E00018BF93EA0C0F0AD030F0004C18BF31F05C
:1007F000004CD8D180EA010000F00040704790F032
:10080000000F17BF90F0004F084691F0000F91F0D5
:10081000004F14D092EA0C0F01D142020FD193EA9B
:100820000C0F03D14B0218BF084608D180EA010023
:1008300000F0004040F0FE4040F40000704740F0FF
:10084000FE4040F4400070474FF0FF0C1CEAD052CD
:100850001EBF1CEAD15392EA0C0F93EA0C0F69D029
:10086000A2EB030280EA010C49024FEA402037D094
:100870004FF0805343EA111143EA10130CF000408B
:100880008B4238BF5B0042F17D024FF4000C8B427B
:1008900024BF5B1A40EA0C00B3EB510F24BFA3EB5B
:1008A000510340EA5C00B3EB910F24BFA3EB91032B
:1008B00040EA9C00B3EBD10F24BFA3EBD10340EA85
:1008C000DC001B0118BF5FEA1C1CE0D1FD2A3FF6CB
:1008D00050AF8B4240EBC25008BF20F00100704780
:1008E0000CF0004C4CEA50207F32C2BFD2F1FF0323
:1008F00040EAC250704740F400004FF00003013A54
:1009000037E792F0000F00F0004C02BF400010F4F7
:10091000000F013AF9D040EA0C0093F0000F01F00B
:10092000004C02BF490011F4000F013BF9D041EA2D
:100930000C0195E70CEAD15392EA0C0F08D1420260
:100940007FF47DAF93EA0C0F7FF470AF084676E733
:1009500093EA0C0F04D14B023FF44CAF08466EE70C
:1009600030F0004C18BF31F0004CCAD130F00042DA
:100970007FF45CAF31F000437FF43CAF5FE700BF32
:100980004FF0FF3C06E000BF4FF0010C02E000BF5B
:100990004FF0010C4DF804CD4FEA40024FEA4103FD
:1009A0007FEA226C18BF7FEA236C11D001B052EAB3
:1009B000530C18BF90EA010F58BFB2EB030088BF79
:1009C000C81738BF6FEAE17018BF40F001007047E8
:1009D0007FEA226C02D15FEA402C05D17FEA236CCA
:1009E000E4D15FEA412CE1D05DF8040B704700BF11
:1009F000844608466146FFE70FB5FFF7C9FF0028A8
:100A000048BF10F1000F0FBD4DF808EDFFF7F4FFE0
:100A10000CBF012000205DF808FB00BF4DF808ED79
:100A2000FFF7EAFF34BF012000205DF808FB00BF9C
:100A30004DF808EDFFF7E0FF94BF012000205DF8BE
:100A400008FB00BF4DF808EDFFF7D2FF94BF01206F
:100A500000205DF808FB00BF4DF808EDFFF7C8FF68
:100A600034BF012000205DF808FB00BF4FEA4002C0
:100A70004FEA41037FEA226C02D15FEA402C08D1A1
:100A80007FEA236C02D15FEA412C02D14FF00000D3
:100A900070474FF0010070474FEA4002B2F1FE4F3D
:100AA0000FD34FF09E03B3EB12620DD94FEA002330
:100AB00043F0004310F0004F23FA02F018BF404209
:100AC00070474FF00000704712F1610F01D14202F0
:100AD00005D110F0004008BF6FF0004070474FF0A4
:100AE0000000704742000ED2B2F1FE4F0BD34FF020
:100AF0009E03B3EB126209D44FEA002343F0004394
:100B000023FA02F070474FF00000704712F1610FB6
:100B100001D1420202D14FF0FF3070474FF0000088
:100B2000704700BF024B0146186800F02FB800BFA5
:100B30001C000020024B0146186800F023BC00BFD7
:100B40001C00002070B5104E336805460C46B3B14A
:100B50002146284600F086FB431C0CD0C41C24F020
:100B60000304A04205D0211A284600F07BFB013087
:100B700001D0204670BD4FF0FF34204670BD1946AD
:100B800000F070FB3060E3E7B00100202DE9F04198
:100B9000CD1C25F0030508350C2D38BF0C25002D84
:100BA00082B0064616DBA94214D8354F00F06AF829
:100BB0007A68AAB1144603E06368224683B11C46F2
:100BC00023685B1BF8D40B2B21D8A242636855D055
:100BD00053600DE00C233360002002B0BDE8F081CB
:100BE00029463046FFF7AEFF431C044619D0056086
:100BF000304600F04DF804F10B00231D20F00700F3
:100C0000C21A1CBF1B1AA35002B0BDE8F0816119C3
:100C1000A242256014BF51607960635163684B60E4
:100C2000E6E77B6823B31C465B68002BFBD1226898
:100C300001931946304604EB020800F013FB80458F
:100C400016D12268AD1A29463046FFF77BFF0130E6
:100C50000ED022687868019B2A442260426812B94B
:100C60000CE010465268A242FBD100234360BFE76C
:100C70000C233360304600F00BF8ADE77B60B7E73C
:100C8000B0010020014800F04DBB00BF0803002068
:100C9000014800F04FBB00BF0803002038B5124BDD
:100CA0001D682A6B04461AB10023C2E9044338BD0B
:100CB0001820FFF737FF0246286378B10120002192
:100CC000C2E90401094B0A480A499160C2E90003DC
:100CD0000B2393810023C2E9044338BD064B074828
:100CE000462100F029FB00BF1C00002034126DE6F5
:100CF0000E33CDABECDE05006057000878570008D6
:100D000038B5194B1C68226B8AB1136917495469AD
:100D1000174803FB01F100FB0411A3FB0030013372
:100D200041EB0001C2E9043121F0004038BD182038
:100D3000FFF7F8FE0246206388B101240025C2E9CE
:100D400004450C4B0C4C09480C499160C2E9004326
:100D50000B2393810A4B0146C2E9043138BD094B8C
:100D60000948522100F0E8FA1C0000202DF45158E7
:100D70002D7F954C34126DE60E33CDABECDE0500C5
:100D80002E7F954C6057000878570008024A0349A7
:100D9000034800F069B900BF100000205115000899
:100DA000200000200C4B4168994210B5044601D048
:100DB00000F0CEFBA168094B994202D0204600F01A
:100DC000C7FBE168064B994204D02046BDE81040BD
:100DD00000F0BEBB10BD00BFB80100202002002003
:100DE0008802002008B54B6EDA0702D48B899B0578
:100DF00001D5002008BD886D00F094FA002008BDE0
:100E000008B54B6EDA0702D48B899B0501D500200B
:100E100008BD886D00F08EFA002008BD2DE9F8436A
:100E2000314C324BDFF8C890DFF8C880324FC4F83D
:100E30003831002529460423082204F15C002F4E96
:100E4000E360C4E90055C4E90455A5606566A56181
:100E500000F078F904F15800C4E90849C4E90A87A8
:100E6000266300F057FA2946254B6367082204F1F0
:100E7000C400C4E91A55C4E91E552567C4F8CC500E
:100E8000C4F8805000F05EF904F1680304F1C0007A
:100E9000C4F88830C4E92398C4E9257600F03AFA0A
:100EA000184BC4F8DC30294604F596700822C4E9D2
:100EB0003455C4E93855C4F8D850C4F83451C4F88E
:100EC000E85000F03FF904F1D003C4E93E87C4F8CC
:100ED000F49004F59470C4F80061C4F8F030BDE8F3
:100EE000F84300F017BA00BFB80100208D0D0008CC
:100EF000B1100008D9100008191100083D110008B0
:100F00000900010012000200F8B506462A4800F068
:100F100009FA2A4BD3F83831002B43D0284FD7E9B0
:100F20000134013B04D524E05A1C04F1680420D0AC
:100F3000B4F90C50013B002DF6D1224BE36004F1D3
:100F40005800656600F0E6F91B4800F0F3F9C4E9C3
:100F50000155C4E904552560A5610822294604F11C
:100F60005C0000F0EFF8C4E90D55C4E912552046C5
:100F7000F8BD3D680DB12F46D1E74FF4D67130462C
:100F8000FFF704FE044680B10423056043600C3083
:100F90002946A06025464FF4D07200F0D3F83C609B
:100FA0002F46BCE7FFF73AFFB8E703483C6000F084
:100FB000C1F90C233360DAE714030020B8010020E4
:100FC000100000200100FFFF10B504460B4800F0A0
:100FD000A9F9236A2BB90A4B0A4AD3F8383122629D
:100FE00023B1BDE81040054800F0A4B9FFF716FF93
:100FF000BDE81040014800F09DB900BF1403002077
:10100000B8010020A50D0008014800F08BB900BF11
:1010100014030020014800F08DB900BF1403002024
:1010200008B5054800F07EF9BDE80840034A0449C8
:10103000002000F019B800BF1403002010000020A9
:10104000E50D000808B5054A0549002000F00CF838
:10105000BDE80840034800F06DB900BF1000002053
:10106000010E0008140300202DE9F84380460F46C6
:1010700016464FF00009D6E90154013D11D4A38969
:10108000012B05F1FF3508D9B4F90E3001332146A3
:1010900003D04046B84749EA00096B1C04F16804D4
:1010A000EDD13668002EE6D14846BDE8F88300BF92
:1010B00010B50C46B1F90E1000F0BEF8002803DBA5
:1010C000636D0344636510BDA38923F48053A3813A
:1010D00010BD00BF002070472DE9F0410C46B1F96A
:1010E0000C101F46CB05054616460BD421F4805143
:1010F000A1813B46B4F90E1032462846BDE8F041C6
:1011000000F0C2B8B4F90E100223002200F07EF8FD
:10111000B4F90C10EAE700BF10B50C46B1F90E1097
:1011200000F074F8B4F90C30421C0EBF23F4805365
:1011300043F480536065A38110BD00BFB1F90E1068
:1011400000F052B8830730B547D0541E002A3ED075
:10115000CAB2034601E0013C39D303F8012B9D07D5
:10116000F9D1032C2CD9CDB205EB05250F2C05EBBD
:10117000054535D9A4F1100222F00F0C03F1100E31
:10118000E6444FEA121C1A46156055609560D5601A
:1011900010327245F8D10CF1010214F00C0F03EB80
:1011A000021204F00F0C13D0ACF1040323F003037C
:1011B0000433134442F8045B9A42FBD10CF003045D
:1011C0002CB1C9B21C4403F8011B9C42FBD130BDB9
:1011D00064461346002CF4D1F9E703461446C0E7F1
:1011E0001A46A446E0E700BF38B5074D0022044682
:1011F00008462A6001F05CFB431C00D038BD2B6818
:10120000002BFBD0236038BDF402002038B50C461B
:10121000084D8446114620461A4600232B6064463A
:1012200001F06EFB431C00D038BD2B68002BFBD0B7
:10123000236038BDF402002038B50C46084D8446C2
:10124000114620461A4600232B60644601F060FBDD
:10125000431C00D038BD2B68002BFBD0236038BD69
:10126000F402002038B5074D0022044608462A60E3
:1012700004F00CFA431C00D038BD2B68002BFBD0C7
:10128000236038BDF402002038B50C46084D844672
:10129000114620461A4600232B60644601F040FBAD
:1012A000431C00D038BD2B68002BFBD0236038BD19
:1012B000F4020020014B1868704700BF1C0000209A
:1012C00070B50F4B0F4DAB42A3EB050607D0B61020
:1012D000002455F8043B01349847A642F9D804F09D
:1012E00027FA094D094B5E1BAB424FEAA60606D012
:1012F000002455F8043B01349847A642F9D870BD44
:101300003858000838580008385800083C58000879
:10131000704700BF704700BF704700BF704700BFF5
:10132000704700BF704700BF012070470120704721
:10133000704700BF704700BF00B50B4C25681446CE
:10134000EE681A4685B003460D464CB10749009534
:10135000CDE901143046064900F048F900F05AF989
:1013600004490C46F3E700BF1C000020B4570008F6
:10137000C4570008C057000808B513460022FFF7FD
:10138000DBFF00BF002950D038B551F8043C0C1FDA
:10139000002BB8BFE4180546FFF774FC274A136812
:1013A0002BB1A3420CD92168601883422CD0636012
:1013B00028461460BDE83840FFF76ABCA3420FD846
:1013C0001A465B68002BF9D111685018844217D077
:1013D0002CD3636054602846BDE83840FFF758BC02
:1013E00011685018A04214D020D821686018834298
:1013F000EFD118685B680844C4E900035460EAE769
:1014000023680B441360E6E718685B6808442060B3
:10141000CDE720680144501883421160DBD1D3E945
:1014200000040144C2E90014D5E770470C232B6087
:101430002846BDE83840FFF72BBC00BFB4010020B0
:10144000F8B5B1F90C30074618070C4639D44A688C
:10145000002A53DDE56A002D31D000223E683A6053
:1014600013F48052216A55D101233846A847411C04
:1014700002465ED0B4F90C30E56A216A5B0705D5F7
:101480006368D21A636B0BB1236CD21A00233846FF
:10149000A847451C40D00023636023692360A389CB
:1014A000D90400D56065616B3E6041B104F144032D
:1014B000994202D03846FFF765FF0023636300209E
:1014C000F8BD0E69002EFAD09B070D6808BF4B6966
:1014D0000E6018BF0023AD1B8B600CE0D4F828C051
:1014E000216A2B4632463846E047B0F1000CA5EBA6
:1014F0000C05664406DD002DF0DCE0E70A6C002AEE
:10150000A8DCDCE7B4F90C3043F04003A3814FF0D2
:10151000FF30F8BD626DB1E73A68B4F90C308AB1BA
:101520001D2A01D0162AEFD123690022C4E9003216
:10153000B9E73B68002B9DD01D2B01D0162BE1D1C4
:101540003E60BCE7626022692260DA04AAD4AAE79E
:1015500038B50B69CBB10C46054608B1036ABBB17F
:10156000B4F90C308BB1626ED00701D4990512D555
:1015700028462146FFF764FF636EDA07054602D46A
:10158000A3899B050BD5284638BD0025284638BDC4
:10159000FFF71AFDE4E7A06DFFF7C4FEE8E7A06DD2
:1015A000FFF7C8FEEFE700BF014618B1044B18680B
:1015B000FFF7CEBF034A04490448FFF755BD00BFFB
:1015C0001C00002010000020511500082000002001
:1015D0000CB400B583B004AB53F8042B019300F0B6
:1015E0005DF803B05DF804EB02B070470EB410B5BF
:1015F00083B005AB064C53F8042B019301462068D9
:1016000000F04CF803B0BDE8104003B0704700BFD5
:101610001C00002008B5062000F0BEFE012001F0ED
:1016200087F900BF9368013B002B936005DAD2F87D
:1016300018C0634507DB0A2905D01368581C1060E1
:1016400019700846704700F0E3BC00BF9BB1F8B5C5
:10165000134406460F46541E5D1E01E0AC4208D0FE
:1016600014F8011F3A463046FFF7DCFF431CF5D162
:10167000F8BD0020F8BD0020704700BF936810B58A
:1016800014461BB918460023636010BD00F044FBEC
:101690000023A3600023636010BD00BF2DE9F04F5D
:1016A000A1B08B4691461C46049018B1036A002BEA
:1016B00000F04781DBF86420BBF90C30D20702D47C
:1016C0009F0540F137811E0740F19E80DBF8103006
:1016D000002B00F099800023CA460D9343F22003AB
:1016E000ADF839309AF80030974E07940127002B57
:1016F0007AD0D14604E019F8013F002B00F09A801F
:10170000252BF8D1B9EB0A0840F0978099F8003002
:10171000002B69D000234FF0FF32CDE9092309F1F6
:10172000010908930B938DF863301E9305E0089A26
:1017300007FA03F31A430892A1464C46052214F80F
:10174000011B304600F0DCFEA246831B0028EED1D0
:10175000089BD80644BF20228DF86320190799F80A
:10176000001044BF2B228DF863202A297BD1079AD1
:101770001168043200290792C0F2B0800B9199F8E9
:1017800001102E2900F08680704C0322204600F0C4
:10179000B7FE38B1089B001B4022824013430AF178
:1017A000010A08931AF8011B69488DF838100622BF
:1017B00000F0A6FE002800F09780664B002B7ED03C
:1017C00007AA0092644B04985A4608A9AFF3008018
:1017D0000390039B013307D00D9B039A13440D9391
:1017E0009AF80030002B84D1DBF8643013F0010F3D
:1017F000BBF80C3002D19A0540F195805B0616D4F7
:101800000D9821B0BDE8F08F0498594600F050FCC7
:1018100000283FF460AFDBF86430DD0707D4BBF885
:101820000C309C0503D4DBF85800FFF783FD4FF024
:10183000FF30E6E7B9EB0A08D6D00AF1FF35CDF85C
:101840001490A946049D01E0A0453FD94C465A4654
:1018500019F8011F2846FFF7E5FE02340130A4EB1A
:101860000A04F1D1C0E7A1F13002092A88BFCA46B3
:1018700087D80B9B00E00134217803EB830302EB54
:101880004303A1F13002092AF5D92E290B93A24670
:101890007FF47AAF9AF801102A292FD1079B9AF882
:1018A00002101A6809920433002A0AF10200079311
:1018B000B8BF4FF0FF338246B8BF099364E7079B78
:1018C000073323F007030833079385E70D99DDF805
:1018D0001490414499F800300D9119E7494243F0C2
:1018E00002030B9108934AE707AA00921A4B049847
:1018F0005A4608A900F0D0F803906AE7A1F1300237
:101900000023092A09930AF1010A3FF63DAF1AF8AC
:10191000011F03EB830302EB4303A1F13002092A09
:10192000F5D9099330E7DBF85800FFF703FDBBF862
:101930000C3063E7DBF85800FFF7F4FCBBF90C3020
:10194000C1E6FFF741FBB5E6F4570008FC57000875
:1019500000580008000000004D16000810B4044CA8
:1019600084461346206810BC0A466146FFF796BEBF
:101970001C0000202DE9F84F92461F460A698B682B
:10198000DDF828909A42B8BF1A46CAF8002091F8AC
:1019900043300C46064613B10132CAF800202268D3
:1019A00091065FD5DAF800300233CAF800302268B9
:1019B00012F0060F11461DD1E1689942D8BF1146B9
:1019C00018DD04F1190B4FF0000805E0E568DAF8BE
:1019D0000030ED1A45450CDD01235A4639463046A4
:1019E000C847013008F10108F0D14FF0FF30BDE8E1
:1019F000F88F216894F84330003B18BF01238A0612
:101A00000AD5E1185A1C302081F84300224494F88A
:101A1000451082F84310023304F143023946304640
:101A2000C8470130E1D02368DAF80050216903F09B
:101A30000603042BD4E902201BD08A4220DD4FF09C
:101A40000008521A90441A34002501E0454517DA7F
:101A50000123224639463046C847013005F10105C9
:101A6000F4D1C2E712F0060F0DD0003B18BF0123DE
:101A7000D2E7401B8A4220EAE078E2DC0028E2DC80
:101A80000020BDE8F88FE168DAF800309942D8BF4D
:101A9000114696DCAEE700BF2DE9F0470C4684B056
:101AA0001746227E0C990646984604F1430C002AFC
:101AB00035D0A2F15803D8B2202869D8202B67D896
:101AC000DFE813F0E000660066006600660066006E
:101AD000660066006600660066009400700066009E
:101AE00066006600660070006600660066006600BC
:101AF00021008300AE00660066009E006600830041
:101B000066006600E6000B68226860691D1D0D60B6
:101B100011061B6802D4520600F1DC801860002315
:101B2000E1462361CDF800803B4603AA21463046BA
:101B3000FFF720FF013020D023694A46394630465E
:101B4000C047013019D02368E068DDF80C909B078E
:101B500018D5484516DD04F1190A002504E0E068AF
:101B6000A0EB0903AB420DDD012352463946304656
:101B7000C047013005F10105F1D14FF0FF3004B04D
:101B8000BDE8F0874845B8BF484604B0BDE8F087D7
:101B900084F84220012004F142090023206184F8E6
:101BA0004330BFE70A682368101D0860180602D496
:101BB000590600F193801068014600286268C0F25F
:101BC000918053484FF00A0E4AE00B6820681D1DB3
:101BD0000D60050601D441067ED419684C486F2A71
:101BE00014BF4FF00A0E4FF0080E35E00B681A686C
:101BF00004330B6004F1420984F842200120CCE751
:101C00000B686268181D0860D3F8009000214846F0
:101C100000F076FC002879D0A0EB09006060BCE7FA
:101C2000236843F02003236078223A4884F8452053
:101C30000A68151D0D601D064AD4590648D511883D
:101C4000DD0744BF43F02003236019B9236823F064
:101C5000200323604FF0100E0023626884F84330A5
:101C6000002AA26016DB236823F00403236089B9ED
:101C7000002A45D1E146BEF1080F1CD0ACEB0903A8
:101C800023614FE7582384F8453021482368CFE784
:101C90002368C9E77546E146B1FBF5F305FB131A66
:101CA0000A46AA4210F80A1009F8011D1946F3D293
:101CB000BEF1080FE2D12368D807DFD56268236937
:101CC0009A42DBDC302309F8013C09F1FF39D5E702
:101CD0001168B5E7188022E719887FE7B2F900108C
:101CE00008466AE72D20002AA26084F8430002DB40
:101CF00023F0040323600A2505484942AE46CAE79B
:101D0000037884F8423004F14209B4E7606844E79C
:101D1000085800081C5800089368002B00F0F68053
:101D20002DE9F04FB1F90CC01CF0080F83B09046BC
:101D300081460C4631D00B697BB31CF00207D8F802
:101D4000006038D00027D4F828B0216ADFF8BCA2A0
:101D50003D4655452B463A4628BF53464846C5B1F1
:101D6000D847002840F3C880D8F808301B1A074429
:101D70002D1AC8F80830002B00F0B48055452B46CA
:101D8000D4F828B0216A28BF53463A464846002D69
:101D9000E6D1D6E900750836DBE72146484600F073
:101DA00087F9002840F0AD80B4F90CC0D8F8006085
:101DB0001CF00207C6D11CF0010A63D12368A16898
:101DC000574618468B46002F58D01CF4007F00F071
:101DD000B180B9420A4600F2DD801CF4906F2FD02A
:101DE000216962695D1A02EB420202EBD2726B1C3E
:101DF00052103B44934292BF93469B461A461CF4B2
:101E0000806F00F0E68011464846FEF7BFFE0028CE
:101E100000F0F5802A462169019000F0C1FBA289FB
:101E2000019B22F4906242F08002A2815819ABEB30
:101E30000505C4F814B02361A5602060BB463A468E
:101E40005146019200F094F9A1682368019AA1EB30
:101E50000B011A443D46A16022600027D8F80830E3
:101E60005B1BAA44C8F80830002B3BD02368A1684C
:101E7000B4F90CC018468B46002FA6D1D6E900A7AE
:101E800008369EE73846BB463D46002D40D0002828
:101E900045D03A46D4E904C32068A168AA4228BFC5
:101EA0002A46604504D901EB030A524500F38280BB
:101EB000934272DC216AD4F828C05A464846E0476B
:101EC000B0F1000A18DDB7EB0A070FD00120D8F8EF
:101ED0000830A3EB0A03D344A5EB0A05C8F8083081
:101EE000002BD2D1002003B0BDE8F08F2146484638
:101EF000FFF72EFB0028EAD0B4F90C3043F0400382
:101F0000A3814FF0FF3003B0BDE8F08F0020704791
:101F1000756833460836002DFAD0D3F800B02A464B
:101F20000A21584600F0ECFA002865D00130A0EBF9
:101F30000B07AEE722699A4214D36269BA4211D8FC
:101F40006FF00043BB4228BF3B46A56A93FBF2F308
:101F5000216A02FB03F348465246A847051ECBDD23
:101F60007F1B7BE7B94228BF39460D4618460A4613
:101F7000514600F0FDF8A1682368491B2B44A1607D
:101F800023600029ECD121464846FFF7E1FA0028FA
:101F9000E6D0B1E7BB463A4652E75946019200F017
:101FA000E7F8019AA3689B1AA3602368134423608F
:101FB000924688E75946524600F0DAF823685344BF
:101FC000236021464846FFF7C3FA00283FF47BAF61
:101FD00092E7484600F07EFB034600287FF426AFD8
:101FE00021694846FFF7CEF9B4F90C300C2223F0F2
:101FF0008003C9F8002081E76A1C17464AE70C22D3
:10200000B4F90C30C9F8002078E700BF00FCFF7F6E
:10201000F8B50D461446064610B1036A002B37D0BA
:10202000A389A269A2601A0719D52369BBB12268E6
:102030006169D31AEDB299422F4620DD0133A168C0
:102040000139A160511C2160157062699A420DD05E
:10205000A389DB0701D50A2D08D03846F8BD2146F3
:10206000304600F025F838B92369E0E721463046CC
:10207000FFF76EFA0028F0D04FF0FF37EDE721466A
:102080003046FFF765FA0028F6D122680123D6E72B
:10209000FEF79AFFC4E700BF10B4044C03460A469B
:1020A000206810BC1946FFF7B3BF00BF1C0000201A
:1020B00038B52E4B1B6805460C4613B11A6A002A28
:1020C0004BD0B4F90C3018071CD5226922B313F099
:1020D000010107D0616900204942A060A1613AB1C5
:1020E000002038BD980758BF6169A160002AF7D168
:1020F000190658BF1046F4D543F04003A3814FF0B2
:10210000FF3038BDD9062CD55A0712D4226943F0C6
:102110000803A381002ADAD103F42071B1F5007F0E
:10212000D5D02146284600F009FBB4F90C302269CD
:10213000CDE7616B51B104F14402914204D02846CD
:10214000FFF720F9B4F90C30002262632269002104
:10215000C4E9002123F02403D9E71846FEF734FF31
:10216000AFE709222A6043F04003C7E71C000020C4
:1021700088420ED98B1883420BD900EB020C002A3F
:102180006ED0624613F801CD02F801CD9942F9D123
:1021900070470F2A0FD8034602F1FF3C002A5FD098
:1021A0000CF1010C013B8C4411F8012B03F8012FB9
:1021B0006145F9D1704740EA01039B0751D1A2F173
:1021C000100370B501F1200C23F00F0501F1100E82
:1021D00000F11004AC441B095EF8105C44F8105C7C
:1021E0005EF80C5C44F80C5C5EF8085C44F8085C33
:1021F0005EF8045C44F8045C0EF1100EE64504F150
:102200001004E9D1013312F00C0F01EB031102F0BD
:102210000F0400EB031328D0043C24F003064FEA1C
:10222000940C1E441C1F8E465EF8045B44F8045F49
:10223000B442F9D10CF1010402F0030203EB840370
:1022400001EB840102F1FF3C4AB10CF1010C013BAE
:102250008C4411F8012B03F8012F6145F9D170BDB1
:10226000704702F1FF3C03469AE72246EAE700BFC7
:1022700038B5C46B0CB1002038BD80210546FEF78F
:1022800085FC0246E86330B1031F7C3243F8044FFB
:102290009342FBD1EFE74FF0FF3038BD30B51F2937
:1022A00083B0054608D8C36B0C4653B153F82400DD
:1022B00043F8242003B030BD162303604FF0FF30F5
:1022C000F8E780210192FEF761FC019AE86303467A
:1022D0000028F3D0011F00F17C05002041F8040F15
:1022E000A942FBD1E2E700BF1F2938B505461ED839
:1022F000C26B0C466AB152F8213053B1012B06D0A3
:10230000591C10D0002142F8241020469847002084
:1023100038BD284600F0F2F8224601462846BDE8BE
:10232000384000F0D5B816230360012038BD1623CD
:1023300003604FF0FF3038BD1F292AD838B5C36B72
:102340000C460546A3B153F8242003EB84034AB19D
:10235000511C0BD0012A07D0002520461D60904754
:10236000284638BD012038BD032038BD022038BDC5
:102370008021FEF70BFC0346E86338B1021F002101
:102380007C3042F8041F9042FBD1DCE74FF0FF3075
:1023900038BD4FF0FF30704738B5134B1F281D680C
:1023A0001DD8EA6B044662B152F820304BB1012BC4
:1023B00005D0591C0FD0002142F82010984700206A
:1023C00038BD284600F09AF8224601462846BDE866
:1023D000384000F07DB816232B60012038BD16234D
:1023E0002B604FF0FF3038BD1C000020114B1F2820
:1023F00070B51E6808D8F36B04460D464BB153F810
:10240000240043F8245070BD162333604FF0FF3092
:1024100070BD80213046FEF7B9FB0346F06300280B
:10242000F4D0021F00217C3042F8041F9042FBD1FF
:10243000E5E700BF1C00002038B50B4B1D68EC6BB6
:102440000CB1002038BD80212846FEF79FFBE863D1
:1024500038B1031F00F17C0243F8044F9342FBD1D3
:10246000EFE74FF0FF3038BD1C00002038B5174BA8
:102470001F281D6826D80446E86BA0B150F8243008
:1024800000EB84004BB15A1C0BD0012B07D0002568
:10249000056020469847284638BD012038BD0320F6
:1024A00038BD022038BD80212846FEF76FFBE86367
:1024B00040B1031F00F17C01002243F8042F994230
:1024C000FBD1DBE74FF0FF3038BD00BF1C00002020
:1024D00070B50C46084D03460026204611461C46A2
:1024E0002E6000F005FA431C00D070BD2B68002B55
:1024F000FBD0236070BD00BFF402002000F0E8B9FB
:1025000001F0FF01102A2BDB10F0070F08D010F8A4
:10251000013B013A8B422DD010F0070F42B3F6D1A8
:10252000F0B441EA012141EA014122F007047FF0C1
:1025300000070023F0E80256083C85EA010586EA18
:10254000010685FA47F5A3FA87F586FA47F6A5FA54
:1025500087F68EB9EED1F0BC01F0FF0102F0070260
:1025600032B110F8013B013A83EA010313B1F8D10B
:102570000020704701387047002D06BF35460338EC
:10258000073815F0010F07D1013015F4807F02BF25
:10259000013015F4C03F0130F0BC0138704700BF76
:1025A000844641EA000313F003036DD1403A41D35E
:1025B00051F8043B40F8043B51F8043B40F8043B1D
:1025C00051F8043B40F8043B51F8043B40F8043B0D
:1025D00051F8043B40F8043B51F8043B40F8043BFD
:1025E00051F8043B40F8043B51F8043B40F8043BED
:1025F00051F8043B40F8043B51F8043B40F8043BDD
:1026000051F8043B40F8043B51F8043B40F8043BCC
:1026100051F8043B40F8043B51F8043B40F8043BBC
:1026200051F8043B40F8043B51F8043B40F8043BAC
:10263000403ABDD2303211D351F8043B40F8043B4C
:1026400051F8043B40F8043B51F8043B40F8043B8C
:1026500051F8043B40F8043B103AEDD20C3205D35C
:1026600051F8043B40F8043B043AF9D2043208D054
:10267000D2071CBF11F8013B00F8013B01D30B88C6
:1026800003806046704700BF082A13D38B078DD0A4
:1026900010F003038AD0C3F10403D21ADB071CBF76
:1026A00011F8013B00F8013B80D331F8023B20F8E0
:1026B000023B7BE7043AD9D3013A11F8013B00F819
:1026C000013BF9D20B7803704B7843708B788370A1
:1026D000604670472DE9F041144649B3EAB1064619
:1026E0000D4600F0DDF88442074602D8B4EB500FE7
:1026F0001AD821463046FEF749FA804678B1BC42E6
:102700002246294628BF3A46FFF74AFF3046294667
:10271000FEF738FE4046BDE8F081FEF733FE4FF08D
:1027200000084046BDE8F081A8464046BDE8F0817B
:10273000BDE8F0411146FEF729BA00BF70B5B1F906
:102740000C300C46990796B007D504F147030122D7
:10275000C4E90432236016B070BDB4F90E1000292C
:10276000054629DB6A4600F073F8002822DB4FF4A7
:1027700080612846019EFEF709FA88B3A38920608C
:1027800043F0800306F47046A381B6F5005F4FF472
:102790008063C4E90403DED1B4F90E10284600F0CA
:1027A0006DF80028D7D0A38923F0030343F0010379
:1027B000A381D0E7B4F90C3013F0800F14BF40268A
:1027C0004FF4806631462846FEF7E0F940B1A38910
:1027D000206043F08003C4E90406A38116B070BDF5
:1027E000B4F90C309A05B6D423F0030304F1470280
:1027F00043F002030121C4E90421A3812260AAE776
:1028000070B50C46B1F90E10002996B015461E465B
:102810000FDB6A4600F01CF800280ADB019B03F47A
:102820007043A3F50053B3FA83F34FF480625B095E
:1028300008E0A28912F0800F4FF0000314BF40227D
:102840004FF48062002033602A6016B070BD00BF74
:1028500070B50C46084D03460026204611461C461E
:102860002E6000F02DF8431C00D070BD2B68002BAB
:10287000FBD0236070BD00BFF402002038B5074DC7
:102880000022044608462A6000F02AF8431C00D0C3
:1028900038BD2B68002BFBD0236038BDF40200202C
:1028A00051F8043C181F002BBCBF0B58C0187047D0
:1028B000024B58221A604FF0FF307047F40200209C
:1028C000024B58221A604FF0FF307047F40200208C
:1028D000024B58221A604FF0FF307047F40200207C
:1028E000024B58221A600020704700BFF4020020FB
:1028F000024B58221A604FF0FF307047F40200205C
:10290000024B58221A604FF0FF307047F40200204B
:10291000024B58221A604FF0FF307047F40200203B
:10292000024B58221A604FF0FF307047F40200202B
:10293000FEE700BF10B5054C237833B9044B13B143
:102940000448AFF300800123237010BD150300205D
:10295000000000003057000808B5034B1BB10349C5
:102960000348AFF3008008BD0000000018030020FA
:10297000305700082DE9F04393B000AF3B600346A9
:10298000FB710B46BB7113467B716B461E460023E1
:1029900087F8263007F1140300221A605A609A6003
:1029A000DA6007237B610223BB610223FB61BB6901
:1029B00001337A6902FB03F301333B63396B4B1E2E
:1029C000FB620A460023904699464FF000024FF002
:1029D00000034FEAC90343EA58734FEAC8020A46A4
:1029E000002314461D464FF000024FF00003EB0099
:1029F00043EA5473E2000B460733DB08DB00ADEB20
:102A0000030D6B460033BB6200237B640EE07B6CDE
:102A10003A681A444A4B1B685B6859687B6C1B0117
:102A20000B4412785A727B6C01337B647B697A6C3D
:102A30009A42ECDB00233B6431E00023FB6316E0A9
:102A40003F4B1B685B685A68FB6B1B0113445A6859
:102A50003B6C1A447B690133396C03FB01F1FB6B5E
:102A60000B441178BA6AD154FB6B0133FB637B6969
:102A7000FA6B9A42E4DB324B1B685B685A683B6C2A
:102A80001B011A447B690133396C03FB01F17B693B
:102A90000B44117ABA6AD1543B6C01333B64BB6975
:102AA0003A6C9A42C9DB3B6B013BBA6A0021D154B4
:102AB00000F032FE0023BB6303E000BFBB6B0133B9
:102AC000BB63BB6B632BF8DD1D4B1B68002293E8D7
:102AD000030000F05BF90023FB6005E0002387F8AA
:102AE0002630FB680133FB60FB68092BF6DD002311
:102AF0007B6303E000BF7B6B01337B637B6B632BEA
:102B0000F8DD00F014FEBA79BB7912FB03F3DBB2F7
:102B100087F8263097F82630DBB23B743B6B87F89A
:102B2000273097F82730BA6A1946722000F086FCE1
:102B30000023B54618464C37BD46BDE8F08300BFBC
:102B40006C00002080B582B000AF00F017FD00F0EF
:102B500067FD00F0B5FD00F0E5FA0D4A1021702088
:102B600000F0F2FA0B4B07221A600A4B02225A605D
:102B7000084B02229A603B46064A0321184600F0A1
:102B800076F8054A3B46136000F024FBFCE700BFE3
:102B900075290008000000206C00002090B589B065
:102BA00000AF7860396000233B7500237B750023FC
:102BB000BB613B681846FDF7B5FF03463B613B68C8
:102BC000FB600023FB610FE0FEF79AF803465A42D0
:102BD000DBB2D2B258BF53423969FA690A44DBB258
:102BE0001370FB690133FB61FA693B689A42EBDBC6
:102BF0007B681C4607F10C030FCB84E80F00786854
:102C00002437BD4690BD80B584B000AF7860396090
:102C10003B68BB603B681B011846FDF783FF03461A
:102C2000FB607B681A4607F1080393E8030082E81B
:102C3000030078681037BD4680BD80B584B000AF12
:102C4000786039603B68BB603B68DB001846FDF785
:102C500069FF0346FB607B681A4607F1080393E8A7
:102C6000030082E8030078681037BD4680BD90B548
:102C70008FB000AF78623962FA6107F12803396AD0
:102C80001846FFF7DAFF00237B6317E07B6B9B009E
:102C9000FA6913441968FA6A7B6BDB00D41807F1F0
:102CA00010031846FFF7AFFF224607F1100393E821
:102CB000030082E803007B6B01337B637A6B3B6A22
:102CC0009A42E3DB01237B632BE000233B631AE0A2
:102CD000FA6A7B6BDB0013441968FA6A7B6B03F1B9
:102CE0000053013BDB0013445A683B6B1B01D418B3
:102CF0003B461846FFF752FF3B460FCB84E80F00D8
:102D00003B6B01333B63FA6A7B6B03F10053013B7E
:102D1000DB0013441B683A6B9A42D9DB7B6B0133AF
:102D20007B637A6B3B6A9A42CFDB00233B6316E0FE
:102D3000FA6A3B6A03F10053013BDB0013445A6813
:102D40003B6B1B01D4183B4600211846FFF726FFBA
:102D50003B460FCB84E80F003B6B01333B63FA6AC1
:102D60003B6A03F10053013BDB0013441B683A6BE1
:102D70009A42DDDB7B6A1A4607F1280393E80300D9
:102D800082E80300786A3C37BD4690BD90B58BB0B1
:102D900000AF07F1080383E803007A601023FB7695
:102DA00001237B62DDE000233B62B3E0FA687B6ACB
:102DB000DB0013445A683B6A1B011344197AFA6812
:102DC0007B6ADB0013445A683B6A1B0113440A46C2
:102DD000DA600023FB6133E0FA687B6ADB001344AE
:102DE0005A683B6A1B011344D968FA687B6A03F18D
:102DF0000053013BDB0013445A68FB691B01134479
:102E00005A683B6A13441B781846FA687B6A03F1D8
:102E10000053013BDB0013445A68FB691B01134458
:102E20005B7A03FB00F2F8687B6ADB0003445868B6
:102E30003B6A1B0103440A44DA60FB690133FB610E
:102E4000FA687B6A03F10053013BDB0013441B6803
:102E5000FA699A42C0DBBB68013B7A6A9A4229DA76
:102E6000FA687B6ADB0013445A683B6A1B0113440F
:102E7000DB68002B0ADAFA687B6ADB0013445A68C5
:102E80003B6A1B01134400225A7240E0FA687B6AD5
:102E9000DB0013445A683B6A1B011344D968FA6883
:102EA0007B6ADB0013445A683B6A1B011344CAB2B5
:102EB0005A722CE0FA687B6ADB0013445A683B6A5A
:102EC0001B011344DB685B421846FDF7B5FB034664
:102ED0001846FDF75DF903464FF07E511846FDF7A1
:102EE000F7FA034619464FF07E50FDF7ADFC034656
:102EF0007B61FA687B6ADB0013445A683B6A1B01FA
:102F0000D4187869FDF7EEFD0346DBB263723B6AC5
:102F100001333B62FA687B6ADB0013441B683A6A40
:102F20009A42FFF643AF7B68002B17DD00233B611D
:102F300011E0FA7EFB7E12FB03F3BB76FA7EFB7E8A
:102F400012FB03F3BB76FA7EFB7E12FB03F3BB7628
:102F50003B6901333B613B69092BEADD7B6A013345
:102F60007B62BB687A6A9A42FFF61DAF00BF00BF62
:102F70002C37BD4690BD80B485B000AF78600B465D
:102F8000FB700023FB600023FB721FE07B685A1C70
:102F90007A601A78FB7A5340FB720023FB6012E0E0
:102FA00097F90B30002B07DAFB7A5B005BB283F0FA
:102FB0004D035BB2DBB202E0FB7A5B00DBB2FB727B
:102FC000FB680133FB60FB68072BE9D9FB785A1ECD
:102FD000FA70002BDAD1FB7A18461437BD4680BC54
:102FE000704780B584B000AF3B600346FB710B4671
:102FF000BB7113467B710323FB7307F10F031A4662
:103000000121722000F01AFA002318461037BD463D
:1030100080BD000080B588B000AF3B600346FB7107
:103020000B46BB7113467B710023FB7710E0FA7FE0
:10303000F97F114813465B0013449B0003441A7840
:1030400001F120033B4403F8142CFB7F0133FB7791
:10305000FA7F0A4B1B68DBB29A42E8DB074B1B681E
:10306000DBB207F10C021946722000F0E7F90023E9
:1030700018462037BD4680BD740000207000002037
:1030800080B485B000AF78600B46FB700123FB7302
:103090000023BB7312E0FB7B7A6813441B78002B80
:1030A00009D1BB7B7A681344F97BBA7B8A1AD2B206
:1030B0001A70FB7BBB73FB7B0133FB73FA7BFB78E2
:1030C0009A42E8D3002318461437BD4680BC7047A7
:1030D00080B485B000AF78600B46FB707B681B78CE
:1030E000FB737B6800221A70FB7BBB730DE0FB7BDC
:1030F0007A6813441B78BB73FB7B7A681344002205
:103100001A70FA7BBB7B1344FB73FA7BFB789A4201
:1031100002D2BB7B002BEAD1FB7B18461437BD469D
:1031200080BC704780B500AF054A0021762000F0D2
:103130000BF8044A0021772000F006F800BF80BD9C
:10314000E32F00081530000880B584B000AF0346B7
:10315000B9607A60FB731D4B1B680F2B04DD612087
:1031600000F00EFB01232DE0BB68FF2B04D9622089
:1031700000F006FB012325E0144B1A68144913469E
:103180005B0013449B000B44FA7B1A700F4B1A68C8
:103190000F4913465B0013449B000B440433BA6889
:1031A0001A600A4B1A680A4913465B0013449B00D5
:1031B0000B4408337A681A60044B1B680133034AD6
:1031C0001360002318461037BD4680BD70000020F4
:1031D0007400002090B5C7B000AF07F58C73A3F260
:1031E000111300221A700023C7F8143122E000F0F6
:1031F000A9FA0346194607F58C73A3F58872D7F828
:10320000143113440A461A7007F58C73A3F58872BB
:10321000D7F8143113441B78002B06D107F58C73B3
:10322000A3F2111305221A70F9E0D7F81431013313
:10323000C7F81431D7F81431032BD8DD07F1080390
:1032400004211846FFF744FF034687F80B3100239B
:1032500087F81331002387F8133114E097F813210E
:10326000744913465B0013449B000B441A7807F51E
:103270008C73A3F588735B789A420BD097F813315F
:10328000013387F8133197F813216B4B1B689A426F
:10329000E4DB00E000BF97F81321674B1B689A42FC
:1032A00006D107F58C73A3F2111301221A70B6E050
:1032B00007F58C73A3F58873DB785A1D97F80B31EB
:1032C0009A4206DA07F58C73A3F2111304221A70DE
:1032D000A5E00423C7F80C3122E000F033FA0346DE
:1032E000194607F58C73A3F58872D7F80C3113448F
:1032F0000A461A7007F58C73A3F58872D7F80C315B
:1033000013441B78002B06D107F58C73A3F211131D
:1033100005221A7083E0D7F80C310133C7F80C315D
:1033200007F58C73A3F58873DB780433D7F80C2189
:103330009A42D2DD00F006FA0346194607F58C736F
:10334000A3F58872D7F80C3113440A461A7007F5B2
:103350008C73A3F58872D7F80C3113441B78002BBB
:1033600006D007F58C73A3F2111304221A7056E0ED
:1033700097F80B3107F10802D018D7F80C31DAB200
:1033800097F80B31D31ADBB20133DBB21946FFF7E2
:103390009FFE07F108030133D7F80C21D2B2023A9D
:1033A000D2B211461846FFF7E6FD034687F80A3108
:1033B000D7F80C31013B07F58C72A2F58872D35C0B
:1033C00097F80A219A4206D007F58C73A3F21113DD
:1033D00002221A7023E097F81321164913465B0066
:1033E00013449B000B4408331C6807F58C73A3F54A
:1033F0008873587807F58C73A3F58873997807F567
:103400008C73A3F58873DA7807F108030433A047B7
:1034100003461A4607F58C73A3F211131A70FB1DAD
:103420001A460121652000F009F800BF07F58E77E4
:10343000BD4690BD740000207000002090B5C5B05E
:1034400000AF07F58873A3F588731A6007F58873D2
:10345000A3F2091302461A7007F58873A3F5857362
:103460000A461A7007F58873A3F5847300221A7050
:1034700007F58873A3F5847307F58872A2F2091221
:1034800012785A7007F58873A3F5847307F588726C
:10349000A2F5857212789A700023C7F80C3115E0F6
:1034A000D7F80C3107F58872A2F5887212681A44B1
:1034B000D7F80C310333117807F58872A2F58472BE
:1034C000D154D7F80C310133C7F80C3107F58873A4
:1034D000A3F585731B78D7F80C219A42E0DB07F13E
:1034E0000803013307F58872A2F58572127802325B
:1034F000D1B2D7F80C21D41C1846FFF73CFD034687
:103500001A4607F58873A3F584731A55D7F80C315A
:10351000043307F58872A2F584720021D154D7F8DC
:103520000C31DBB20533DAB207F108031146184655
:10353000FFF7A6FD0023C7F808310FE007F58873F1
:10354000A3F58472D7F8083113441B78184600F0AD
:1035500017F9D7F808310133C7F8083107F5887330
:10356000A3F585731B780433D7F808219A42E5DD6B
:1035700000BF00BF07F58A77BD4690BD80B596B005
:1035800000AF0323FB624FF4A0233B630023FB63E4
:103590000023FB6407F12C03184600F025F90F23E4
:1035A000BB610123FB6100233B6200237B6200239C
:1035B000BB6200237B6507F11803796D184601F0A3
:1035C00029F9154B5B69144A43F400235361124BEC
:1035D0005B6903F400233B603B684FF4C0437B60AE
:1035E0000123BB600023FB6003233B613B1D1946A5
:1035F0000A4801F099FA01224FF40051074801F0FE
:1036000011FC01224FF48041044801F00BFC00BF83
:103610005837BD4680BD00BF00100240000800487A
:1036200080B588B000AF4FF4C063FB6002233B61FC
:1036300001237B610323BB610723FB611D4B5B6996
:103640001C4A43F4003353611A4B5B6903F40033A3
:10365000BB60BB6807F10C0319464FF0904001F0C6
:1036600063FA154B154A1A60134B4FF461325A60D6
:10367000114B00229A60104B0022DA600E4B0022A0
:103680001A610D4B00229A610B4B0C225A61094BB7
:103690009B69084A43F480439361064B9B6903F49A
:1036A00080437B607B68044801F01DFE00BF20372B
:1036B000BD4680BD001002403401002000380140AA
:1036C00080B586B000AF134B5B69124A43F40033F8
:1036D0005361104B5B6903F400333B603B684FF46C
:1036E00080537B600123BB600023FB6003233B61AD
:1036F0003B1D19464FF0904001F016FA00224FF49E
:1037000080514FF0904001F08DFB00BF1837BD464F
:1037100080BD00BF0010024080B500AF01224FF411
:1037200080514FF0904001F07DFB00BF80BD80B51F
:1037300000AF00224FF480514FF0904001F072FB37
:1037400000BF80BD80B582B000AF05E00A4B1B6AA8
:10375000094A43F008031362F91D41F2883301223C
:10376000064801F0DDFE0346002BEFD1FB79184639
:103770000837BD4680BD00BF00380140340100203D
:1037800080B584B000AF0346FB71FB79FB7307F192
:103790000F0141F288330122034801F035FE00BFDA
:1037A0001037BD4680BD00BF3401002080B400AF9B
:1037B000044B1B685A1C03490A601846BD4680BC6E
:1037C000704700BFA401002080B400AF4FF4E103B4
:1037D0001846BD4680BC704780B400AF4FF4E1038B
:1037E0001846BD4680BC704780B5ADF5007D00AF82
:1037F00007F50073A3F5FE7318600023C7F8F831CE
:1038000007F50073A3F5FE731B681B6803F0010343
:10381000002B00F08081BE4B5B6803F00C03042B8F
:103820000CD0BB4B5B6803F00C03082B5DD1B84B8D
:103830005B6803F48033B3F5803F56D14FF4003317
:10384000C7F8F431D7F8F43193FAA3F3C7F8F0319D
:10385000D7F8F031B3FA83F3DBB25B09DBB243F0A4
:103860000103DBB2012B02D1A94B1B6815E04FF419
:103870000033C7F8EC31D7F8EC3193FAA3F3C7F86B
:10388000E8314FF40033C7F8E431D7F8E43193FA64
:10389000A3F3C7F8E0319E4B5B6A4FF40032C7F8E0
:1038A000DC21D7F8DC2192FAA2F2C7F8D821D7F8A8
:1038B000D821B2FA82F252B242F0200252B2D2B20F
:1038C00002F01F02012101FA02F21340002B00F066
:1038D000218107F50073A3F5FE731B685B68002B5D
:1038E00040F01881012300F08CBF07F50073A3F5A9
:1038F000FE731B685B68B3F5803F06D1844B1B6881
:10390000834A43F48033136036E007F50073A3F570
:10391000FE731B685B68002B0CD17D4B1B687C4AD7
:1039200023F4803313607A4B1B68794A23F4802395
:10393000136021E007F50073A3F5FE731B685B6855
:10394000B3F5A02F0CD1724B1B68714A43F480234E
:1039500013606F4B1B686E4A43F4803313600BE0B7
:103960006B4B1B686A4A23F480331360684B1B68F7
:10397000674A23F480231360654BDB6A23F00F0250
:1039800007F50073A3F5FE731B689B68604913433A
:10399000CB6207F50073A3F5FE731B685B68002B11
:1039A0005AD0FFF703FFC7F8F8010AE0FFF7FEFE61
:1039B0000246D7F8F831D31A642B02D9032300F05A
:1039C00020BF4FF40033C7F8D431D7F8D43193FA7D
:1039D000A3F3C7F8D031D7F8D031B3FA83F3DBB211
:1039E0005B09DBB243F00103DBB2012B02D1484B90
:1039F0001B6815E04FF40033C7F8CC31D7F8CC3151
:103A000093FAA3F3C7F8C8314FF40033C7F8C431B1
:103A1000D7F8C43193FAA3F3C7F8C0313C4B5B6AC3
:103A20004FF40032C7F8BC21D7F8BC2192FAA2F2B9
:103A3000C7F8B821D7F8B821B2FA82F252B242F0F0
:103A4000200252B2D2B202F01F02012101FA02F2A8
:103A50001340002BAAD05EE0FFF7A8FEC7F8F801DC
:103A60000AE0FFF7A3FE0246D7F8F831D31A642B19
:103A700002D9032300F0C5BE4FF40033C7F8B431B8
:103A8000D7F8B43193FAA3F3C7F8B031D7F8B0310F
:103A9000B3FA83F3DBB25B09DBB243F00103DBB2C1
:103AA000012B02D11A4B1B6815E04FF40033C7F805
:103AB000AC31D7F8AC3193FAA3F3C7F8A8314FF47F
:103AC0000033C7F8A431D7F8A43193FAA3F3C7F8A9
:103AD000A0310F4B5B6A4FF40032C7F89C21D7F836
:103AE0009C2192FAA2F2C7F89821D7F89821B2FA4D
:103AF00082F252B242F0200252B2D2B202F01F025F
:103B0000012101FA02F21340002BAAD103E000BF09
:103B10000010024000BF07F50073A3F5FE731B6899
:103B20001B6803F00203002B00F07E81A64B5B684C
:103B300003F00C03002B0BD0A34B5B6803F00C03CA
:103B4000082B73D1A04B5B6803F48033002B6DD13D
:103B50000223C7F89431D7F8943193FAA3F3C7F846
:103B60009031D7F89031B3FA83F3DBB25B09DBB263
:103B700043F00103DBB2012B02D1934B1B6813E02E
:103B80000223C7F88C31D7F88C3193FAA3F3C7F826
:103B900088310223C7F88431D7F8843193FAA3F32C
:103BA000C7F88031884B5B6A0222C7F87C21D7F8BE
:103BB0007C2192FAA2F2C7F87821D7F87821B2FADC
:103BC00082F252B242F0200252B2D2B202F01F028E
:103BD000012101FA02F21340002B0AD007F500730D
:103BE000A3F5FE731B681B69012B02D0012300F0B3
:103BF00008BE754B1B6823F0F80207F50073A3F5A8
:103C0000FE731B685969F823C7F87431D7F874310B
:103C100093FAA3F3C7F87031D7F87031B3FA83F38E
:103C200001FA03F3684913430B60FDE007F50073E5
:103C3000A3F5FE731B681B69002B00F0888001232D
:103C4000C7F86C31D7F86C3193FAA3F3C7F8683131
:103C5000D7F86831B3FA83F303F1845303F584137F
:103C60009B001A4601231360FFF7A0FDC7F8F80177
:103C70000AE0FFF79BFD0246D7F8F831D31A022B72
:103C800002D9032300F0BDBD0223C7F86431D7F881
:103C9000643193FAA3F3C7F86031D7F86031B3FA0F
:103CA00083F3DBB25B09DBB243F00103DBB2012B30
:103CB00002D1454B1B6813E00223C7F85C31D7F8EB
:103CC0005C3193FAA3F3C7F858310223C7F8543193
:103CD000D7F8543193FAA3F3C7F850313A4B5B6AE3
:103CE0000222C7F84C21D7F84C2192FAA2F2C7F869
:103CF0004821D7F84821B2FA82F252B242F02002AB
:103D000052B2D2B202F01F02012101FA02F21340B4
:103D1000002BAED02C4B1B6823F0F80207F5007384
:103D2000A3F5FE731B685969F823C7F84431D7F827
:103D3000443193FAA3F3C7F84031D7F84031B3FACE
:103D400083F301FA03F3204913430B606CE0012372
:103D5000C7F83C31D7F83C3193FAA3F3C7F83831B0
:103D6000D7F83831B3FA83F303F1845303F584139E
:103D70009B001A4600231360FFF718FDC7F8F801EF
:103D80000AE0FFF713FD0246D7F8F831D31A022BE9
:103D900002D9032300F035BD0223C7F83431D7F828
:103DA000343193FAA3F3C7F83031D7F83031B3FA8E
:103DB00083F3DBB25B09DBB243F00103DBB2012B1F
:103DC00004D1014B1B6815E0001002400223C7F824
:103DD0002C31D7F82C3193FAA3F3C7F828310223FA
:103DE000C7F82431D7F8243193FAA3F3C7F8203168
:103DF000C54B5B6A0222C7F81C21D7F81C2192FA36
:103E0000A2F2C7F81821D7F81821B2FA82F252B2FA
:103E100042F0200252B2D2B202F01F02012101FA96
:103E200002F21340002BACD107F50073A3F5FE732B
:103E30001B681B6803F00803002B00F00A8107F5DC
:103E40000073A3F5FE731B689B69002B73D00123DD
:103E5000C7F81431D7F8143193FAA3F3C7F8103127
:103E6000D7F81031B3FA83F31A46A84B13449B00DA
:103E70001A4601231360FFF799FCC7F8F8010AE01E
:103E8000FFF794FC0246D7F8F831D31A022B02D977
:103E9000032300F0B6BC0223C7F80C31D7F80C316D
:103EA00093FAA3F3C7F808310223C7F80431D7F80F
:103EB000043193FAA3F207F50073A3F580731A6037
:103EC00007F50073A3F5827302221A6007F50073E9
:103ED000A3F582731B6893FAA3F207F50073A3F5A9
:103EE00084731A60884B5A6A07F50073A3F58673CA
:103EF0000221196007F50073A3F586731B6893FA16
:103F0000A3F107F50073A3F58873196007F5007333
:103F1000A3F588731B68B3FA83F35BB243F06003C5
:103F20005BB2DBB203F01F03012101FA03F313407C
:103F3000002BA5D08DE007F50073A3F58A7301224D
:103F40001A6007F50073A3F58A731B6893FAA3F24E
:103F500007F50073A3F58C731A6007F50073A3F5DA
:103F60008C731B68B3FA83F31A46684B13449B00A7
:103F70001A4600231360FFF719FCC7F8F8010AE09E
:103F8000FFF714FC0246D7F8F831D31A022B02D9F6
:103F9000032300F036BC07F50073A3F58E730222ED
:103FA0001A6007F50073A3F58E731B6893FAA3F2EA
:103FB00007F50073A3F590731A6007F50073A3F576
:103FC000927302221A6007F50073A3F592731B68BF
:103FD00093FAA3F207F50073A3F594731A6007F53B
:103FE0000073A3F5967302221A6007F50073A3F518
:103FF00096731B6893FAA3F207F50073A3F5987301
:104000001A60414B5A6A07F50073A3F59A730221AF
:10401000196007F50073A3F59A731B6893FAA3F16F
:1040200007F50073A3F59C73196007F50073A3F5FA
:104030009C731B68B3FA83F35BB243F060035BB21B
:10404000DBB203F01F03012101FA03F31340002B3D
:1040500096D107F50073A3F5FE731B681B6803F088
:104060000403002B00F0A481002387F8FF31264BC6
:10407000DB6903F08053002B16D1234BDB69224A06
:1040800043F08053D361204BDB6903F0805207F586
:104090000073A3F5FA731A6007F50073A3F5FA73BA
:1040A0001B68012387F8FF31194B1B6803F48073E9
:1040B000002B1AD1164B1B68154A43F4807313600A
:1040C000FFF774FBC7F8F80109E0FFF76FFB024642
:1040D000D7F8F831D31A642B01D9032391E30C4BA1
:1040E0001B6803F48073002BEFD007F50073A3F572
:1040F000FE731B68DB68012B0CD1034B1B6A024A61
:1041000043F0010313623BE0001002402081901055
:104110000070004007F50073A3F5FE731B68DB68B1
:10412000002B0CD17F4B1B6A7E4A23F001031362E4
:104130007C4B1B6A7B4A23F00403136220E007F5E3
:104140000073A3F5FE731B68DB68052B0CD1754B60
:104150001B6A744A43F004031362724B1B6A714A70
:1041600043F0010313620BE06E4B1B6A6D4A23F0B0
:10417000010313626B4B1B6A6A4A23F00403136248
:1041800007F50073A3F5FE731B68DB68002B00F0D6
:104190008280FFF70BFBC7F8F8010BE0FFF706FB87
:1041A0000246D7F8F831D31A41F28832934201D946
:1041B000032326E307F50073A3F59E7302221A601A
:1041C00007F50073A3F59E731B6893FAA3F207F536
:1041D0000073A3F5A0731A6007F50073A3F5A2732B
:1041E00002221A6007F50073A3F5A2731B6893FA05
:1041F000A3F207F50073A3F5A4731A6007F5007323
:10420000A3F5A4731B68B3FA83F3DBB25B09DBB2DB
:1042100043F00203DBB2022B02D1424B1B6A13E0D4
:1042200007F50073A3F5A67302221A6007F5007361
:10423000A3F5A6731B6893FAA3F207F50073A3F521
:10424000A8731A60374B5B6A07F50072A2F5AA7271
:104250000221116007F50072A2F5AA72126892FAA3
:10426000A2F107F50072A2F5AC72116007F50072B9
:10427000A2F5AC721268B2FA82F252B242F0400277
:1042800052B2D2B202F01F02012101FA02F213402F
:10429000002B83D082E0FFF789FAC7F8F8010BE022
:1042A000FFF784FA0246D7F8F831D31A41F2883280
:1042B000934201D90323A4E207F50073A3F5AE737B
:1042C00002221A6007F50073A3F5AE731B6893FA18
:1042D000A3F207F50073A3F5B0731A6007F5007336
:1042E000A3F5B27302221A6007F50073A3F5B27347
:1042F0001B6893FAA3F207F50073A3F5B4731A6071
:1043000007F50073A3F5B4731B68B3FA83F3DBB24C
:104310005B09DBB243F00203DBB2022B04D1014B99
:104320001B6A15E00010024007F50073A3F5B67391
:1043300002221A6007F50073A3F5B6731B6893FA9F
:10434000A3F207F50073A3F5B8731A60AD4B5B6A6F
:1043500007F50072A2F5BA720221116007F500722A
:10436000A2F5BA72126892FAA2F107F50072A2F5EC
:10437000BC72116007F50072A2F5BC721268B2FA45
:1043800082F252B242F0400252B2D2B202F01F02A6
:10439000012101FA02F21340002B81D197F8FF317D
:1043A000012B05D1974BDB69964A23F08053D361EB
:1043B00007F50073A3F5FE731B68DB69002B00F0A3
:1043C0001F82904B5B6803F00C03082B00F01682F1
:1043D00007F50073A3F5FE731B68DB69022B40F041
:1043E000668107F50073A3F5BE734FF080721A6003
:1043F00007F50073A3F5BE731B6893FAA3F207F5E4
:104400000073A3F5C0731A6007F50073A3F5C073BA
:104410001B68B3FA83F303F1845303F584139B0001
:104420001A4600231360FFF7C1F9C7F8F8010AE044
:10443000FFF7BCF90246D7F8F831D31A724A934213
:1044400001D90323DDE107F50073A3F5C2734FF033
:1044500000721A6007F50073A3F5C2731B6893FA24
:10446000A3F207F50073A3F5C4731A6007F5007390
:10447000A3F5C4731B68B3FA83F3DBB25B09DBB249
:1044800043F00103DBB2012B02D15E4B1B6827E036
:1044900007F50073A3F5C6734FF000721A6007F5B5
:1044A0000073A3F5C6731B6893FAA3F207F50073B4
:1044B000A3F5C8731A6007F50073A3F5CA734FF02C
:1044C00000721A6007F50073A3F5CA731B6893FAAC
:1044D000A3F207F50073A3F5CC731A60494B5B6A2E
:1044E00007F50072A2F5CE724FF00071116007F56A
:1044F0000072A2F5CE72126892FAA2F107F500726C
:10450000A2F5D072116007F50072A2F5D0721268A0
:10451000B2FA82F252B242F0200252B2D2B202F0A9
:104520001F02012101FA02F21340002B80D1354B0A
:104530005B6823F4741207F50073A3F5FE731B6820
:10454000596A07F50073A3F5FE731B681B6A0B43DA
:104550002C4913434B6007F50073A3F5D2734FF05A
:1045600080721A6007F50073A3F5D2731B6893FA83
:10457000A3F207F50073A3F5D4731A6007F500736F
:10458000A3F5D4731B68B3FA83F303F1845303F5E3
:1045900084139B001A4601231360FFF707F9C7F83D
:1045A000F8010AE0FFF702F90246D7F8F831D31A0A
:1045B000154A934201D9032323E107F50073A3F5BC
:1045C000D6734FF000721A6007F50073A3F5D67327
:1045D0001B6893FAA3F207F50073A3F5D8731A606A
:1045E00007F50073A3F5D8731B68B3FA83F3DBB246
:1045F0005B09DBB243F00103DBB2012B06D1014BB7
:104600001B682BE000100240400D030007F500730B
:10461000A3F5DA734FF000721A6007F50073A3F583
:10462000DA731B6893FAA3F207F50073A3F5DC7342
:104630001A6007F50073A3F5DE734FF000721A607D
:1046400007F50073A3F5DE731B6893FAA3F207F571
:104650000073A3F5E0731A606C4B5B6A07F5007298
:10466000A2F5E2724FF00071116007F50072A2F539
:10467000E272126892FAA2F107F50072A2F5E472F2
:10468000116007F50072A2F5E4721268B2FA82F2C4
:1046900052B242F0200252B2D2B202F01F02012105
:1046A00001FA02F21340002B3FF47CAFA8E007F5BB
:1046B0000073A3F5E6734FF080721A6007F500737C
:1046C000A3F5E6731B6893FAA3F207F50073A3F54D
:1046D000E8731A6007F50073A3F5E8731B68B3FA73
:1046E00083F303F1845303F584139B001A460023DC
:1046F0001360FFF75BF8C7F8F8010AE0FFF756F818
:104700000246D7F8F831D31A414A934201D903231C
:1047100077E007F50073A3F5EA734FF000721A60B3
:1047200007F50073A3F5EA731B6893FAA3F207F584
:104730000073A3F5EC731A6007F50073A3F5EC732F
:104740001B68B3FA83F3DBB25B09DBB243F001030E
:10475000DBB2012B02D12D4B1B6827E007F500735C
:10476000A3F5EE734FF000721A6007F50073A3F51E
:10477000EE731B6893FAA3F207F50073A3F5F073C9
:104780001A6007F50073A3F5F2734FF000721A6018
:1047900007F50073A3F5F2731B6893FAA3F207F50C
:1047A0000073A3F5F4731A60184B5B6A07F5007287
:1047B000A2F5F6724FF00071116007F50072A2F5D4
:1047C000F672126892FAA2F107F50072A2F5F87279
:1047D000116007F50072A2F5F8721268B2FA82F25F
:1047E00052B242F0200252B2D2B202F01F020121B4
:1047F00001FA02F21340002B80D101E0012300E016
:104800000023184607F50077BD4680BD0010024022
:10481000400D030080B59CB000AF78603960002384
:10482000FB66984B1B6803F007033A689A4210D95D
:10483000944B1B6823F0070292493B6813430B60BB
:10484000904B1B6803F007033A689A4201D001239A
:104850005AE17B681B6803F00203002B08D08A4BE7
:104860005B6823F0F0027B689B68874913434B60C9
:104870007B681B6803F00103002B00F00D817B684F
:104880005B68012B3DD14FF40033BB66BB6E93FADE
:10489000A3F37B667B6EB3FA83F3DBB25B09DBB217
:1048A00043F00103DBB2012B02D1774B1B680FE011
:1048B0004FF400333B663B6E93FAA3F3FB654FF472
:1048C0000033BB65BB6D93FAA3F37B656E4B5B6AEC
:1048D0004FF400323A653A6D92FAA2F2FA64FA6C39
:1048E000B2FA82F252B242F0200252B2D2B202F0D6
:1048F0001F02012101FA02F21340002B7DD1012396
:1049000002E17B685B68022B3DD14FF00073BB6412
:10491000BB6C93FAA3F37B647B6CB3FA83F3DBB2D7
:104920005B09DBB243F00103DBB2012B02D1564B32
:104930001B680FE04FF000733B643B6C93FAA3F3EA
:10494000FB634FF00073BB63BB6B93FAA3F37B6312
:104950004D4B5B6A4FF000723A633A6B92FAA2F2E7
:10496000FA62FA6AB2FA82F252B242F0200252B20B
:10497000D2B202F01F02012101FA02F21340002B11
:104980003BD10123C0E00223BB62BB6A93FAA3F3CD
:104990007B627B6AB3FA83F3DBB25B09DBB243F081
:1049A0000103DBB2012B02D1374B1B680DE0022360
:1049B0003B623B6A93FAA3F3FB610223BB61BB69D1
:1049C00093FAA3F37B61304B5B6A02223A613A6946
:1049D00092FAA2F2FA60FA68B2FA82F252B242F0A5
:1049E000200252B2D2B202F01F02012101FA02F2F9
:1049F0001340002B01D1012386E0234B5B6823F099
:104A000003027B685B68204913434B60FEF7CEFED0
:104A1000F8667B685B68012B12D10AE0FEF7C6FEE0
:104A20000246FB6ED31A41F28832934201D9032326
:104A30006AE0154B5B6803F00C03042BEED12BE00E
:104A40007B685B68022B21D10AE0FEF7AFFE0246CD
:104A5000FB6ED31A41F28832934201D9032353E00B
:104A6000094B5B6803F00C03082BEED114E0FEF752
:104A70009DFE0246FB6ED31A41F28832934205D95D
:104A8000032341E00020024000100240204B5B68FD
:104A900003F00C03002BEAD11E4B1B6803F0070345
:104AA0003A689A4210D21B4B1B6823F0070219493F
:104AB0003B6813430B60174B1B6803F007033A680E
:104AC0009A4201D001231FE07B681B6803F00403B6
:104AD000002B08D00E4B5B6823F4E0627B68DB6838
:104AE0000B4913434B607B681B6803F00803002BE2
:104AF00009D0074B5B6823F460527B681B69DB00BD
:104B0000034913434B60002318467037BD4680BDF0
:104B1000001002400020024080B400AF4FF4E103D7
:104B20001846BD4680BC704780B487B000AF78603F
:104B3000396000237B610023FB6000233B6154E16B
:104B40003B681A6801217B6901FA03F31340FB609B
:104B5000FB68002B00F046813B685B68022B03D0AA
:104B60003B685B68122B23D17B69DA087B680832CB
:104B700053F822303B617B6903F007039B000F224F
:104B800002FA03F3DB433A6913403B613B681A695D
:104B90007B6903F007039B0002FA03F33A691343AE
:104BA0003B617B69DA087B680832396943F8221077
:104BB0007B681B683B617B695B00032202FA03F39D
:104BC000DB433A6913403B613B685B6803F00302D7
:104BD0007B695B0002FA03F33A6913433B617B682C
:104BE0003A691A603B685B68012B0BD03B685B68D5
:104BF000022B07D03B685B68112B03D03B685B68D6
:104C0000122B30D17B689B683B617B695B00032280
:104C100002FA03F3DB433A6913403B613B68DA680D
:104C20007B695B0002FA03F33A6913433B617B68DB
:104C30003A699A607B685B683B6101227B6902FA92
:104C400003F3DB433A6913403B613B685B681B0934
:104C500003F001027B6902FA03F33A6913433B61F3
:104C60007B683A695A607B68DB683B617B695B0003
:104C7000032202FA03F3DB433A6913403B613B68CA
:104C80009A687B695B0002FA03F33A6913433B615C
:104C90007B683A69DA603B685B6803F08053002BFD
:104CA00000F0A080584B9B69574A43F00103936181
:104CB000554B9B6903F00103BB60BB68534A7B699A
:104CC0009B08023352F823303B617B6903F00303F6
:104CD0009B000F2202FA03F3DB433A6913403B6166
:104CE0007B68B3F1904F19D07B68494A934213D047
:104CF0007B68484A93420DD07B68474A934207D06D
:104D00007B68464A934201D1042308E0052306E06C
:104D1000032304E0022302E0012300E000237A6978
:104D200002F00302920093403A6913433B61374912
:104D30007B699B0802333A6941F82320384B1B6892
:104D40003B61FB68DB433A6913403B613B685B684E
:104D500003F48033002B03D03A69FB6813433B61B3
:104D60002F4A3B6913602E4B5B683B61FB68DB435A
:104D70003A6913403B613B685B6803F40033002BE6
:104D800003D03A69FB6813433B61254A3B69536092
:104D9000234B9B683B61FB68DB433A6913403B61F3
:104DA0003B685B6803F48013002B03D03A69FB680F
:104DB00013433B611A4A3B699360194BDB683B61C3
:104DC000FB68DB433A6913403B613B685B6803F473
:104DD0000013002B03D03A69FB6813433B61104A70
:104DE0003B69D3607B6901337B613B681A687B69EF
:104DF00022FA03F3002B7FF4A3AE00BF00BF1C37E1
:104E0000BD4680BC704700BF00100240000001405A
:104E10000004004800080048000C0048001000484A
:104E20000004014080B483B000AF78600B467B8003
:104E300013467B707B78002B03D07A887B689A615D
:104E400002E07A887B689A6200BF0C37BD4680BC5E
:104E50007047000080B586B000AF78600023FB602B
:104E60001023FB7500237B810023BB820023FB748E
:104E70007B689A687B681B691A437B685B691A4385
:104E80007B68DB691343FB607B681B681B6823F44A
:104E9000164323F00C037A681268F9680B43136019
:104EA0007B681B685B6823F440517B68DA687B6829
:104EB0001B680A435A607B689A697B681B6A1343C4
:104EC000FB607B681B689B6823F430617B681B6810
:104ED000FA680A439A607B681B68A14A934220D112
:104EE000A04B1B6B03F00303032B17D801A252F84E
:104EF00023F000BF054F0008114F0008174F0008AE
:104F00000B4F00080123FB75B5E00223FB75B2E0EF
:104F10000423FB75AFE00823FB75ACE01023FB75A1
:104F2000A9E07B681B68904A934224D18D4B1B6B90
:104F300003F44033B3F5403F11D0B3F5403F17D8E9
:104F4000B3F5003F11D0B3F5003F11D8002B03D0CB
:104F5000B3F5803F06D00BE00023FB758BE0022306
:104F6000FB7588E00423FB7585E00823FB7582E070
:104F70001023FB757FE07B681B687C4A934224D139
:104F8000784B1B6B03F44023B3F5402F11D0B3F5DE
:104F9000402F17D8B3F5002F11D0B3F5002F11D83B
:104FA000002B03D0B3F5802F06D00BE00023FB7558
:104FB00061E00223FB755EE00423FB755BE00823E0
:104FC000FB7558E01023FB7555E07B681B68684A49
:104FD000934224D1634B1B6B03F44013B3F5401F82
:104FE00011D0B3F5401F17D8B3F5001F11D0B3F59A
:104FF000001F11D8002B03D0B3F5801F06D00BE0A3
:105000000023FB7537E00223FB7534E00423FB75B6
:1050100031E00823FB752EE01023FB752BE07B6845
:105020001B68544A934224D14E4B1B6B03F440033C
:10503000B3F5400F11D0B3F5400F17D8B3F5000FFB
:1050400011D0B3F5000F11D8002B03D0B3F5800FAA
:1050500006D00BE00023FB750DE00223FB750AE090
:105060000423FB7507E00823FB7504E01023FB75A0
:1050700001E01023FB757B68DB69B3F5004F7BD142
:10508000FB7D082B56D801A252F823F0B15000083E
:10509000CD500008E95000083551000803510008C0
:1050A0003551000835510008355100081F510008DE
:1050B000FEF792FB03465A007B685B685B081A4464
:1050C0007B685B68B2FBF3F3BB8236E0FFF724FD3D
:1050D00003465A007B685B685B081A447B685B6820
:1050E000B2FBF3F3BB8228E07B685B685B0803F1EB
:1050F000F47303F590437A685268B3FBF2F3BB8212
:105100001BE0FEF761FB03465A007B685B685B08A7
:105110001A447B685B68B2FBF3F3BB820DE07B68EB
:105120005B685B0803F580327B685B68B2FBF3F376
:10513000BB8202E00123FB7400BFBB8A23F00F0394
:105140007B81BB8A5B109BB203F007039AB27B8919
:1051500013437B817B681B687A89DA6075E000BF46
:105160000038014000100240004400400048004068
:10517000004C004000500040FB7D082B62D801A28B
:1051800052F823F0A9510008C9510008E95100085C
:1051900045520008095200084552000845520008CF
:1051A0004552000829520008FEF716FB02467B68AC
:1051B0005B685B081A447B685B68B2FBF3F39AB2E6
:1051C0007B681B68DA6040E0FFF7A6FC02467B685C
:1051D0005B685B081A447B685B68B2FBF3F39AB2C6
:1051E0007B681B68DA6030E07B685B685B0803F50E
:1051F000740303F510537A685268B3FBF2F39AB262
:105200007B681B68DA6020E0FEF7DEFA02467B6806
:105210005B685B081A447B685B68B2FBF3F39AB285
:105220007B681B68DA6010E07B685B685B0803F5ED
:1052300000427B685B68B2FBF3F39AB27B681B6841
:10524000DA6002E00123FB7400BFFB7C18461837CC
:10525000BD4680BD80B586B002AF78600023FB609C
:105260007B680022DA66FEF7A1FAF8607B681B68AB
:105270001B6803F00803082B0ED16FF07E430093E8
:10528000FB6800224FF40011786800F073F80346C1
:10529000002B01D0032322E07B681B681B6803F00E
:1052A0000403042B0ED16FF07E430093FB680022B1
:1052B0004FF48001786800F05DF80346002B01D0C0
:1052C00003230CE07B68202283F869207B6820227E
:1052D00083F86A207B68002283F868200023184640
:1052E0001037BD4680BD80B582B000AF78607B6866
:1052F000002B01D1012339E07B6893F86930DBB2E0
:10530000002B03D17B68002283F868207B6824226D
:1053100083F869207B681B681A687B681B6822F029
:1053200001021A607868FFF795FD0346012B01D151
:1053300001231BE07B681B685A687B681B6822F4AA
:1053400090425A607B681B689A687B681B6822F0F1
:105350002A029A607B681B681A687B681B6842F0A7
:1053600001021A607868FFF775FF03461846083790
:10537000BD4680BD80B584B000AFF860B9603B60C9
:105380001346FB712CE0BB69B3F1FF3F28D0BB692A
:10539000002B07D0FEF70AFA02463B68D31ABA6917
:1053A0009A421DD2FB681B681A68FB681B6822F4CE
:1053B000D0721A60FB681B689A68FB681B6822F051
:1053C00001029A60FB68202283F86920FB68202292
:1053D00083F86A20FB68002283F8682003230FE02B
:1053E000FB681B68DA69BB681340BA689A420CBF55
:1053F00001230023DBB21A46FB799A42C3D0002373
:1054000018461037BD4680BD80B588B002AFF86041
:10541000B9603B601346FB8000237B61FB6893F817
:105420006930DBB2202B76D1BB68002B02D0FB8821
:10543000002B01D101236FE0FB6893F86830012B4A
:1054400001D1022368E0FB68012283F86820FB6831
:105450000022DA66FB68212283F86920FEF7A6F9AC
:105460007861FB68FA88A3F85020FB68FA88A3F8F3
:10547000522033E0FB68B3F852309BB2013B9AB242
:10548000FB68A3F852203B6800937B6900228021CF
:10549000F868FFF76FFF0346002B01D003233BE0C2
:1054A000FB689B68B3F5805F11D1FB681B69002B1B
:1054B0000DD1BB683B613B691A88FB681B68C2F36E
:1054C000080292B21A85BB680233BB6006E0BB6873
:1054D0005A1CBA601A78FB681B681A85FB68B3F817
:1054E00052309BB2002BC5D13B6800937B690022F0
:1054F0004021F868FFF73EFF0346002B01D003234D
:105500000AE0FB68202283F86920FB68002283F808
:105510006820002300E0022318461837BD4680BDEE
:1055200080B58AB002AFF860B9603B601346FB807B
:105530000023FB61FB6893F86A30DBB2202B40F05C
:105540009F80BB68002B02D0FB88002B01D1012378
:1055500097E0FB6893F86830012B01D1022390E0BB
:10556000FB68012283F86820FB681B684FF0FF325C
:105570001A62FB680022DA66FB68222283F86A203E
:10558000FEF714F9F861FB68FA88A3F85820FB6865
:10559000FA88A3F85A20FB689B68B3F5805F0ED1A8
:1055A000FB681B69002B05D1FB6840F2FF12A3F8D2
:1055B0005C2015E0FB68FF22A3F85C2010E0FB688C
:1055C0009B68002B0CD1FB681B69002B04D1FB6886
:1055D000FF22A3F85C2003E0FB687F22A3F85C2095
:1055E000FB68B3F85C307B833AE0FB68B3F85A3071
:1055F0009BB2013B9AB2FB68A3F85A203B68009328
:10560000FB6900222021F868FFF7B4FE0346002B57
:1056100001D0032335E0FB689B68B3F5805F12D1AE
:10562000FB681B69002B0ED1BB687B61FB681B68A4
:105630009B8C9AB27B8B13409AB27B691A80BB68B1
:105640000233BB600CE0FB681B689B8C9BB2D9B239
:105650007B8BDAB2BB68581CB8600A40D2B21A70B1
:10566000FB68B3F85A309BB2002BBED1FB682022F6
:1056700083F86A20FB68002283F86820002300E09A
:10568000022318462037BD4680BD000080B584B097
:1056900000AF7860114B1B68002B02D10F4B104AF2
:1056A0001A600E4B1B68FB600C4B1A687B68134436
:1056B0006A46934207D9FBF7FDFD03460C221A60A8
:1056C0004FF0FF3306E0054B1A687B681344034A2A
:1056D0001360FB6818461037BD4680BDAC01002042
:1056E00030030020002103E00B4B5B584350043192
:1056F0000A480B4B42189A42F6D30A4A02E00023AA
:1057000013600432084B9A42F9D3AFF30080FBF7E1
:10571000D7FDFDF717FAFEE740580008000000200B
:105720006C0000206C00002030030020FEE7000029
:10573000F8B500BFF8BC08BC9E467047F8B500BF7E
:08574000F8BC08BC9E4670474E
:105748008071313F807131BFD1F71737D1F717B763
:105758000000003F000000BF5245454E54206D61D7
:105768006C6C6F63207375636365656465640000C2
:10577800633A5C6D5C625C7372635C6E65776C69DE
:10578800622D342E342E302E3230323331323331D2
:105798005C6E65776C69625C6C6962635C73746487
:1057A8006C69625C72616E642E6300002C20667501
:1057B8006E6374696F6E3A20000000006173736550
:1057C8007274696F6E2022257322206661696C6588
:1057D800643A2066696C6520222573222C206C6946
:1057E8006E65202564257325730A0000232D302B50
:1057F80020000000686C4C0065666745464700005D
:1058080030313233343536373839414243444546EE
:1058180000000000303132333435363738396162B0
:085828006364656600000000E6
:08583000D0CCFF7F0100000055
:0458380059290008E2
:04583C003529000802
:10584000070000000200000002000000000000004D
:105850000000000003000000B8010020200000202C
:1058600000000000B8010020200200208802002073
:105870000000000000000000000000000000000028
:105880000000000000000000000000000000000018
:105890000000000000000000000000000000000008
:0C58A000000000000000000000000000FC
:04000005080056E5B4
:00000001FF
