:020000040800F2
:1000000000A00020C13C0008093D0008093D00088F
:10001000093D0008093D0008093D000800000000F6
:10002000000000000000000000000000093D000882
:10003000093D000800000000093D0008093D0008D6
:1000400000000000000000000000000000000000B0
:1000500000000000000000000000000000000000A0
:100060000000000000000000000000000000000090
:100070000000000000000000000000000000000080
:100080000000000000000000000000000000000070
:100090000000000000000000000000000000000060
:1000A0000000000000000000000000000000000050
:1000B0000000000000000000000000000000000040
:1000C0000000000000000000000000000000000030
:1000D0000000000000000000000000000000000020
:1000E0000000000000000000000000000000000010
:1000F0000000000000000000000000000000000000
:1001000000000000000000000000000000000000EF
:1001100000000000000000000000000000000000DF
:1001200000000000000000000000000000000000CF
:1001300000000000000000000000000000000000BF
:1001400000000000000000000000000000000000AF
:10015000000000000000000000000000000000009F
:10016000000000000000000000000000000000008F
:10017000000000000000000000000000000000007F
:08018000000000000000000077
:1001900038B5044600F02CF80546204600F020F85B
:1001A00048B10D49204600F057FC30B90B492046B4
:1001B00000F034FC48B9284638BD01F0ADF84FF0E6
:1001C000FF4522230360284638BD01F0A5F822230D
:1001D00000250360EFE700BF1772B142B5F1CFC24F
:1001E00020F00040B0F1FF4FACBF0020012070476D
:1001F00020F00042B2F1FF4F2DE9F04704466CD8E1
:100200004FEAD07500F0C6807B49884200F3B48085
:100210000028C0F2B680794B9A4263D9784B9A4253
:1002200000F2C580774E204656F8251000F04EF9B2
:1002300006EB8503C5F10106D3F808800746761B57
:100240004146384600F042F90146044600F048FABB
:100250006D49054600F044FA6C4900F037F929462B
:1002600000F03EFA6A4900F033F9294600F038FA06
:10027000684900F02BF9294600F032FA664900F08F
:1002800027F9294600F02CFA0146204600F01EF915
:1002900005460146204600F023FAAA468146002E74
:1002A00052D029464FF0804000F010F901464846F0
:1002B00000F0CAFA0146404600F008F9394600F05D
:1002C00005F901464FF07E5000F000F916F17D0F60
:1002D00064DB00EBC650BDE8F087014600F0F8F89B
:1002E000BDE8F087B2F1505F09D24C49204600F0DA
:1002F000EFF84FF07E5100F0AFFB002875D121469A
:10030000204600F0EDF94049054600F0E9F93F4983
:1003100000F0DCF8294600F0E3F93D4900F0D8F898
:10032000294600F0DDF93B4900F0D0F8294600F0FD
:10033000D7F9394900F0CCF8294600F0D1F9014647
:10034000204600F0C3F882465146204600F0C8F926
:100350004FF080410546504600F0B8F80146284667
:1003600000F072FA214600F0B1F801464FF07E50DD
:1003700000F0ACF8BDE8F087BDE8F047002000F0E1
:1003800077B8274B9A427FF646AFBDE8F04700208A
:1003900000F06AB8002DA3D00020A1E764364FF02A
:1003A000586100EBC65000F09BF9BDE8F0871D498D
:1003B000204600F095F9134B03EB8503196900F013
:1003C00087F800F069FB064600F036F91649054645
:1003D00000F086F90146204600F078F813490746F8
:1003E000284600F07DF980462AE74FF07E512046EE
:1003F00000F06EF874E700BF1772B1421872B13E98
:100400009115853F243D00084CBB31330EEADD35A4
:1004100055B38A38610B363BABAA2A3ECAF2497102
:10042000B5F1CF423BAAB83F8071313FD1F71737C2
:1004300038B505460C4600F06FFF034628461C60A1
:1004400038BD00BF08B538B101F1004000F048F9EF
:10045000BDE808402221EBE7084600F041F9BDE87D
:1004600008402221E4E700BF4FF08051EAE700BFD7
:100470004FF0E041E6E700BF08B538B1054800217C
:1004800000F0E2F9BDE808402221D1E74FF07E50AC
:10049000F5E700BF000080BF10B50146044600F03C
:1004A00015F8014600F0D0F92146034620461C46C7
:1004B00000F0DCFA20B920462121BDE81040B7E762
:1004C000204610BD80F0004002E000BF81F00041F6
:1004D00042001FBF5FEA410392EA030F7FEA226CEA
:1004E0007FEA236C6AD04FEA1262D2EB1363C1BF7A
:1004F000D218414048404140B8BF5B42192B88BFE9
:10050000704710F0004F40F4000020F07F4018BF0B
:10051000404211F0004F41F4000121F07F4118BF2B
:10052000494292EA030F3FD0A2F1010241FA03FCD3
:1005300010EB0C00C3F1200301FA03F100F00043BB
:1005400002D5494260EB4000B0F5000F13D3B0F183
:10055000807F06D340084FEA310102F10102FE2AF2
:1005600051D2B1F1004F40EBC25008BF20F0010062
:1005700040EA03007047490040EB0000013A28BF01
:10058000B0F5000FEDD2B0FA80FCACF1080CB2EB84
:100590000C0200FA0CF0AABF00EBC2505242184302
:1005A000BCBFD0401843704792F0000F81F40001A7
:1005B00006BF80F400000132013BB5E74FEA41037A
:1005C0007FEA226C18BF7FEA236C21D092EA030FE6
:1005D00004D092F0000F08BF0846704790EA010F60
:1005E0001CBF0020704712F07F4F04D1400028BF8D
:1005F00040F00040704712F100723CBF00F500006F
:10060000704700F0004343F0FE4040F400007047A4
:100610007FEA226216BF08467FEA23630146420250
:1006200006BF5FEA412390EA010F40F48000704763
:100630004FF0000304E000BF10F0004348BF404209
:100640005FEA000C08BF704743F0964301464FF045
:1006500000001CE050EA010208BF70474FF00003A1
:100660000AE000BF50EA010208BF704711F00043E2
:1006700002D5404261EB41015FEA010C02BF8446B2
:100680000146002043F0B64308BFA3F18053A3F511
:100690000003BCFA8CF2083AA3EBC25310DB01FA58
:1006A00002FC634400FA02FCC2F12002BCF1004FDC
:1006B00020FA02F243EB020008BF20F0010070476D
:1006C00002F1200201FA02FCC2F1200250EA4C00C1
:1006D00021FA02F243EB020008BF20EADC70704707
:1006E0004FF0FF0C1CEAD0521EBF1CEAD15392EA15
:1006F0000C0F93EA0C0F6FD01A4480EA010C4002F1
:1007000018BF5FEA41211ED04FF0006343EA50104A
:1007100043EA5111A0FB01310CF00040B1F5000F8C
:100720003EBF490041EAD3715B0040EA010062F13B
:100730007F02FD2A1DD8B3F1004F40EBC25008BF25
:1007400020F00100704790F0000F0CF0004C08BF43
:1007500049024CEA502040EA51207F3AC2BFD2F110
:10076000FF0340EAC250704740F400004FF000031E
:10077000013A5DDC12F1190FDCBF00F00040704758
:10078000C2F10002410021FA02F1C2F1200200FA96
:1007900002FC5FEA310040F1000053EA4C0308BF5D
:1007A00020EADC70704792F0000F00F0004C02BFAE
:1007B000400010F4000F013AF9D040EA0C0093F029
:1007C000000F01F0004C02BF490011F4000F013B83
:1007D000F9D041EA0C018FE70CEAD15392EA0C0FF1
:1007E00018BF93EA0C0F0AD030F0004C18BF31F05C
:1007F000004CD8D180EA010000F00040704790F032
:10080000000F17BF90F0004F084691F0000F91F0D5
:10081000004F14D092EA0C0F01D142020FD193EA9B
:100820000C0F03D14B0218BF084608D180EA010023
:1008300000F0004040F0FE4040F40000704740F0FF
:10084000FE4040F4400070474FF0FF0C1CEAD052CD
:100850001EBF1CEAD15392EA0C0F93EA0C0F69D029
:10086000A2EB030280EA010C49024FEA402037D094
:100870004FF0805343EA111143EA10130CF000408B
:100880008B4238BF5B0042F17D024FF4000C8B427B
:1008900024BF5B1A40EA0C00B3EB510F24BFA3EB5B
:1008A000510340EA5C00B3EB910F24BFA3EB91032B
:1008B00040EA9C00B3EBD10F24BFA3EBD10340EA85
:1008C000DC001B0118BF5FEA1C1CE0D1FD2A3FF6CB
:1008D00050AF8B4240EBC25008BF20F00100704780
:1008E0000CF0004C4CEA50207F32C2BFD2F1FF0323
:1008F00040EAC250704740F400004FF00003013A54
:1009000037E792F0000F00F0004C02BF400010F4F7
:10091000000F013AF9D040EA0C0093F0000F01F00B
:10092000004C02BF490011F4000F013BF9D041EA2D
:100930000C0195E70CEAD15392EA0C0F08D1420260
:100940007FF47DAF93EA0C0F7FF470AF084676E733
:1009500093EA0C0F04D14B023FF44CAF08466EE70C
:1009600030F0004C18BF31F0004CCAD130F00042DA
:100970007FF45CAF31F000437FF43CAF5FE700BF32
:100980004FF0FF3C06E000BF4FF0010C02E000BF5B
:100990004FF0010C4DF804CD4FEA40024FEA4103FD
:1009A0007FEA226C18BF7FEA236C11D001B052EAB3
:1009B000530C18BF90EA010F58BFB2EB030088BF79
:1009C000C81738BF6FEAE17018BF40F001007047E8
:1009D0007FEA226C02D15FEA402C05D17FEA236CCA
:1009E000E4D15FEA412CE1D05DF8040B704700BF11
:1009F000844608466146FFE70FB5FFF7C9FF0028A8
:100A000048BF10F1000F0FBD4DF808EDFFF7F4FFE0
:100A10000CBF012000205DF808FB00BF4DF808ED79
:100A2000FFF7EAFF34BF012000205DF808FB00BF9C
:100A30004DF808EDFFF7E0FF94BF012000205DF8BE
:100A400008FB00BF4DF808EDFFF7D2FF94BF01206F
:100A500000205DF808FB00BF4DF808EDFFF7C8FF68
:100A600034BF012000205DF808FB00BF4FEA4002C0
:100A70004FEA41037FEA226C02D15FEA402C08D1A1
:100A80007FEA236C02D15FEA412C02D14FF00000D3
:100A900070474FF0010070474FEA4002B2F1FE4F3D
:100AA0000FD34FF09E03B3EB12620DD94FEA002330
:100AB00043F0004310F0004F23FA02F018BF404209
:100AC00070474FF00000704712F1610F01D14202F0
:100AD00005D110F0004008BF6FF0004070474FF0A4
:100AE0000000704742000ED2B2F1FE4F0BD34FF020
:100AF0009E03B3EB126209D44FEA002343F0004394
:100B000023FA02F070474FF00000704712F1610FB6
:100B100001D1420202D14FF0FF3070474FF0000088
:100B2000704700BF024B0146186800F02FB800BFA5
:100B30001C000020024B0146186800F0EFBC00BF0B
:100B40001C00002070B5104E336805460C46B3B14A
:100B50002146284600F0B8FB431C0CD0C41C24F0EE
:100B60000304A04205D0211A284600F0ADFB013055
:100B700001D0204670BD4FF0FF34204670BD1946AD
:100B800000F0A2FB3060E3E7B00100202DE9F04166
:100B9000CD1C25F0030508350C2D38BF0C25002D84
:100BA00082B0064616DBA94214D8354F00F06AF829
:100BB0007A68AAB1144603E06368224683B11C46F2
:100BC00023685B1BF8D40B2B21D8A242636855D055
:100BD00053600DE00C233360002002B0BDE8F081CB
:100BE00029463046FFF7AEFF431C044619D0056086
:100BF000304600F04DF804F10B00231D20F00700F3
:100C0000C21A1CBF1B1AA35002B0BDE8F0816119C3
:100C1000A242256014BF51607960635163684B60E4
:100C2000E6E77B6823B31C465B68002BFBD1226898
:100C300001931946304604EB020800F045FB80455D
:100C400016D12268AD1A29463046FFF77BFF0130E6
:100C50000ED022687868019B2A442260426812B94B
:100C60000CE010465268A242FBD100234360BFE76C
:100C70000C233360304600F00BF8ADE77B60B7E73C
:100C8000B0010020014800F07FBB00BF0803002036
:100C9000014800F081BB00BF0803002038B5124BAB
:100CA0001D682A6B04461AB10023C2E9044338BD0B
:100CB0001820FFF737FF0246286378B10120002192
:100CC000C2E90401094B0A480A499160C2E90003DC
:100CD0000B2393810023C2E9044338BD064B074828
:100CE000462100F0F5FB00BF1C00002034126DE629
:100CF0000E33CDABECDE05003C3D0008543D000852
:100D000038B5194B1C68226B8AB1136917495469AD
:100D1000174803FB01F100FB0411A3FB0030013372
:100D200041EB0001C2E9043121F0004038BD182038
:100D3000FFF7F8FE0246206388B101240025C2E9CE
:100D400004450C4B0C4C09480C499160C2E9004326
:100D50000B2393810A4B0146C2E9043138BD094B8C
:100D60000948522100F0B4FB1C0000202DF451581A
:100D70002D7F954C34126DE60E33CDABECDE0500C5
:100D80002E7F954C3C3D0008543D0008024A034923
:100D9000034800F069B900BF10000020E916000800
:100DA000200000200C4B4168994210B5044601D048
:100DB00000F09AFCA168094B994202D0204600F04D
:100DC00093FCE168064B994204D02046BDE81040F0
:100DD00000F08ABC10BD00BFB80100202002002036
:100DE0008802002008B54B6EDA0702D48B899B0578
:100DF00001D5002008BD886D00F0C6FA002008BDAE
:100E000008B54B6EDA0702D48B899B0501D500200B
:100E100008BD886D00F0C0FA002008BD2DE9F84338
:100E2000314C324BDFF8C890DFF8C880324FC4F83D
:100E30003831002529460423082204F15C002F4E96
:100E4000E360C4E90055C4E90455A5606566A56181
:100E500000F078F904F15800C4E90849C4E90A87A8
:100E6000266300F089FA2946254B6367082204F1BE
:100E7000C400C4E91A55C4E91E552567C4F8CC500E
:100E8000C4F8805000F05EF904F1680304F1C0007A
:100E9000C4F88830C4E92398C4E9257600F06CFAD8
:100EA000184BC4F8DC30294604F596700822C4E9D2
:100EB0003455C4E93855C4F8D850C4F83451C4F88E
:100EC000E85000F03FF904F1D003C4E93E87C4F8CC
:100ED000F49004F59470C4F80061C4F8F030BDE8F3
:100EE000F84300F049BA00BFB80100208D0D00089A
:100EF000B1100008D9100008191100083D110008B0
:100F00000900010012000200F8B506462A4800F068
:100F10003BFA2A4BD3F83831002B43D0284FD7E97E
:100F20000134013B04D524E05A1C04F1680420D0AC
:100F3000B4F90C50013B002DF6D1224BE36004F1D3
:100F40005800656600F018FA1B4800F025FAC4E95D
:100F50000155C4E904552560A5610822294604F11C
:100F60005C0000F0EFF8C4E90D55C4E912552046C5
:100F7000F8BD3D680DB12F46D1E74FF4D67130462C
:100F8000FFF704FE044680B10423056043600C3083
:100F90002946A06025464FF4D07200F0D3F83C609B
:100FA0002F46BCE7FFF73AFFB8E703483C6000F084
:100FB000F3F90C233360DAE714030020B8010020B2
:100FC000100000200100FFFF10B504460B4800F0A0
:100FD000DBF9236A2BB90A4B0A4AD3F8383122626B
:100FE00023B1BDE81040054800F0D6B9FFF716FF61
:100FF000BDE81040014800F0CFB900BF1403002045
:10100000B8010020A50D0008014800F0BDB900BFDF
:1010100014030020014800F0BFB900BF14030020F2
:1010200008B5054800F0B0F9BDE80840034A044996
:10103000002000F019B800BF1403002010000020A9
:10104000E50D000808B5054A0549002000F00CF838
:10105000BDE80840034800F09FB900BF1000002021
:10106000010E0008140300202DE9F84380460F46C6
:1010700016464FF00009D6E90154013D11D4A38969
:10108000012B05F1FF3508D9B4F90E3001332146A3
:1010900003D04046B84749EA00096B1C04F16804D4
:1010A000EDD13668002EE6D14846BDE8F88300BF92
:1010B00010B50C46B1F90E1000F0F0F8002803DB73
:1010C000636D0344636510BDA38923F48053A3813A
:1010D00010BD00BF002070472DE9F0410C46B1F96A
:1010E0000C101F46CB05054616460BD421F4805143
:1010F000A1813B46B4F90E1032462846BDE8F041C6
:1011000000F0F4B8B4F90E100223002200F0B0F899
:10111000B4F90C10EAE700BF10B50C46B1F90E1097
:1011200000F0A6F8B4F90C30421C0EBF23F4805333
:1011300043F480536065A38110BD00BFB1F90E1068
:1011400000F06EB8830730B547D0541E002A3ED059
:10115000CAB2034601E0013C39D303F8012B9D07D5
:10116000F9D1032C2CD9CDB205EB05250F2C05EBBD
:10117000054535D9A4F1100222F00F0C03F1100E31
:10118000E6444FEA121C1A46156055609560D5601A
:1011900010327245F8D10CF1010214F00C0F03EB80
:1011A000021204F00F0C13D0ACF1040323F003037C
:1011B0000433134442F8045B9A42FBD10CF003045D
:1011C0002CB1C9B21C4403F8011B9C42FBD130BDB9
:1011D00064461346002CF4D1F9E703461446C0E7F1
:1011E0001A46A446E0E700BF70B50C4B84B04FF040
:1011F000FF366946044600221868CDE9006600F013
:1012000021F80028B7BF3546DDE900013046294600
:101210000CB1C4E9000104B070BD00BF1C00002087
:1012200038B5074D0022044608462A6001F076FBD7
:10123000431C00D038BD2B68002BFBD0236038BD89
:10124000F402002070B50C46084D034600262046E7
:1012500011461C462E6001F079FB431C00D070BD86
:101260002B68002BFBD0236070BD00BFF402002070
:1012700038B50C46084D8446114620461A460023D0
:101280002B60644601F07AFB431C00D038BD2B680C
:10129000002BFBD0236038BDF402002038B50C468B
:1012A000084D8446114620461A4600232B606446AA
:1012B00001F06CFB431C00D038BD2B68002BFBD029
:1012C000236038BDF402002038B5074D00220446E3
:1012D00008462A6002F0DAFC431C00D038BD2B68B7
:1012E000002BFBD0236038BDF402002038B50C463B
:1012F000084D8446114620461A4600232B6064465A
:1013000001F04CFB431C00D038BD2B68002BFBD0F8
:10131000236038BDF4020020014B1868704700BFFD
:101320001C00002070B50F4B0F4DAB42A3EB050620
:1013300007D0B610002455F8043B01349847A64264
:10134000F9D802F0E3FC094D094B5E1BAB424FEAB2
:10135000A60606D0002455F8043B01349847A6425F
:10136000F9D870BD143E0008143E0008143E000871
:10137000183E0008704700BF704700BF704700BFAD
:10138000704700BF704700BF704700BF0120704723
:1013900001207047704700BF704700BF844641EA94
:1013A000000313F003036DD1403A41D351F8043BDD
:1013B00040F8043B51F8043B40F8043B51F8043B2F
:1013C00040F8043B51F8043B40F8043B51F8043B1F
:1013D00040F8043B51F8043B40F8043B51F8043B0F
:1013E00040F8043B51F8043B40F8043B51F8043BFF
:1013F00040F8043B51F8043B40F8043B51F8043BEF
:1014000040F8043B51F8043B40F8043B51F8043BDE
:1014100040F8043B51F8043B40F8043B51F8043BCE
:1014200040F8043B51F8043B40F8043B403ABDD23D
:10143000303211D351F8043B40F8043B51F8043BDF
:1014400040F8043B51F8043B40F8043B51F8043B9E
:1014500040F8043B103AEDD20C3205D351F8043B6E
:1014600040F8043B043AF9D2043208D0D2071CBF3A
:1014700011F8013B00F8013B01D30B880380604663
:10148000704700BF082A13D38B078DD010F00303D9
:101490008AD0C3F10403D21ADB071CBF11F8013B49
:1014A00000F8013B80D331F8023B20F8023B7BE798
:1014B000043AD9D3013A11F8013B00F8013BF9D2C3
:1014C0000B7803704B7843708B788370604670475D
:1014D00000B50B4C25681446EE681A4685B00346E5
:1014E0000D464CB107490095CDE901143046064937
:1014F00000F048F900F05AF904490C46F3E700BF40
:101500001C000020903D0008A03D00089C3D000804
:1015100008B513460022FFF7DBFF00BF002950D0BB
:1015200038B551F8043C0C1F002BB8BFE418054631
:10153000FFF7A8FB274A13682BB1A3420CD92168F7
:10154000601883422CD0636028461460BDE83840A0
:10155000FFF79EBBA3420FD81A465B68002BF9D158
:1015600011685018844217D02CD363605460284609
:10157000BDE83840FFF78CBB11685018A04214D06A
:1015800020D8216860188342EFD118685B6808444E
:10159000C4E900035460EAE723680B441360E6E7FC
:1015A00018685B6808442060CDE720680144501843
:1015B00083421160DBD1D3E900040144C2E9001485
:1015C000D5E770470C232B602846BDE83840FFF76D
:1015D0005FBB00BFB4010020F8B5B1F90C3007467D
:1015E00018070C4639D44A68002A53DDE56A002DF5
:1015F00031D000223E683A6013F48052216A55D1FE
:1016000001233846A847411C02465ED0B4F90C308D
:10161000E56A216A5B0705D56368D21A636B0BB173
:10162000236CD21A00233846A847451C40D000231B
:10163000636023692360A389D90400D56065616B69
:101640003E6041B104F14403994202D03846FFF7AD
:1016500065FF002363630020F8BD0E69002EFAD0F9
:101660009B070D6808BF4B690E6018BF0023AD1BB8
:101670008B600CE0D4F828C0216A2B4632463846ED
:10168000E047B0F1000CA5EB0C05664406DD002D2B
:10169000F0DCE0E70A6C002AA8DCDCE7B4F90C30E7
:1016A00043F04003A3814FF0FF30F8BD626DB1E716
:1016B0003A68B4F90C308AB11D2A01D0162AEFD14C
:1016C00023690022C4E90032B9E73B68002B9DD0B2
:1016D0001D2B01D0162BE1D13E60BCE76260226970
:1016E0002260DA04AAD4AAE738B50B69CBB10C465C
:1016F000054608B1036ABBB1B4F90C308BB1626E18
:10170000D00701D4990512D528462146FFF764FF7A
:10171000636EDA07054602D4A3899B050BD52846DC
:1017200038BD0025284638BDFFF74EFCE4E7A06D24
:10173000FFF72AFEE8E7A06DFFF72EFEEFE700BFF8
:10174000014618B1044B1868FFF7CEBF034A04499D
:101750000448FFF789BC00BF1C00002010000020D7
:10176000E9160008200000200CB400B583B004ABDB
:1017700053F8042B019300F05DF803B05DF804EB1F
:1017800002B070470EB410B583B005AB064C53F8E9
:10179000042B01930146206800F04CF803B0BDE82B
:1017A000104003B0704700BF1C00002008B50620A1
:1017B00000F0BEFE012001F0F9F800BF9368013B84
:1017C000002B936005DAD2F818C0634507DB0A29BD
:1017D00005D01368581C106019700846704700F057
:1017E000E3BC00BF9BB1F8B5134406460F46541E38
:1017F0005D1E01E0AC4208D014F8011F3A463046A5
:10180000FFF7DCFF431CF5D1F8BD0020F8BD002038
:10181000704700BF936810B514461BB918460023E3
:10182000636010BD00F044FB0023A36000236360ED
:1018300010BD00BF2DE9F04FA1B08B4691461C466C
:10184000049018B1036A002B00F04781DBF8642094
:10185000BBF90C30D20702D49F0540F137811E0737
:1018600040F19E80DBF81030002B00F099800023BF
:10187000CA460D9343F22003ADF839309AF8003090
:10188000974E07940127002B7AD0D14604E019F82F
:10189000013F002B00F09A80252BF8D1B9EB0A0804
:1018A00040F0978099F80030002B69D000234FF06A
:1018B000FF32CDE9092309F1010908930B938DF853
:1018C00063301E9305E0089A07FA03F31A4308925F
:1018D000A1464C46052214F8011B304600F0E0FEFC
:1018E000A246831B0028EED1089BD80644BF2022C5
:1018F0008DF86320190799F8001044BF2B228DF84A
:1019000063202A297BD1079A1168043200290792A3
:10191000C0F2B0800B9199F801102E2900F086805A
:10192000704C0322204600F0BBFE38B1089B001B20
:101930004022824013430AF1010A08931AF8011B5E
:1019400069488DF83810062200F0AAFE002800F041
:101950009780664B002B7ED007AA0092644B0498B8
:101960005A4608A9AFF300800390039B013307D0C8
:101970000D9B039A13440D939AF80030002B84D1E9
:10198000DBF8643013F0010FBBF80C3002D19A057C
:1019900040F195805B0616D40D9821B0BDE8F08F1C
:1019A0000498594600F050FC00283FF460AFDBF883
:1019B0006430DD0707D4BBF80C309C0503D4DBF89A
:1019C0005800FFF7E9FC4FF0FF30E6E7B9EB0A08F3
:1019D000D6D00AF1FF35CDF81490A946049D01E058
:1019E000A0453FD94C465A4619F8011F2846FFF733
:1019F000E5FE02340130A4EB0A04F1D1C0E7A1F105
:101A00003002092A88BFCA4687D80B9B00E0013400
:101A1000217803EB830302EB4303A1F13002092A8F
:101A2000F5D92E290B93A2467FF47AAF9AF80110CC
:101A30002A292FD1079B9AF802101A6809920433B9
:101A4000002A0AF102000793B8BF4FF0FF33824625
:101A5000B8BF099364E7079B073323F007030833F4
:101A6000079385E70D99DDF81490414499F800300B
:101A70000D9119E7494243F002030B9108934AE79D
:101A800007AA00921A4B04985A4608A900F0D0F809
:101A900003906AE7A1F130020023092A09930AF1B1
:101AA000010A3FF63DAF1AF8011F03EB830302EB77
:101AB0004303A1F13002092AF5D9099330E7DBF895
:101AC0005800FFF769FCBBF80C3063E7DBF85800FF
:101AD000FFF75AFCBBF90C30C1E6FFF775FAB5E623
:101AE000D03D0008D83D0008DC3D000800000000A3
:101AF000E517000810B4044C84461346206810BC57
:101B00000A466146FFF796BE1C0000202DE9F84FFB
:101B100092461F460A698B68DDF828909A42B8BF42
:101B20001A46CAF8002091F843300C46064613B115
:101B30000132CAF80020226891065FD5DAF8003039
:101B40000233CAF80030226812F0060F11461DD188
:101B5000E1689942D8BF114618DD04F1190B4FF026
:101B6000000805E0E568DAF80030ED1A45450CDDBF
:101B700001235A4639463046C847013008F101086A
:101B8000F0D14FF0FF30BDE8F88F216894F8433072
:101B9000003B18BF01238A060AD5E1185A1C3020E1
:101BA00081F84300224494F8451082F84310023330
:101BB00004F1430239463046C8470130E1D023687A
:101BC000DAF80050216903F00603042BD4E902205F
:101BD0001BD08A4220DD4FF00008521A90441A347C
:101BE000002501E0454517DA0123224639463046F3
:101BF000C847013005F10105F4D1C2E712F0060F24
:101C00000DD0003B18BF0123D2E7401B8A4220EAD7
:101C1000E078E2DC0028E2DC0020BDE8F88FE16833
:101C2000DAF800309942D8BF114696DCAEE700BF23
:101C30002DE9F0470C4684B01746227E0C990646E3
:101C4000984604F1430C002A35D0A2F15803D8B2CB
:101C5000202869D8202B67D8DFE813F0E000660061
:101C60006600660066006600660066006600660044
:101C700066009400700066006600660066007000F2
:101C8000660066006600660021008300AE00660004
:101C900066009E006600830066006600E6000B6832
:101CA000226860691D1D0D6011061B6802D4520672
:101CB00000F1DC8018600023E1462361CDF800804C
:101CC0003B4603AA21463046FFF720FF013020D0D3
:101CD00023694A4639463046C047013019D0236847
:101CE000E068DDF80C909B0718D5484516DD04F137
:101CF000190A002504E0E068A0EB0903AB420DDD02
:101D00000123524639463046C047013005F10105EE
:101D1000F1D14FF0FF3004B0BDE8F0874845B8BFBF
:101D2000484604B0BDE8F08784F84220012004F161
:101D300042090023206184F84330BFE70A68236822
:101D4000101D0860180602D4590600F1938010682F
:101D5000014600286268C0F2918053484FF00A0E95
:101D60004AE00B6820681D1D0D60050601D4410680
:101D70007ED419684C486F2A14BF4FF00A0E4FF0FA
:101D8000080E35E00B681A6804330B6004F1420951
:101D900084F842200120CCE70B686268181D0860B7
:101DA000D3F800900021484600F07AFC002879D052
:101DB000A0EB09006060BCE7236843F020032360C8
:101DC00078223A4884F845200A68151D0D601D06E2
:101DD0004AD4590648D51188DD0744BF43F0200393
:101DE000236019B9236823F0200323604FF0100EFD
:101DF0000023626884F84330002AA26016DB23685F
:101E000023F00403236089B9002A45D1E146BEF1DD
:101E1000080F1CD0ACEB090323614FE7582384F86B
:101E2000453021482368CFE72368C9E77546E14676
:101E3000B1FBF5F305FB131A0A46AA4210F80A1083
:101E400009F8011D1946F3D2BEF1080FE2D123684B
:101E5000D807DFD5626823699A42DBDC302309F8B2
:101E6000013C09F1FF39D5E71168B5E7188022E791
:101E700019887FE7B2F9001008466AE72D20002A8A
:101E8000A26084F8430002DB23F0040323600A25E8
:101E900005484942AE46CAE7037884F8423004F167
:101EA0004209B4E7606844E7E43D0008F83D0008F3
:101EB0009368002B00F0F6802DE9F04FB1F90CC0CB
:101EC0001CF0080F83B0904681460C4631D00B6958
:101ED0007BB31CF00207D8F8006038D00027D4F894
:101EE00028B0216ADFF8BCA23D4655452B463A464C
:101EF00028BF53464846C5B1D847002840F3C8809C
:101F0000D8F808301B1A07442D1AC8F80830002BDF
:101F100000F0B48055452B46D4F828B0216A28BF7C
:101F200053463A464846002DE6D1D6E900750836B4
:101F3000DBE72146484600F087F9002840F0AD80F5
:101F4000B4F90CC0D8F800601CF00207C6D11CF030
:101F5000010A63D12368A168574618468B46002FB3
:101F600058D01CF4007F00F0B180B9420A4600F25C
:101F7000DD801CF4906F2FD0216962695D1A02EB3D
:101F8000420202EBD2726B1C52103B44934292BF4E
:101F900093469B461A461CF4806F00F0E68011467B
:101FA0004846FEF7F3FD002800F0F5802A46216937
:101FB0000190FFF7F3F9A289019B22F4906242F0AD
:101FC0008002A2815819ABEB0505C4F814B0236157
:101FD000A5602060BB463A465146019200F094F954
:101FE000A1682368019AA1EB0B011A443D46A16048
:101FF00022600027D8F808305B1BAA44C8F80830D4
:10200000002B3BD02368A168B4F90CC018468B465E
:10201000002FA6D1D6E900A708369EE73846BB4672
:102020003D46002D40D0002845D03A46D4E904C3AF
:102030002068A168AA4228BF2A46604504D901EB5E
:10204000030A524500F38280934272DC216AD4F87D
:1020500028C05A464846E047B0F1000A18DDB7EB01
:102060000A070FD00120D8F80830A3EB0A03D344A5
:10207000A5EB0A05C8F80830002BD2D1002003B028
:10208000BDE8F08F21464846FFF72EFB0028EAD036
:10209000B4F90C3043F04003A3814FF0FF3003B09C
:1020A000BDE8F08F00207047756833460836002D74
:1020B000FAD0D3F800B02A460A21584600F0F0FAC8
:1020C000002865D00130A0EB0B07AEE722699A42E9
:1020D00014D36269BA4211D86FF00043BB4228BFE3
:1020E0003B46A56A93FBF2F3216A02FB03F34846E1
:1020F0005246A847051ECBDD7F1B7BE7B94228BFB0
:1021000039460D4618460A46514600F0FDF8A168CA
:102110002368491B2B44A16023600029ECD1214690
:102120004846FFF7E1FA0028E6D0B1E7BB463A4659
:1021300052E75946019200F0E7F8019AA3689B1A0A
:10214000A360236813442360924688E759465246A9
:1021500000F0DAF823685344236021464846FFF72D
:10216000C3FA00283FF47BAF92E7484600F0E8FA54
:10217000034600287FF426AF21694846FFF7CEF9D1
:10218000B4F90C300C2223F08003C9F8002081E759
:102190006A1C17464AE70C22B4F90C30C9F8002033
:1021A00078E700BF00FCFF7FF8B50D4614460646F1
:1021B00010B1036A002B37D0A389A269A2601A0765
:1021C00019D52369BBB122686169D31AEDB299426E
:1021D0002F4620DD0133A1680139A160511C216027
:1021E000157062699A420DD0A389DB0701D50A2DCB
:1021F00008D03846F8BD2146304600F025F838B9F9
:102200002369E0E721463046FFF76EFA0028F0D058
:102210004FF0FF37EDE721463046FFF765FA00281B
:10222000F6D122680123D6E7FEF7CEFEC4E700BF51
:1022300010B4044C03460A46206810BC1946FFF748
:10224000B3BF00BF1C00002038B52E4B1B680546ED
:102250000C4613B11A6A002A4BD0B4F90C30180797
:102260001CD5226922B313F0010107D06169002057
:102270004942A060A1613AB1002038BD980758BF1B
:102280006169A160002AF7D1190658BF1046F4D53C
:1022900043F04003A3814FF0FF3038BDD9062CD561
:1022A0005A0712D4226943F00803A381002ADAD125
:1022B00003F42071B1F5007FD5D02146284600F007
:1022C00073FAB4F90C302269CDE7616B51B104F1B6
:1022D0004402914204D02846FFF720F9B4F90C30AB
:1022E0000022626322690021C4E9002123F0240353
:1022F000D9E71846FEF768FEAFE709222A6043F0E7
:102300004003C7E71C00002088420ED98B18834287
:102310000BD900EB020C002A6ED0624613F801CDF7
:1023200002F801CD9942F9D170470F2A0FD8034620
:1023300002F1FF3C002A5FD00CF1010C013B8C4400
:1023400011F8012B03F8012F6145F9D1704740EADC
:1023500001039B0751D1A2F1100370B501F1200CCC
:1023600023F00F0501F1100E00F11004AC441B091D
:102370005EF8105C44F8105C5EF80C5C44F80C5C91
:102380005EF8085C44F8085C5EF8045C44F8045CA1
:102390000EF1100EE64504F11004E9D1013312F0FC
:1023A0000C0F01EB031102F00F0400EB031328D014
:1023B000043C24F003064FEA940C1E441C1F8E4676
:1023C0005EF8045B44F8045FB442F9D10CF10104F7
:1023D00002F0030203EB840301EB840102F1FF3CF2
:1023E0004AB10CF1010C013B8C4411F8012B03F8AC
:1023F000012F6145F9D170BD704702F1FF3C0346E2
:102400009AE72246EAE700BF38B5C46B0CB100205A
:1024100038BD80210546FEF7B9FB0246E86330B1BE
:10242000031F7C3243F8044F9342FBD1EFE74FF098
:10243000FF3038BD30B51F2983B0054608D8C36BBF
:102440000C4653B153F8240043F8242003B030BDA8
:10245000162303604FF0FF30F8E780210192FEF76A
:1024600095FB019AE86303460028F3D0011F00F1B1
:102470007C05002041F8040FA942FBD1E2E700BF30
:102480001F2938B505461ED8C26B0C466AB152F8F2
:10249000213053B1012B06D0591C10D0002142F835
:1024A000241020469847002038BD284600F0F2F856
:1024B000224601462846BDE8384000F0D5B816232C
:1024C0000360012038BD162303604FF0FF3038BD94
:1024D0001F292AD838B5C36B0C460546A3B153F85B
:1024E000242003EB84034AB1511C0BD0012A07D0EE
:1024F000002520461D609047284638BD012038BD84
:10250000032038BD022038BD8021FEF73FFB034683
:10251000E86338B1021F00217C3042F8041F90426A
:10252000FBD1DCE74FF0FF3038BD4FF0FF30704794
:1025300038B5134B1F281D681DD8EA6B044662B1DD
:1025400052F820304BB1012B05D0591C0FD000217F
:1025500042F820109847002038BD284600F09AF82D
:10256000224601462846BDE8384000F07DB81623D3
:102570002B60012038BD16232B604FF0FF3038BD93
:102580001C000020114B1F2870B51E6808D8F36B83
:1025900004460D464BB153F8240043F8245070BD57
:1025A000162333604FF0FF3070BD80213046FEF7B8
:1025B000EDFA0346F0630028F4D0021F00217C30BE
:1025C00042F8041F9042FBD1E5E700BF1C00002049
:1025D00038B50B4B1D68EC6B0CB1002038BD802169
:1025E0002846FEF7D3FAE86338B1031F00F17C02F6
:1025F00043F8044F9342FBD1EFE74FF0FF3038BD73
:102600001C00002038B5174B1F281D6826D804462B
:10261000E86BA0B150F8243000EB84004BB15A1C99
:102620000BD0012B07D0002505602046984728468F
:1026300038BD012038BD032038BD022038BD8021BF
:102640002846FEF7A3FAE86340B1031F00F17C01BE
:10265000002243F8042F9942FBD1DBE74FF0FF3013
:1026600038BD00BF1C00002070B50C46084D034665
:102670000026204611461C462E6000F077F9431CC8
:1026800000D070BD2B68002BFBD0236070BD00BF55
:10269000F402002000F052B9000000000000000029
:1026A00001F0FF01102A2BDB10F0070F08D010F803
:1026B000013B013A8B422DD010F0070F42B3F6D107
:1026C000F0B441EA012141EA014122F007047FF020
:1026D00000070023F0E80256083C85EA010586EA77
:1026E000010685FA47F5A3FA87F586FA47F6A5FAB3
:1026F00087F68EB9EED1F0BC01F0FF0102F00702BF
:1027000032B110F8013B013A83EA010313B1F8D169
:102710000020704701387047002D06BF354603384A
:10272000073815F0010F07D1013015F4807F02BF83
:10273000013015F4C03F0130F0BC0138704700BFD4
:102740002DE9F041144649B3EAB106460D4600F0C2
:10275000DDF88442074602D8B4EB500F1AD8214660
:102760003046FEF713FA804678B1BC42224629462D
:1027700028BF3A46FEF712FE30462946FEF7CEFE47
:102780004046BDE8F081FEF7C9FE4FF00008404624
:10279000BDE8F081A8464046BDE8F081BDE8F041C3
:1027A0001146FEF7F3B900BF70B5B1F90C300C4615
:1027B000990796B007D504F147030122C4E9043212
:1027C000236016B070BDB4F90E100029054629DB50
:1027D0006A4600F073F8002822DB4FF48061284637
:1027E000019EFEF7D3F988B3A389206043F08003EC
:1027F00006F47046A381B6F5005F4FF48063C4E928
:102800000403DED1B4F90E10284600F06DF800285C
:10281000D7D0A38923F0030343F00103A381D0E7BA
:10282000B4F90C3013F0800F14BF40264FF48066CB
:1028300031462846FEF7AAF940B1A389206043F04B
:102840008003C4E90406A38116B070BDB4F90C304E
:102850009A05B6D423F0030304F1470243F00203C0
:102860000121C4E90421A3812260AAE770B50C46C6
:10287000B1F90E10002996B015461E460FDB6A46C8
:1028800000F01CF800280ADB019B03F47043A3F559
:102890000053B3FA83F34FF480625B0908E0A28926
:1028A00012F0800F4FF0000314BF40224FF48062FB
:1028B000002033602A6016B070BD00BF70B50C46B2
:1028C000084D03460026204611461C462E6000F0A7
:1028D0002DF8431C00D070BD2B68002BFBD023606B
:1028E00070BD00BFF402002038B5074D0022044639
:1028F00008462A6000F032F8431C00D038BD2B682F
:10290000002BFBD0236038BDF402002051F8043CBA
:10291000181F002BBCBF0B58C0187047024B582221
:102920001A604FF0FF307047F4020020024B58222B
:102930001A604FF0FF307047F4020020024B58221B
:102940001A604FF0FF307047F4020020024B58220B
:102950001A604FF0FF307047F4020020024B5822FB
:102960001A600020704700BFF4020020024B58227A
:102970001A604FF0FF307047F4020020024B5822DB
:102980001A604FF0FF307047F4020020024B5822CB
:102990001A604FF0FF307047F4020020024B5822BB
:1029A0001A604FF0FF307047F4020020FEE700BFCE
:1029B00010B5054C237833B9044B13B10448AFF379
:1029C00000800123237010BD1503002000000000CB
:1029D0000C3D000808B5034B1BB103490348AFF396
:1029E000008008BD00000000180300200C3D000816
:1029F000F0B5314D0C462968496889B00022496814
:102A00008DF807205A1E063312F8010F48729A42B9
:102A100001F10C01F8D12B685B685B685B6802A967
:102A20000A221A700F4600230C262A685068406854
:102A300006FB030001334068072B007801F8010B07
:102A4000F3D153685B681B7A8DF80F3053685B686D
:102A50005B6814225A7004A800230C2629684A686F
:102A6000526806FB032201335268072B527800F8A4
:102A7000012BF3D14B685B6800261B7D8DF8173066
:102A80008DF81D6000F0E8FA2B6814FB04F493E85D
:102A900003003246E4B200F0BDF800F0E4FA8DF82D
:102AA00007403A46162172209DF8073000F06EF973
:102AB000304609B0F0BD00BF6C00002007B500F043
:102AC00029FA00F067FA00F0A3FA00F04DF90A4A7B
:102AD0001021702000F02EF9084A02230721C2E9D4
:102AE000001368460321936000F03BF8044BC3F8E1
:102AF00000D000F0A3F9FCE7F12900080000002055
:102B00006C000020F8B5044608460D46FEF70AF8AA
:102B100000270646AF4205DB00232381C4E90056A7
:102B20002046F8BDFEF7ECF84242D2B2C3B258BF1D
:102B30005342F3550137EDE738B504460C204843BE
:102B40000D46FDF7EFFFC4E90050204638BD38B50B
:102B50000446C8000D46FDF7E5FFC4E900502046D5
:102B600038BD2DE9F04F074685B0002090460C4651
:102B7000FEF73AFBFEF792F821463846FFF7E7FFEB
:102B80007D680026A64216DB0126A5F1080AA5F1FC
:102B9000040BA6422EDB04F10054013C05EBC405F6
:102BA00000264FF00C09E8462B68B34225DC384676
:102BB00005B0BDE8F08F58F8261005EBC600FFF70A
:102BC000BBFF0136DEE75BF8362055F83610684665
:102BD00003FB0928FFF796FF684607C888E8070047
:102BE00009F101095AF836204A454FF00C03EADC96
:102BF0000136CEE74FF00009F4E7002140466C684B
:102C0000FFF780FF98E8070009FB064484E8070007
:102C10000136C9E72DE9F04F85B06B4683E8030024
:102C2000904683460C4601264FF00C0A4FF07E5921
:102C30005E453CDB05B0BDE8F08FE76823680AFB22
:102C400005774FF0000C387A634511DC0BF1FF3249
:102C5000B24218DD030628D4C0B278720135A268EA
:102C6000AA42EADCB8F1000F23DC01360834DFE7C2
:102C700062680AFB0C220CF1010C5168527A495D22
:102C800001FB0200E0E74042FDF7D2FCFDF780FACD
:102C90004946FDF71DFC01464846FDF7D5FD0949AB
:102CA000FDF71EFDFDF71EFFD6E70020D5E7002546
:102CB000D5E700220392039A092AD6DC039A01324F
:102CC000F8E700BF0000FE4210B5024601440020B4
:102CD0008A4200D110BD12F8013B0824584010F080
:102CE000800F4FEA400318BF83F04D03013CD8B278
:102CF000F5D1EDE730B50022044601238B4201D324
:102D0000002030BD14F8015F15B99D1A85541A468C
:102D10000133DBB2F2E730B50478002502460570D6
:102D20002046884200D204B930BD145C1554031902
:102D3000D8B2F6E738B50B4D2B680F2B04DD6120B8
:102D400000F0B2F9012038BDFF2901D96220F7E770
:102D50000C2404FB035401332071C4E902122B60DC
:102D60000020F0E77000002008B5064A0021762018
:102D7000FFF7E0FFBDE80840034A00217720FFF796
:102D8000D9BF00BFE32D0008012E000870B5C0B008
:102D90000C46002511468DF8010022460DF1030076
:102DA0008DF802408DF80050FEF7F8FAA11CC9B268
:102DB0000DF10100FFF788FF0DEB0403261D611DD7
:102DC000D870C9B268460DF80650FFF793FF6C46FD
:102DD00014F8010B013500F067F9AE42F8DA40B0A3
:102DE00070BD07B503230DF10702012172208DF894
:102DF0000730FFF7CBFF002003B05DF804FB0000B5
:102E000030B50D48017885B000220C24D3B28B4236
:102E100002F1010206DB6A467220FFF7B7FF0020CD
:102E200005B030BD03F1100504FB03036D441B79AD
:102E300005F8103CEAE700BF700000202DE9F047DC
:102E4000C2B0002502AE8DF80750344600F012F9EA
:102E500006F8010B58B905208DF807000DF107029F
:102E600001216520FFF792FF42B0BDE8F0870135F0
:102E7000042DEBD129462046FFF74DFF244F617802
:102E80003A68804600230C205FFA83F9914502DB03
:102E900007D10120E0E700FB0976013336798E4245
:102EA000F2D1E3780533434502DA0420D4E735460E
:102EB00000F0E0F860550028CDD0E3786E1C0433B4
:102EC000B342F4DA00F0D6F8A0550028EDD1C8F1ED
:102ED000010353FA86F1C9B25FFA86FA04EB0800DF
:102EE000FFF719FFAAF10201C9B20DF10900FFF7BE
:102EF000EBFE635D834209D10C2303FB0977E27883
:102F0000FD68A17860786B44A847A5E70220A3E795
:102F10007000002070B596B0002403264FF4A02363
:102F20000CA80125CDE90C631094149400F0D4F89A
:102F30000F23214602A8CDE90235CDE904440694C9
:102F400000F01CFB114B5A6942F400225A615B6984
:102F5000CDE9094603F400230D4C0193019B07A919
:102F60004FF4C0432046CDE9073500F0A7FB2A46C1
:102F700020464FF4005100F061FC2A464FF4804196
:102F8000204600F05BFC16B070BD00BF0010024090
:102F90000008004810B54FF4C06288B00223CDE9A4
:102FA000032301210323CDE90513164C07230793BF
:102FB000636943F400336361636903F4003301938D
:102FC00003A94FF09040019B00F078FB0E48DFF81A
:102FD0003CC04FF46133C0E900C30023C0E90233B1
:102FE000036183610C234361A36943F48043A361BC
:102FF000A36903F480430293029B00F05BFD08B0D9
:1030000010BD00BF00100240340100200038014014
:10301000104B30B55A6942F400325A615B6987B08F
:1030200003F400330093009B4FF480540123CDE957
:1030300001430025032301A94FF09040CDE903533C
:1030400000F03CFB2A4621464FF0904000F0F6FB92
:1030500007B030BD0010024001224FF480514FF004
:10306000904000F0EBBB00224FF480514FF09040B5
:1030700000F0E4BB37B50A4D0A4C41F28833012217
:103080000DF10701284600F095FD18B99DF80700DD
:1030900003B030BD236A43F008032362EDE700BFAD
:1030A000340100200038014007B541F288338DF823
:1030B000070001220DF10701024800F025FD03B0D1
:1030C0005DF804FB34010020024B1868421C1A60B2
:1030D000704700BFA401002003682DE9F743D9071A
:1030E000044611D423689A0700F18B8023681E07D9
:1030F00000F1F38023685D0700F13681E269002A60
:1031000040F0B88100201FE0B3494B6803F00C0386
:10311000042B07D04B6803F00C03082B17D14B6826
:10312000DB0314D54FF4003393FAA3F2096893FA42
:10313000A3F30122B3FA83F302FA03F30B42D1D0D3
:103140006368002BCED1012003B0BDE8F083D4E941
:103150000132B3F5803F20D10B6843F480330B601C
:10316000CB6A23F00F031343CB62FFF7ADFF4FF49D
:1031700000360546012796FAA6F30A6896FAA6F3E2
:10318000B3FA83F307FA03F31342ABD1FFF79CFFC3
:10319000401B6428EFD90320D6E71BBB0B6823F440
:1031A00080330B600B6823F480230B60CB6A23F021
:1031B0000F031343CB62FFF787FF4FF4003605463A
:1031C000012796FAA6F30A6896FAA6F3B3FA83F3F0
:1031D00007FA03F3134285D0FFF776FF401B6428FC
:1031E000EFD9D8E7B3F5A02F0B6803D143F48023C0
:1031F0000B60B1E723F480330B600B6823F480236A
:10320000ADE775494B6813F00C0F07D04B6803F01E
:103210000C03082B1FD14B68DF031CD4022393FA45
:10322000A3F2086893FAA3F30122B3FA83F302FA34
:1032300003F3034202D02369934284D10868F82241
:1032400092FAA2F26369B2FA82F2934020F0F80295
:1032500013430B604AE722690125F2B195FAA5F301
:10326000B3FA83F303F1845303F584139B0002271D
:103270001D60FFF729FF064697FAA7F30A6897FA39
:10328000A7F3B3FA83F305FA03F31342D6D1FFF79A
:103290001BFF801B0228EFD97DE795FAA5F3B3FA4F
:1032A00083F303F1845303F584139B0002271A6010
:1032B000FFF70AFF064697FAA7F30A6897FAA7F3FB
:1032C000B3FA83F305FA03F313423FF40FAFFFF7AA
:1032D000FBFE801B0228EED95DE7A2693E4D3F4808
:1032E000012102B391FAA1F3B3FA83F303449B00E3
:1032F00002261960FFF7E8FE074696FAA6F396FA4B
:10330000A6F396FAA6F36A6A96FAA6F3B3FA83F3DB
:1033100001FA03F313427FF4EDAEFFF7D5FEC01BB5
:103320000228EAD937E791FAA1F3B3FA83F3034409
:103330009B0002261A60FFF7C7FE074696FAA6F31F
:1033400096FAA6F396FAA6F36A6A96FAA6F3B3FA81
:1033500083F301FA03F313423FF4CCAEFFF7B4FE5C
:10336000C01B0228EAD916E71B49CB69D80031D423
:10337000CB6943F08053CB61CB6903F08053019359
:10338000019B0125164E3368DA052BD5E368012B26
:1033900038D10B6A43F001030B62FFF795FE02265A
:1033A00007464FF0010841F2883996FAA6F396FADB
:1033B000A6F30A6A96FAA6F3B3FA83F308FA03F3BC
:1033C000134251D0002D3FF499AECB6923F08053C6
:1033D000CB6193E60025D5E70010024020819010D4
:1033E00000700040336843F480733360FFF76CFE75
:1033F00007463368DB05C9D4FFF766FEC01B6428A7
:10340000F7D9C8E613BB0B6A23F001030B620B6A02
:1034100023F004030B62FFF757FE022607464FF026
:10342000010841F2883996FAA6F396FAA6F30A6AD9
:1034300096FAA6F3B3FA83F308FA03F31342C1D062
:10344000FFF742FEC01B4845EDD9A4E6052B0B6AE9
:1034500003D143F004030B629BE723F001030B62EB
:103460000B6A23F0040397E7FFF72EFEC01B4845C5
:103470009BD990E63F494B6803F00C03082B3FF4BF
:1034800062AE022A4FF0807350D193FAA3F3B3FADD
:1034900083F303F1845303F584139B0000221A6025
:1034A000FFF712FEDFF8D08006464FF000770125C7
:1034B00097FAA7F30A6897FAA7F3B3FA83F305FA22
:1034C00003F313422CD1D4E908034A68034322F4DE
:1034D000741213434B604FF0807393FAA3F3B3FA63
:1034E00083F303F1845303F584139B00224F1D6083
:1034F000FFF7EAFD4FF000750446012695FAA5F3A3
:103500000A6895FAA5F3B3FA83F306FA03F31342B4
:103510007FF4F8ADFFF7D8FD001BB842EED93AE6CC
:10352000FFF7D2FD831B4345C2D934E693FAA3F3D8
:10353000B3FA83F303F1845303F584139B00002251
:103540001A60FFF7C1FD0C4F04464FF000750126CD
:1035500095FAA5F30A6895FAA5F3B3FA83F306FA88
:1035600003F313423FF4CEADFFF7AEFD001BB842AC
:10357000EED910E600100240400D03004D4AF8B5A8
:10358000136803F007038B42044611D322689507A2
:103590001AD4D00720D4474A136803F007038B429C
:1035A0006CD82268510774D413077AD400200AE03B
:1035B000136823F007030B431360136803F007033A
:1035C0008B42E3D00120F8BD3B48A568436823F057
:1035D000F0032B434360DCE76268374D012A25D1B5
:1035E0004FF4003393FAA3F0286893FAA3F3B3FAE5
:1035F00083F302FA03F30342E4D06B6823F003037E
:1036000013436B60FFF760FD6368012B064641F2D0
:1036100088371CD16B6803F00C03042BBBD0FFF779
:1036200053FD801BB842F5D90320CCE7022A0CBF1A
:103630004FF00073022393FAA3F02E6893FAA3F3DA
:103640000120B3FA83F300FA03F33342D4E7022BE9
:103650000FD16B6803F00C03082B9CD0FFF734FDEF
:10366000801BB842F5D9DFE7FFF72EFD801BB8427B
:10367000DAD86B6813F00C0FF6D18CE7136823F0DF
:1036800007030B431360136803F007038B4299D1C0
:1036900087E70949E0684B6823F4E06303434B6024
:1036A00082E7054A2169536823F4605343EAC10362
:1036B00053607BE700200240001002402DE9F74FE5
:1036C000DFF86C815B4C00234FF00F090A6832FA77
:1036D00003F502D103B0BDE8F08F012505FA03FA26
:1036E0001AEA020200F099804D6825F0100EBEF132
:1036F000020F11D1DF0800EB870703F0070C3E6AC9
:103700004FEA8C0C09FA0CFB26EA0B0B0E6906FA41
:103710000CF646EA0B063E62D0F800B04FEA430CC6
:10372000032606FA0CF72BEA070BFE4305F0030706
:1037300007FA0CF70EF1FF3E47EA0B07BEF1010F47
:10374000076011D8876806EA070ECF6807FA0CF7FA
:1037500047EA0E078760476827EA0A0EC5F3001795
:103760009F4047EA0E074760C76837408E6806FAF1
:103770000CF63E43C660EE004FD5D8F8186046F010
:103780000106C8F81860D8F8186023F0030707F19D
:10379000804706F0010607F58037019603F0030C19
:1037A000019EBE684FEA8C0C09FA0CFEB0F1904FF6
:1037B00026EA0E0E33D0204EB04232D006F5806697
:1037C000B04230D006F58066B0422ED006F5806655
:1037D000B04214BF0526042606FA0CF646EA0E0689
:1037E000BE602668D74315F4803F0CBF3E401643A9
:1037F0002660666815F4003F0CBF3E4016436660C5
:10380000A66815F4801F0CBF3E401643A660E6680C
:10381000AD0254BF3E401643E660013356E7002632
:10382000DAE70126D8E70226D6E70326D4E700BF69
:103830000010024000040140000400480AB1816108
:10384000704781627047000002688368C16930B5C3
:10385000056914682B43456924F416442B4324F06E
:103860000C040B43234313605368C468056A23F4B4
:103870004053234353609468836924F430642B439A
:1038800023439360544B9A4212D103F558431B6B68
:1038900003F00303022B6BD0032B1ED04068B1F55D
:1038A000004F4FEA500340F0898003F561031EE0AA
:1038B0004A4B9A421ED103F5E6331B6B03F44033A7
:1038C000B3F5003F54D005D8002B5AD0B3F5803F54
:1038D000E4D038E0B3F5403F35D14068B1F5004F52
:1038E0004FEA50036FD103F1F47303F59043B3FB38
:1038F000F0F350E03A4B9A420FD103F5E4331B6BDF
:1039000003F44023B3F5002F32D003D8CBB3B3F583
:10391000802FDDE7B3F5402FDEE7324B9A420FD11F
:1039200003F5E2331B6B03F44013B3F5001F1FD004
:1039300003D833B3B3F5801FCAE7B3F5401FCBE715
:10394000294B9A4205D0B1F5004F4FF001002BD022
:1039500030BD264B1B6B03F44003B3F5000F07D0BB
:1039600003D873B1B3F5800FB2E7B3F5400FB3E7F7
:103970004068B1F5004F4FEA500329D103F5803379
:10398000B5E7B1F5004F41684FEA51030ED103F599
:103990006103B3FBF1F39BB2002023F00F01C3F3EB
:1039A00042030B43D360D3E70023F6E703F5E103BB
:1039B000B3FBF1F39BB2D3600020C9E703F5E10349
:1039C000B3FBF0F3F6E703F5740303F51053F7E7E1
:1039D00003F50043F4E700BF003801400044004015
:1039E00000480040004C00400050004000100240E1
:1039F0002DE9F041DDF81880044616461F4625687B
:103A0000EB6931EA03030CBF01230023B34201D069
:103A1000002016E0B8F1FF3FF2D0B8F1000F12D14C
:103A20002B6823F4D0732B60AB6823F00103AB60E9
:103A3000202384F8693084F86A30002384F86830E1
:103A40000320BDE8F081FFF73FFBC01B4045D6D9FE
:103A5000E6E773B504460021C166FFF735FB26682B
:103A600033681A07054616D433685B070AD56FF02A
:103A70007E43009300222B464FF480012046FFF73F
:103A8000B7FFA0B92023002084F8693084F86800CB
:103A900084F86A300CE06FF07E4300930A460346D8
:103AA0004FF400112046FFF7A3FF0028DCD00320CD
:103AB00002B070BD38B5044620B390F8693003F009
:103AC000FF020BB980F868202568242384F8693048
:103AD0002B6823F001032B602046FFF7B5FE012879
:103AE00010D06B6823F490436B60AB6823F02A031B
:103AF000AB602B6843F001032B602046BDE83840E3
:103B0000FFF7A7BF012038BDF7B51E4690F8693012
:103B1000202B0D46044611464AD1002D46D0002ADE
:103B200044D090F86830012B42D0012380F86830EF
:103B30000023C366212380F86930FFF7C5FAA4F893
:103B400050100746A4F85210B4F8522092B262B94D
:103B500000963B4640212046FFF74AFF98B92023B4
:103B600084F8693084F868000EE0B4F85220013A15
:103B700092B2A4F852203B460096002280212046B3
:103B8000FFF736FF10B1032003B0F0BDA368226831
:103B9000B3F5805F07D123692BB935F8023BC3F336
:103BA00008031385D0E715F8013BFAE70120EBE79E
:103BB0000220E9E72DE9F3411E4690F86A30202BF8
:103BC0000D46044611465CD1002D58D0002A56D02F
:103BD00090F86830012B54D0012380F868300368D6
:103BE0004FF0FF321A620023C366222380F86A3046
:103BF000FFF76AFAA368A4F85810B3F5805F80460F
:103C0000A4F85A1015D123698BB940F2FF13A4F818
:103C10005C30B4F85C70B4F85A0080B280B92023EC
:103C200084F86A3084F8680002B0BDE8F081FF23B0
:103C3000EDE7002BEDD12369002BF8D07F23E6E7D9
:103C4000B4F85A20013A92B2A4F85A20434600969A
:103C5000002220212046FFF7CBFEA0B9A2682368EE
:103C6000B2F5805F06D1226922B99B8C3B4025F8D2
:103C7000023BD0E79B8C3B4005F8013BCBE70120A2
:103C8000D2E70220D0E70320CEE700000A4A1168FD
:103C900008B5034609B9094911601068694603442B
:103CA0008B4206D9FDF738FB0C2303604FF0FF3041
:103CB00008BD1360FCE700BFAC010020300300200A
:103CC000002103E00B4B5B58435004310A480B4B77
:103CD00042189A42F6D30A4A02E0002313600432E3
:103CE000084B9A42F9D3AFF30080FDF71BFBFEF7B8
:103CF000E5FEFEE71C3E0008000000206C000020EE
:103D00006C00002030030020FEE70000F8B500BF83
:103D1000F8BC08BC9E467047F8B500BFF8BC08BCAC
:043D20009E46704704
:103D24008071313F807131BFD1F71737D1F717B7A1
:103D34000000003F000000BF5245454E54206D6115
:103D44006C6C6F6320737563636565646564000000
:103D5400633A5C6D5C625C7372635C6E65776C691C
:103D6400622D342E342E302E323032333132333110
:103D74005C6E65776C69625C6C6962635C737464C5
:103D84006C69625C72616E642E6300002C2066753F
:103D94006E6374696F6E3A2000000000617373658E
:103DA4007274696F6E2022257322206661696C65C6
:103DB400643A2066696C6520222573222C206C6984
:103DC4006E65202564257325730A0000232D302B8E
:103DD40020000000686C4C0065666745464700009B
:103DE400303132333435363738394142434445462D
:103DF40000000000303132333435363738396162EF
:083E0400636465660000000024
:083E0C0090D5FF7F01000000CA
:043E1400D5290008A4
:043E1800B1290008C4
:103E1C00070000000200000002000000000000008B
:103E2C000000000003000000B8010020200000206A
:103E3C0000000000B80100202002002088020020B1
:103E4C000000000000000000000000000000000066
:103E5C000000000000000000000000000000000056
:103E6C000000000000000000000000000000000046
:0C3E7C000000000000000000000000003A
:0400000508003CC1F2
:00000001FF
