:020000040800F2
:1000000000A000206D130008B5130008B513000808
:10001000B5130008B5130008B51300080000000070
:10002000000000000000000000000000B513000800
:10003000B513000800000000B5130008B513000850
:1000400000000000000000000000000000000000B0
:1000500000000000000000000000000000000000A0
:100060000000000000000000000000000000000090
:100070000000000000000000000000000000000080
:100080000000000000000000000000000000000070
:100090000000000000000000000000000000000060
:1000A0000000000000000000000000000000000050
:1000B0000000000000000000000000000000000040
:1000C0000000000000000000000000000000000030
:1000D0000000000000000000000000000000000020
:1000E0000000000000000000000000000000000010
:1000F0000000000000000000000000000000000000
:1001000000000000000000000000000000000000EF
:1001100000000000000000000000000000000000DF
:1001200000000000000000000000000000000000CF
:1001300000000000000000000000000000000000BF
:1001400000000000000000000000000000000000AF
:10015000000000000000000000000000000000009F
:10016000000000000000000000000000000000008F
:10017000000000000000000000000000000000007F
:08018000000000000000000077
:1001880070B50F4B0F4DAB42A3EB050607D0B61069
:10019800002455F8043B01349847A642F9D801F0E9
:1001A80007F9094D094B5E1BAB424FEAA60606D07C
:1001B800002455F8043B01349847A642F9D870BD8D
:1001C800D8130008D8130008D8130008DC13000857
:1001D800844641EA000313F003036DD1403A41D34A
:1001E80051F8043B40F8043B51F8043B40F8043B09
:1001F80051F8043B40F8043B51F8043B40F8043BF9
:1002080051F8043B40F8043B51F8043B40F8043BE8
:1002180051F8043B40F8043B51F8043B40F8043BD8
:1002280051F8043B40F8043B51F8043B40F8043BC8
:1002380051F8043B40F8043B51F8043B40F8043BB8
:1002480051F8043B40F8043B51F8043B40F8043BA8
:1002580051F8043B40F8043B51F8043B40F8043B98
:10026800403ABDD2303211D351F8043B40F8043B38
:1002780051F8043B40F8043B51F8043B40F8043B78
:1002880051F8043B40F8043B103AEDD20C3205D348
:1002980051F8043B40F8043B043AF9D2043208D040
:1002A800D2071CBF11F8013B00F8013B01D30B88B2
:1002B80003806046704700BF082A13D38B078DD090
:1002C80010F003038AD0C3F10403D21ADB071CBF62
:1002D80011F8013B00F8013B80D331F8023B20F8CC
:1002E800023B7BE7043AD9D3013A11F8013B00F805
:1002F800013BF9D20B7803704B7843708B7883708D
:100308006046704710B5054C237833B9044B13B1D8
:100318000448AFF300800123237010BD3C01002086
:1003280000000000B813000808B5034B1BB10349CF
:100338000348AFF3008008BD000000004001002022
:10034800B813000837B50C4614FB04F40025E4B2D2
:100358008DF8075000F0ECF900F0F1F98DF807403E
:100368009DF807308DF8043001AA0121722000F0B1
:1003780079F8284603B030BD08B500F037F900F029
:1003880075F900F0B1F900F05BF8044A102170200B
:1003980000F03CF800F0BEF8FCE700BF4D03000891
:1003A80010B50246014400208A4200D110BD12F85F
:1003B800013B0824584010F0800F4FEA400318BF53
:1003C80083F04D03013CD8B2F5D1EDE730B50022FA
:1003D800044601238B4201D3002030BD14F8015F8D
:1003E80015B99D1A85541A460133DBB2F2E730B5C8
:1003F80004780025024605702046884200D204B9D8
:1004080030BD145C15540319D8B2F6E738B50B4D56
:100418002B680F2B04DD612000F0B2F9012038BDF4
:10042800FF2901D96220F7E70C2404FB03540133A8
:100438002071C4E902122B600020F0E700000020C0
:1004480008B5064A00217620FFF7E0FFBDE808401E
:10045800034A00217720FFF7D9BF00BFC304000873
:10046800E104000870B5C0B00C46002511468DF8AF
:10047800010022460DF103008DF802408DF800506E
:10048800FFF7A6FEA11CC9B20DF10100FFF788FF16
:100498000DEB0403261D611DD870C9B268460DF81E
:1004A8000650FFF793FF6C4614F8010B013500F076
:1004B80067F9AE42F8DA40B070BD07B503230DF115
:1004C8000702012172208DF80730FFF7CBFF0020CB
:1004D80003B05DF804FB000030B50D48017885B025
:1004E80000220C24D3B28B4202F1010206DB6A46D9
:1004F8007220FFF7B7FF002005B030BD03F11005EB
:1005080004FB03036D441B7905F8103CEAE700BFC0
:10051800000000202DE9F047C2B0002502AE8DF89A
:100528000750344600F012F906F8010B58B90520B7
:100538008DF807000DF1070201216520FFF792FFF2
:1005480042B0BDE8F0870135042DEBD1294620469D
:10055800FFF74DFF244F61783A68804600230C204E
:100568005FFA83F9914502DB07D10120E0E700FB40
:100578000976013336798E42F2D1E3780533434563
:1005880002DA0420D4E7354600F0E0F86055002888
:10059800CDD0E3786E1C0433B342F4DA00F0D6F819
:1005A800A0550028EDD1C8F1010353FA86F1C9B26C
:1005B8005FFA86FA04EB0800FFF719FFAAF10201B7
:1005C800C9B20DF10900FFF7EBFE635D834209D163
:1005D8000C2303FB0977E278FD68A17860786B4407
:1005E800A847A5E70220A3E70000002070B596B051
:1005F800002403264FF4A0230CA80125CDE90C63A1
:100608001094149400F0D4F80F23214602A8CDE9E1
:100618000235CDE90444069400F01CFB114B5A69DD
:1006280042F400225A615B69CDE9094603F40023CC
:100638000D4C0193019B07A94FF4C0432046CDE917
:10064800073500F0A7FB2A4620464FF4005100F07A
:1006580061FC2A464FF48041204600F05BFC16B04E
:1006680070BD00BF001002400008004810B54FF4EC
:10067800C06288B00223CDE9032301210323CDE919
:100688000513164C07230793636943F4003363612A
:10069800636903F40033019303A94FF09040019B71
:1006A80000F078FB0E48DFF83CC04FF46133C0E936
:1006B80000C30023C0E90233036183610C23436153
:1006C800A36943F48043A361A36903F480430293BD
:1006D800029B00F05BFD08B010BD00BF0010024097
:1006E800C400002000380140104B30B55A6942F46C
:1006F80000325A615B6987B003F400330093009BB2
:100708004FF480540123CDE901430025032301A9B7
:100718004FF09040CDE9035300F03CFB2A462146B8
:100728004FF0904000F0F6FB07B030BD00100240DB
:1007380001224FF480514FF0904000F0EBBB0022B3
:100748004FF480514FF0904000F0E4BB37B50A4DAC
:100758000A4C41F2883301220DF10701284600F0C6
:1007680095FD18B99DF8070003B030BD236A43F022
:1007780008032362EDE700BFC400002000380140F1
:1007880007B541F288338DF8070001220DF1070102
:10079800024800F025FD03B05DF804FBC40000200A
:1007A800024B1868421C1A60704700BF34010020D1
:1007B80003682DE9F743D907044611D423689A073B
:1007C80000F18B8023681E0700F1F38023685D0722
:1007D80000F13681E269002A40F0B88100201FE06C
:1007E800B3494B6803F00C03042B07D04B6803F0A4
:1007F8000C03082B17D14B68DB0314D54FF40033D7
:1008080093FAA3F2096893FAA3F30122B3FA83F3E4
:1008180002FA03F30B42D1D06368002BCED101203A
:1008280003B0BDE8F083D4E90132B3F5803F20D1AD
:100838000B6843F480330B60CB6A23F00F03134338
:10084800CB62FFF7ADFF4FF400360546012796FA55
:10085800A6F30A6896FAA6F3B3FA83F307FA03F342
:100868001342ABD1FFF79CFF401B6428EFD903204C
:10087800D6E71BBB0B6823F480330B600B6823F4AB
:1008880080230B60CB6A23F00F031343CB62FFF77F
:1008980087FF4FF400360546012796FAA6F30A6843
:1008A80096FAA6F3B3FA83F307FA03F3134285D053
:1008B800FFF776FF401B6428EFD9D8E7B3F5A02FE0
:1008C8000B6803D143F480230B60B1E723F4803332
:1008D8000B600B6823F48023ADE775494B6813F070
:1008E8000C0F07D04B6803F00C03082B1FD14B6883
:1008F800DF031CD4022393FAA3F2086893FAA3F344
:100908000122B3FA83F302FA03F3034202D0236904
:10091800934284D10868F82292FAA2F26369B2FA83
:1009280082F2934020F0F80213430B604AE72269F1
:100938000125F2B195FAA5F3B3FA83F303F18453D1
:1009480003F584139B0002271D60FFF729FF064665
:1009580097FAA7F30A6897FAA7F3B3FA83F305FAA5
:1009680003F31342D6D1FFF71BFF801B0228EFD9F0
:100978007DE795FAA5F3B3FA83F303F1845303F5FE
:1009880084139B0002271A60FFF70AFF064697FAAE
:10099800A7F30A6897FAA7F3B3FA83F305FA03F300
:1009A80013423FF40FAFFFF7FBFE801B0228EED97E
:1009B8005DE7A2693E4D3F48012102B391FAA1F3D8
:1009C800B3FA83F303449B0002261960FFF7E8FE9D
:1009D800074696FAA6F396FAA6F396FAA6F36A6A73
:1009E80096FAA6F3B3FA83F301FA03F313427FF4FA
:1009F800EDAEFFF7D5FEC01B0228EAD937E791FA1A
:100A0800A1F3B3FA83F303449B0002261A60FFF7AD
:100A1800C7FE074696FAA6F396FAA6F396FAA6F341
:100A28006A6A96FAA6F3B3FA83F301FA03F3134258
:100A38003FF4CCAEFFF7B4FEC01B0228EAD916E794
:100A48001B49CB69D80031D4CB6943F08053CB61C3
:100A5800CB6903F080530193019B0125164E33683F
:100A6800DA052BD5E368012B38D10B6A43F0010373
:100A78000B62FFF795FE022607464FF0010841F288
:100A8800883996FAA6F396FAA6F30A6A96FAA6F3AE
:100A9800B3FA83F308FA03F3134251D0002D3FF45D
:100AA80099AECB6923F08053CB6193E60025D5E757
:100AB800001002402081901000700040336843F419
:100AC80080733360FFF76CFE07463368DB05C9D4D3
:100AD800FFF766FEC01B6428F7D9C8E613BB0B6A8C
:100AE80023F001030B620B6A23F004030B62FFF788
:100AF80057FE022607464FF0010841F2883996FA58
:100B0800A6F396FAA6F30A6A96FAA6F3B3FA83F35B
:100B180008FA03F31342C1D0FFF742FEC01B484551
:100B2800EDD9A4E6052B0B6A03D143F004030B624D
:100B38009BE723F001030B620B6A23F0040397E79A
:100B4800FFF72EFEC01B48459BD990E63F494B68EE
:100B580003F00C03082B3FF462AE022A4FF08073B7
:100B680050D193FAA3F3B3FA83F303F1845303F553
:100B780084139B0000221A60FFF712FEDFF8D08072
:100B880006464FF00077012597FAA7F30A6897FA07
:100B9800A7F3B3FA83F305FA03F313422CD1D4E98C
:100BA80008034A68034322F4741213434B604FF05E
:100BB800807393FAA3F3B3FA83F303F1845303F531
:100BC80084139B00224F1D60FFF7EAFD4FF000756C
:100BD8000446012695FAA5F30A6895FAA5F3B3FA2F
:100BE80083F306FA03F313427FF4F8ADFFF7D8FD59
:100BF800001BB842EED93AE6FFF7D2FD831B434506
:100C0800C2D934E693FAA3F3B3FA83F303F1845316
:100C180003F584139B0000221A60FFF7C1FD0C4FF7
:100C280004464FF00075012695FAA5F30A6895FA6F
:100C3800A5F3B3FA83F306FA03F313423FF4CEADF8
:100C4800FFF7AEFD001BB842EED910E600100240D7
:100C5800400D03004D4AF8B5136803F007038B42B3
:100C6800044611D3226895071AD4D00720D4474ADE
:100C7800136803F007038B426CD82268510774D4B9
:100C880013077AD400200AE0136823F007030B4304
:100C98001360136803F007038B42E3D00120F8BD0B
:100CA8003B48A568436823F0F0032B434360DCE727
:100CB8006268374D012A25D14FF4003393FAA3F027
:100CC800286893FAA3F3B3FA83F302FA03F303420F
:100CD800E4D06B6823F0030313436B60FFF760FDF8
:100CE8006368012B064641F288371CD16B6803F014
:100CF8000C03042BBBD0FFF753FD801BB842F5D97A
:100D08000320CCE7022A0CBF4FF00073022393FAAA
:100D1800A3F02E6893FAA3F30120B3FA83F300FA41
:100D280003F33342D4E7022B0FD16B6803F00C03B3
:100D3800082B9CD0FFF734FD801BB842F5D9DFE7BC
:100D4800FFF72EFD801BB842DAD86B6813F00C0F42
:100D5800F6D18CE7136823F007030B43136013687D
:100D680003F007038B4299D187E70949E0684B688C
:100D780023F4E06303434B6082E7054A2169536823
:100D880023F4605343EAC10353607BE70020024029
:100D9800001002402DE9F74FDFF86C815B4C00230F
:100DA8004FF00F090A6832FA03F502D103B0BDE823
:100DB800F08F012505FA03FA1AEA020200F0998079
:100DC8004D6825F0100EBEF1020F11D1DF0800EBBF
:100DD800870703F0070C3E6A4FEA8C0C09FA0CFBF4
:100DE80026EA0B0B0E6906FA0CF646EA0B063E627B
:100DF800D0F800B04FEA430C032606FA0CF72BEAAA
:100E0800070BFE4305F0030707FA0CF70EF1FF3E48
:100E180047EA0B07BEF1010F076011D8876806EA99
:100E2800070ECF6807FA0CF747EA0E07876047688E
:100E380027EA0A0EC5F300179F4047EA0E074760E6
:100E4800C76837408E6806FA0CF63E43C660EE0067
:100E58004FD5D8F8186046F00106C8F81860D8F8D9
:100E6800186023F0030707F1804706F0010607F52D
:100E78008037019603F0030C019EBE684FEA8C0C84
:100E880009FA0CFEB0F1904F26EA0E0E33D0204E30
:100E9800B04232D006F58066B04230D006F58066A2
:100EA800B0422ED006F58066B04214BF052604264F
:100EB80006FA0CF646EA0E06BE602668D74315F415
:100EC800803F0CBF3E4016432660666815F4003F1D
:100ED8000CBF3E4016436660A66815F4801F0CBF21
:100EE8003E401643A660E668AD0254BF3E40164336
:100EF800E660013356E70026DAE70126D8E702263E
:100F0800D6E70326D4E700BF0010024000040140E2
:100F1800000400480AB1816170478162704700008F
:100F280002688368C16930B5056914682B4345694F
:100F380024F416442B4324F00C040B43234313607E
:100F48005368C468056A23F4405323435360946884
:100F5800836924F430642B4323439360544B9A42AF
:100F680012D103F558431B6B03F00303022B6BD01C
:100F7800032B1ED04068B1F5004F4FEA500340F0F4
:100F8800898003F561031EE04A4B9A421ED103F59E
:100F9800E6331B6B03F44033B3F5003F54D005D858
:100FA800002B5AD0B3F5803FE4D038E0B3F5403F8A
:100FB80035D14068B1F5004F4FEA50036FD103F1C6
:100FC800F47303F59043B3FBF0F350E03A4B9A42C5
:100FD8000FD103F5E4331B6B03F44023B3F5002F63
:100FE80032D003D8CBB3B3F5802FDDE7B3F5402F6C
:100FF800DEE7324B9A420FD103F5E2331B6B03F461
:101008004013B3F5001F1FD003D833B3B3F5801FC7
:10101800CAE7B3F5401FCBE7294B9A4205D0B1F593
:10102800004F4FF001002BD030BD264B1B6B03F453
:101038004003B3F5000F07D003D873B1B3F5800FA1
:10104800B2E7B3F5400FB3E74068B1F5004F4FEA98
:10105800500329D103F58033B5E7B1F5004F416856
:101068004FEA51030ED103F56103B3FBF1F39BB2D1
:10107800002023F00F01C3F342030B43D360D3E7EF
:101088000023F6E703F5E103B3FBF1F39BB2D3606A
:101098000020C9E703F5E103B3FBF0F3F6E703F536
:1010A800740303F51053F7E703F50043F4E700BFB3
:1010B800003801400044004000480040004C004017
:1010C80000500040001002402DE9F041DDF8188082
:1010D800044616461F462568EB6931EA03030CBF30
:1010E80001230023B34201D0002016E0B8F1FF3FEE
:1010F800F2D0B8F1000F12D12B6823F4D0732B6013
:10110800AB6823F00103AB60202384F8693084F8CE
:101118006A30002384F868300320BDE8F081FFF7C7
:101128003FFBC01B4045D6D9E6E773B5044600210E
:10113800C166FFF735FB266833681A07054616D4DB
:1011480033685B070AD56FF07E43009300222B4675
:101158004FF480012046FFF7B7FFA0B920230020F5
:1011680084F8693084F8680084F86A300CE06FF01D
:101178007E4300930A4603464FF400112046FFF7CA
:10118800A3FF0028DCD0032002B070BD38B50446A8
:1011980020B390F8693003F0FF020BB980F868209B
:1011A8002568242384F869302B6823F001032B6019
:1011B8002046FFF7B5FE012810D06B6823F4904352
:1011C8006B60AB6823F02A03AB602B6843F0010324
:1011D8002B602046BDE83840FFF7A7BF012038BD87
:1011E800F7B51E4690F86930202B0D460446114687
:1011F8004AD1002D46D0002A44D090F86830012BFF
:1012080042D0012380F868300023C366212380F888
:101218006930FFF7C5FAA4F850100746A4F8521031
:10122800B4F8522092B262B900963B46402120465B
:10123800FFF74AFF98B9202384F8693084F86800DA
:101248000EE0B4F85220013A92B2A4F852203B467C
:101258000096002280212046FFF736FF10B10320B8
:1012680003B0F0BDA3682268B3F5805F07D1236996
:101278002BB935F8023BC3F308031385D0E715F8FB
:10128800013BFAE70120EBE70220E9E72DE9F3410A
:101298001E4690F86A30202B0D46044611465CD154
:1012A800002D58D0002A56D090F86830012B54D021
:1012B800012380F8683003684FF0FF321A62002378
:1012C800C366222380F86A30FFF76AFAA368A4F895
:1012D8005810B3F5805F8046A4F85A1015D12369D9
:1012E8008BB940F2FF13A4F85C30B4F85C70B4F822
:1012F8005A0080B280B9202384F86A3084F86800E4
:1013080002B0BDE8F081FF23EDE7002BEDD12369A2
:10131800002BF8D07F23E6E7B4F85A20013A92B2BE
:10132800A4F85A2043460096002220212046FFF7C1
:10133800CBFEA0B9A2682368B2F5805F06D1226906
:1013480022B99B8C3B4025F8023BD0E79B8C3B4065
:1013580005F8013BCBE70120D2E70220D0E70320C4
:10136800CEE70000002103E00B4B5B5843500431EB
:101378000A480B4B42189A42F6D30A4A02E0002365
:1013880013600432084B9A42F9D3AFF30080FEF79A
:10139800F7FEFEF7F1FFFEE7E0130008000000206B
:1013A800000000200000002058010020FEE7000097
:1013B800F8B500BFF8BC08BC9E467047F8B500BF3A
:0813C800F8BC08BC9E4670470A
:0813D00008EEFF7F01000000A0
:0413D80031030008D5
:0413DC000D030008F5
:040000050800136D6F
:00000001FF
