:020000040800F2
:1000000000A00020592B0008A12B0008A12B0008FC
:10001000A12B0008A12B0008A12B00080000000064
:10002000000000000000000000000000A12B0008FC
:10003000A12B000800000000A12B0008A12B000844
:1000400000000000000000000000000000000000B0
:1000500000000000000000000000000000000000A0
:100060000000000000000000000000000000000090
:100070000000000000000000000000000000000080
:100080000000000000000000000000000000000070
:100090000000000000000000000000000000000060
:1000A0000000000000000000000000000000000050
:1000B0000000000000000000000000000000000040
:1000C0000000000000000000000000000000000030
:1000D0000000000000000000000000000000000020
:1000E0000000000000000000000000000000000010
:1000F0000000000000000000000000000000000000
:1001000000000000000000000000000000000000EF
:1001100000000000000000000000000000000000DF
:1001200000000000000000000000000000000000CF
:1001300000000000000000000000000000000000BF
:1001400000000000000000000000000000000000AF
:10015000000000000000000000000000000000009F
:10016000000000000000000000000000000000008F
:10017000000000000000000000000000000000007F
:08018000000000000000000077
:1001880070B50F4B0F4DAB42A3EB050607D0B61069
:10019800002455F8043B01349847A642F9D802F0E8
:1001A800FDFC094D094B5E1BAB424FEAA60606D083
:1001B800002455F8043B01349847A642F9D870BD8D
:1001C800CC2B0008CC2B0008CC2B0008D02B000827
:1001D80010B5054C237833B9044B13B10448AFF379
:1001E80000800123237010BD3C01002000000000A6
:1001F800A42B000808B5034B1BB103490348AFF310
:10020800008008BD0000000040010020A42B000869
:1002180090B58BB000AF3B600346FB710B46BB71DA
:1002280013467B7100237B771E4B07F10C040FCB21
:1002380084E80F000523FB7700F0D0FC00237B62E5
:1002480003E000BF7B6A01337B627B6A632BF8DDC6
:100258003B681B78FA7F12FB03F3BB7700233B62F2
:1002680003E000BF3B6A01333B623B6A632BF8DD66
:1002780000F0BFFCBA79BB7912FB03F3DBB27B77E2
:1002880000233B81FB7F3B720023FB7107F10803CE
:100298001A460221722000F033FB002318462C373F
:1002A800BD4690BDBC2B00082DE9F04790B000AFCB
:1002B8003B600346FB710B46BB7113467B716B4673
:1002C8009A4600237B764E4B07F108060FCB86E84B
:1002D8000F00052387F833303223FB623B681B7815
:1002E80087F82B30FB680133BA6802FB03F301334C
:1002F8007B62FB6A591C4B1E3B620A4600239046F0
:1003080099464FF000024FF000034FEAC90343EA51
:1003180058734FEAC8020A46002314461D464FF098
:1003280000024FF00003EB0043EA5473E2000B466F
:100338000733DB08DB00ADEB030D6B460033FB61D5
:1003480000F04CFC0023FB6303E000BFFB6B0133B0
:10035800FB63FB6B632BF8DD0023BB6319E000BF75
:1003680000BFFB6ADA0F13445B101A46BB6B93FBA2
:10037800F2F101FB02F29B1AFB76BB6BDBB297F83A
:100388002B2012FB03F3BB7600BF00BFBB6B01330E
:10039800BB63BA6BFB6A9A42E1DB00F02AFC0023DC
:1003A8007B6313E0FB6ADA0F13445B101A467B6B1E
:1003B80093FBF2F101FB02F29B1AD9B2FA697B6B4B
:1003C80013440A461A707B6B01337B637A6BFB6AB2
:1003D8009A42E7DB7B6A013BFA690021D154FB6A48
:1003E800DBB20133DBB2FA691946722000F088FAF1
:1003F8000023D54618464037BD46BDE8F08700BF04
:10040800BC2B000880B500AF00F01AFB00F06AFBB7
:1004180000F0B8FB00F0E8F8064A1021702000F060
:10042800F5F8054A10216F2000F0F0F800F034F9D3
:10043800FCE700BFB10200081902000880B485B0CB
:1004480000AF78600B46FB700023FB600023FB7253
:100458001FE07B685A1C7A601A78FB7A5340FB725B
:100468000023FB6012E097F90B30002B07DAFB7AC8
:100478005B005BB283F04D035BB2DBB202E0FB7A58
:100488005B00DBB2FB72FB680133FB60FB68072B88
:10049800E9D9FB785A1EFA70002BDAD1FB7A184694
:1004A8001437BD4680BC704780B584B000AF3B6050
:1004B8000346FB710B46BB7113467B710323FB7329
:1004C80007F10F031A460121722000F019FA0023E0
:1004D80018461037BD4680BD80B588B000AF3B6078
:1004E8000346FB710B46BB7113467B710023FB77F8
:1004F80010E0FA7FF97F114813465B0013449B0014
:1005080003441A7801F120033B4403F8142CFB7FC1
:100518000133FB77FA7F0A4B1B68DBB29A42E8DBB0
:10052800074B1B68DBB207F10C021946722000F07A
:10053800E7F9002318462037BD4680BD0400002097
:100548000000002080B485B000AF78600B46FB70D7
:100558000123FB730023BB7312E0FB7B7A6813440F
:100568001B78002B09D1BB7B7A681344F97BBA7BD3
:100578008A1AD2B21A70FB7BBB73FB7B0133FB7305
:10058800FA7BFB789A42E8D3002318461437BD4615
:1005980080BC704780B485B000AF78600B46FB70B4
:1005A8007B681B78FB737B6800221A70FB7BBB732C
:1005B8000DE0FB7B7A6813441B78BB73FB7B7A687E
:1005C800134400221A70FA7BBB7B1344FB73FA7B3B
:1005D800FB789A4202D2BB7B002BEAD1FB7B184600
:1005E8001437BD4680BC704780B500AF054A00216E
:1005F800762000F00BF8044A0021772000F006F876
:1006080000BF80BDB1040008E104000880B584B0D3
:1006180000AF0346B9607A60FB731D4B1B680F2B54
:1006280004DD612000F00EFB01232DE0BB68FF2BE9
:1006380004D9622000F006FB012325E0144B1A6858
:10064800144913465B0013449B000B44FA7B1A7051
:100658000F4B1A680F4913465B0013449B000B4469
:100668000433BA681A600A4B1A680A4913465B00D1
:1006780013449B000B4408337A681A60044B1B68C8
:100688000133034A1360002318461037BD4680BD66
:10069800000000200400002090B5C7B000AF07F5A7
:1006A8008C73A3F2111300221A700023C7F81431B7
:1006B80022E000F0A9FA0346194607F58C73A3F562
:1006C8008872D7F8143113440A461A7007F58C73E8
:1006D800A3F58872D7F8143113441B78002B06D180
:1006E80007F58C73A3F2111305221A70F9E0D7F8F5
:1006F80014310133C7F81431D7F81431032BD8DD7E
:1007080007F1080304211846FFF744FF034687F85A
:100718000B31002387F81331002387F8133114E0D5
:1007280097F81321744913465B0013449B000B444C
:100738001A7807F58C73A3F588735B789A420BD007
:1007480097F81331013387F8133197F813216B4B5E
:100758001B689A42E4DB00E000BF97F81321674B5F
:100768001B689A4206D107F58C73A3F21113012274
:100778001A70B6E007F58C73A3F58873DB785A1DF9
:1007880097F80B319A4206DA07F58C73A3F2111326
:1007980004221A70A5E00423C7F80C3122E000F007
:1007A80033FA0346194607F58C73A3F58872D7F810
:1007B8000C3113440A461A7007F58C73A3F5887236
:1007C800D7F80C3113441B78002B06D107F58C732E
:1007D800A3F2111305221A7083E0D7F80C31013304
:1007E800C7F80C3107F58C73A3F58873DB780433ED
:1007F800D7F80C219A42D2DD00F006FA03461946D2
:1008080007F58C73A3F58872D7F80C3113440A46A0
:100818001A7007F58C73A3F58872D7F80C31134456
:100828001B78002B06D007F58C73A3F21113042252
:100838001A7056E097F80B3107F10802D018D7F86C
:100848000C31DAB297F80B31D31ADBB20133DBB2D1
:100858001946FFF79FFE07F108030133D7F80C216B
:10086800D2B2023AD2B211461846FFF7E7FD034664
:1008780087F80A31D7F80C31013B07F58C72A2F5DD
:100888008872D35C97F80A219A4206D007F58C73D0
:10089800A3F2111302221A7023E097F813211649C4
:1008A80013465B0013449B000B4408331C6807F590
:1008B8008C73A3F58873587807F58C73A3F5887340
:1008C800997807F58C73A3F58873DA7807F108032C
:1008D8000433A04703461A4607F58C73A3F2111395
:1008E8001A70FB1D1A460121652000F009F800BFA7
:1008F80007F58E77BD4690BD04000020000000205B
:1009080090B5C5B000AF07F58873A3F588731A6072
:1009180007F58873A3F2091302461A7007F588735E
:10092800A3F585730A461A7007F58873A3F58473CF
:1009380000221A7007F58873A3F5847307F5887287
:10094800A2F2091212785A7007F58873A3F5847316
:1009580007F58872A2F5857212789A700023C7F895
:100968000C3115E0D7F80C3107F58872A2F58872BA
:1009780012681A44D7F80C310333117807F58872D6
:10098800A2F58472D154D7F80C310133C7F80C3171
:1009980007F58873A3F585731B78D7F80C219A425D
:1009A800E0DB07F10803013307F58872A2F58572C9
:1009B80012780232D1B2D7F80C21D41C1846FFF7AE
:1009C8003DFD03461A4607F58873A3F584731A5547
:1009D800D7F80C31043307F58872A2F58472002128
:1009E800D154D7F80C31DBB20533DAB207F108037A
:1009F80011461846FFF7A6FD0023C7F808310FE097
:100A080007F58873A3F58472D7F8083113441B7867
:100A1800184600F017F9D7F808310133C7F808313C
:100A280007F58873A3F585731B780433D7F8082175
:100A38009A42E5DD00BF00BF07F58A77BD4690BD45
:100A480080B596B000AF0323FB624FF4A0233B634D
:100A58000023FB630023FB6407F12C03184600F016
:100A680025F90F23BB610123FB6100233B620023AF
:100A78007B620023BB6200237B6507F11803796D55
:100A8800184601F029F9154B5B69144A43F4002311
:100A98005361124B5B6903F400233B603B684FF4DE
:100AA800C0437B600123BB600023FB6003233B61E1
:100AB8003B1D19460A4801F099FA01224FF40051EA
:100AC800074801F011FC01224FF48041044801F06D
:100AD8000BFC00BF5837BD4680BD00BF0010024068
:100AE8000008004880B588B000AF4FF4C063FB60D1
:100AF80002233B6101237B610323BB610723FB6165
:100B08001D4B5B691C4A43F4003353611A4B5B6904
:100B180003F40033BB60BB6807F10C0319464FF0C0
:100B2800904001F063FA154B154A1A60134B4FF4C5
:100B380061325A60114B00229A60104B0022DA6031
:100B48000E4B00221A610D4B00229A610B4B0C22AE
:100B58005A61094B9B69084A43F480439361064BE9
:100B68009B6903F480437B607B68044801F01DFEA9
:100B780000BF2037BD4680BD00100240C4000020E1
:100B88000038014080B586B000AF134B5B69124A4C
:100B980043F400335361104B5B6903F400333B604B
:100BA8003B684FF480537B600123BB600023FB60EC
:100BB80003233B613B1D19464FF0904001F016FAA4
:100BC80000224FF480514FF0904001F08DFB00BFA0
:100BD8001837BD4680BD00BF0010024080B500AF89
:100BE80001224FF480514FF0904001F07DFB00BF8F
:100BF80080BD80B500AF00224FF480514FF0904087
:100C080001F072FB00BF80BD80B582B000AF05E087
:100C18000A4B1B6A094A43F008031362F91D41F2A3
:100C280088330122064801F0DDFE0346002BEFD190
:100C3800FB7918460837BD4680BD00BF0038014023
:100C4800C400002080B584B000AF0346FB71FB7977
:100C5800FB7307F10F0141F288330122034801F0C9
:100C680035FE00BF1037BD4680BD00BFC400002060
:100C780080B400AF044B1B685A1C03490A6018462D
:100C8800BD4680BC704700BF3401002080B400AF6F
:100C98004FF4E1031846BD4680BC704780B400AFEE
:100CA8004FF4E1031846BD4680BC704780B5ADF5EA
:100CB800007D00AF07F50073A3F5FE7318600023ED
:100CC800C7F8F83107F50073A3F5FE731B681B68B6
:100CD80003F00103002B00F08081BE4B5B6803F03A
:100CE8000C03042B0CD0BB4B5B6803F00C03082BE4
:100CF8005DD1B84B5B6803F48033B3F5803F56D1C0
:100D08004FF40033C7F8F431D7F8F43193FAA3F36A
:100D1800C7F8F031D7F8F031B3FA83F3DBB25B09E7
:100D2800DBB243F00103DBB2012B02D1A94B1B68F4
:100D380015E04FF40033C7F8EC31D7F8EC3193FAEB
:100D4800A3F3C7F8E8314FF40033C7F8E431D7F814
:100D5800E43193FAA3F3C7F8E0319E4B5B6A4FF492
:100D68000032C7F8DC21D7F8DC2192FAA2F2C7F8E2
:100D7800D821D7F8D821B2FA82F252B242F0200232
:100D880052B2D2B202F01F02012101FA02F213405C
:100D9800002B00F0218107F50073A3F5FE731B6893
:100DA8005B68002B40F01881012300F08CBF07F529
:100DB8000073A3F5FE731B685B68B3F5803F06D12B
:100DC800844B1B68834A43F48033136036E007F58D
:100DD8000073A3F5FE731B685B68002B0CD17D4B79
:100DE8001B687C4A23F4803313607A4B1B68794A6A
:100DF80023F48023136021E007F50073A3F5FE7345
:100E08001B685B68B3F5A02F0CD1724B1B68714A45
:100E180043F4802313606F4B1B686E4A43F480339E
:100E280013600BE06B4B1B686A4A23F48033136032
:100E3800684B1B68674A23F480231360654BDB6AA1
:100E480023F00F0207F50073A3F5FE731B689B6878
:100E580060491343CB6207F50073A3F5FE731B6863
:100E68005B68002B5AD0FFF703FFC7F8F8010AE0C8
:100E7800FFF7FEFE0246D7F8F831D31A642B02D9E1
:100E8800032300F020BF4FF40033C7F8D431D7F85C
:100E9800D43193FAA3F3C7F8D031D7F8D031B3FAE5
:100EA80083F3DBB25B09DBB243F00103DBB2012B56
:100EB80002D1484B1B6815E04FF40033C7F8CC311A
:100EC800D7F8CC3193FAA3F3C7F8C8314FF40033FD
:100ED800C7F8C431D7F8C43193FAA3F3C7F8C031BF
:100EE8003C4B5B6A4FF40032C7F8BC21D7F8BC21F1
:100EF80092FAA2F2C7F8B821D7F8B821B2FA82F26A
:100F080052B242F0200252B2D2B202F01F020121C4
:100F180001FA02F21340002BAAD05EE0FFF7A8FE08
:100F2800C7F8F8010AE0FFF7A3FE0246D7F8F83140
:100F3800D31A642B02D9032300F0C5BE4FF4003343
:100F4800C7F8B431D7F8B43193FAA3F3C7F8B0317E
:100F5800D7F8B031B3FA83F3DBB25B09DBB243F005
:100F68000103DBB2012B02D11A4B1B6815E04FF4C9
:100F78000033C7F8AC31D7F8AC3193FAA3F3C7F80C
:100F8800A8314FF40033C7F8A431D7F8A43193FA45
:100F9800A3F3C7F8A0310F4B5B6A4FF40032C7F8D0
:100FA8009C21D7F89C2192FAA2F2C7F89821D7F889
:100FB8009821B2FA82F252B242F0200252B2D2B270
:100FC80002F01F02012101FA02F21340002BAAD1FC
:100FD80003E000BF0010024000BF07F50073A3F54F
:100FE800FE731B681B6803F00203002B00F07E8170
:100FF800A64B5B6803F00C03002B0BD0A34B5B687C
:1010080003F00C03082B73D1A04B5B6803F4803307
:10101800002B6DD10223C7F89431D7F8943193FA95
:10102800A3F3C7F89031D7F89031B3FA83F3DBB262
:101038005B09DBB243F00103DBB2012B02D1934B16
:101048001B6813E00223C7F88C31D7F88C3193FA68
:10105800A3F3C7F888310223C7F88431D7F884315D
:1010680093FAA3F3C7F88031884B5B6A0222C7F86A
:101078007C21D7F87C2192FAA2F2C7F87821D7F818
:101088007821B2FA82F252B242F0200252B2D2B2BF
:1010980002F01F02012101FA02F21340002B0AD0CC
:1010A80007F50073A3F5FE731B681B69012B02D0BB
:1010B800012300F008BE754B1B6823F0F80207F502
:1010C8000073A3F5FE731B685969F823C7F87431D8
:1010D800D7F8743193FAA3F3C7F87031D7F87031A1
:1010E800B3FA83F301FA03F3684913430B60FDE095
:1010F80007F50073A3F5FE731B681B69002B00F04E
:1011080088800123C7F86C31D7F86C3193FAA3F3C0
:10111800C7F86831D7F86831B3FA83F303F1845319
:1011280003F584139B001A4601231360FFF7A0FD03
:10113800C7F8F8010AE0FFF79BFD0246D7F8F83137
:10114800D31A022B02D9032300F0BDBD0223C7F82E
:101158006431D7F8643193FAA3F3C7F86031D7F84C
:101168006031B3FA83F3DBB25B09DBB243F001030E
:10117800DBB2012B02D1454B1B6813E00223C7F8F1
:101188005C31D7F85C3193FAA3F3C7F858310223DE
:10119800C7F85431D7F8543193FAA3F3C7F850314C
:1011A8003A4B5B6A0222C7F84C21D7F84C2192FAD5
:1011B800A2F2C7F84821D7F84821B2FA82F252B20F
:1011C80042F0200252B2D2B202F01F02012101FA0B
:1011D80002F21340002BAED02C4B1B6823F0F80210
:1011E80007F50073A3F5FE731B685969F823C7F860
:1011F8004431D7F8443193FAA3F3C7F84031D7F80C
:101208004031B3FA83F301FA03F3204913430B6027
:101218006CE00123C7F83C31D7F83C3193FAA3F3CB
:10122800C7F83831D7F83831B3FA83F303F1845368
:1012380003F584139B001A4600231360FFF718FD7B
:10124800C7F8F8010AE0FFF713FD0246D7F8F831AE
:10125800D31A022B02D9032300F035BD0223C7F8A5
:101268003431D7F8343193FAA3F3C7F83031D7F8CB
:101278003031B3FA83F3DBB25B09DBB243F001032D
:10128800DBB2012B04D1014B1B6815E000100240B2
:101298000223C7F82C31D7F82C3193FAA3F3C7F8F7
:1012A80028310223C7F82431D7F8243193FAA3F35D
:1012B800C7F82031C54B5B6A0222C7F81C21D7F852
:1012C8001C2192FAA2F2C7F81821D7F81821B2FA0D
:1012D80082F252B242F0200252B2D2B202F01F029F
:1012E800012101FA02F21340002BACD107F500737B
:1012F800A3F5FE731B681B6803F00803002B00F0BE
:101308000A8107F50073A3F5FE731B689B69002B20
:1013180073D00123C7F81431D7F8143193FAA3F323
:10132800C7F81031D7F81031B3FA83F31A46A84B2F
:1013380013449B001A4601231360FFF799FCC7F872
:10134800F8010AE0FFF794FC0246D7F8F831D31AFF
:10135800022B02D9032300F0B6BC0223C7F80C31D4
:10136800D7F80C3193FAA3F3C7F808310223C7F86A
:101378000431D7F8043193FAA3F207F50073A3F503
:1013880080731A6007F50073A3F5827302221A604E
:1013980007F50073A3F582731B6893FAA3F207F5A8
:1013A8000073A3F584731A60884B5A6A07F50073B3
:1013B800A3F586730221196007F50073A3F58673F8
:1013C8001B6893FAA3F107F50073A3F588731960F6
:1013D80007F50073A3F588731B68B3FA83F35BB250
:1013E80043F060035BB2DBB203F01F03012101FA93
:1013F80003F31340002BA5D08DE007F50073A3F588
:101408008A7301221A6007F50073A3F58A731B68B3
:1014180093FAA3F207F50073A3F58C731A6007F526
:101428000073A3F58C731B68B3FA83F31A46684BF1
:1014380013449B001A4600231360FFF719FCC7F8F2
:10144800F8010AE0FFF714FC0246D7F8F831D31A7E
:10145800022B02D9032300F036BC07F50073A3F56D
:101468008E7302221A6007F50073A3F58E731B684A
:1014780093FAA3F207F50073A3F590731A6007F5C2
:101488000073A3F5927302221A6007F50073A3F59F
:1014980092731B6893FAA3F207F50073A3F594738C
:1014A8001A6007F50073A3F5967302221A6007F510
:1014B8000073A3F596731B6893FAA3F207F50073FC
:1014C800A3F598731A60414B5A6A07F50073A3F5A0
:1014D8009A730221196007F50073A3F59A731B68C4
:1014E80093FAA3F107F50073A3F59C73196007F548
:1014F8000073A3F59C731B68B3FA83F35BB243F0E4
:1015080060035BB2DBB203F01F03012101FA03F3AE
:101518001340002B96D107F50073A3F5FE731B68E3
:101528001B6803F00403002B00F0A481002387F854
:10153800FF31264BDB6903F08053002B16D1234B78
:10154800DB69224A43F08053D361204BDB6903F007
:10155800805207F50073A3F5FA731A6007F5007354
:10156800A3F5FA731B68012387F8FF31194B1B6831
:1015780003F48073002B1AD1164B1B68154A43F4E9
:1015880080731360FFF774FBC7F8F80109E0FFF7F1
:101598006FFB0246D7F8F831D31A642B01D903231D
:1015A80091E30C4B1B6803F48073002BEFD007F515
:1015B8000073A3F5FE731B68DB68012B0CD1034B8A
:1015C8001B6A024A43F0010313623BE00010024029
:1015D800208190100070004007F50073A3F5FE739A
:1015E8001B68DB68002B0CD17F4B1B6A7E4A23F0FB
:1015F800010313627C4B1B6A7B4A23F004031362CA
:1016080020E007F50073A3F5FE731B68DB68052B64
:101618000CD1754B1B6A744A43F004031362724B76
:101628001B6A714A43F0010313620BE06E4B1B6A9D
:101638006D4A23F0010313626B4B1B6A6A4A23F05D
:101648000403136207F50073A3F5FE731B68DB68D8
:10165800002B00F08280FFF70BFBC7F8F8010BE0C6
:10166800FFF706FB0246D7F8F831D31A41F2883261
:10167800934201D9032326E307F50073A3F59E736C
:1016880002221A6007F50073A3F59E731B6893FA8C
:10169800A3F207F50073A3F5A0731A6007F50073AA
:1016A800A3F5A27302221A6007F50073A3F5A273CB
:1016B8001B6893FAA3F207F50073A3F5A4731A60E5
:1016C80007F50073A3F5A4731B68B3FA83F3DBB2C1
:1016D8005B09DBB243F00203DBB2022B02D1424BBF
:1016E8001B6A13E007F50073A3F5A67302221A60BC
:1016F80007F50073A3F5A6731B6893FAA3F207F521
:101708000073A3F5A8731A60374B5B6A07F500727C
:10171800A2F5AA720221116007F50072A2F5AA7259
:10172800126892FAA2F107F50072A2F5AC72116084
:1017380007F50072A2F5AC721268B2FA82F252B2E0
:1017480042F0400252B2D2B202F01F02012101FA65
:1017580002F21340002B83D082E0FFF789FAC7F822
:10176800F8010BE0FFF784FA0246D7F8F831D31AEC
:1017780041F28832934201D90323A4E207F50073AA
:10178800A3F5AE7302221A6007F50073A3F5AE73D2
:101798001B6893FAA3F207F50073A3F5B0731A60F8
:1017A80007F50073A3F5B27302221A6007F50073F8
:1017B800A3F5B2731B6893FAA3F207F50073A3F5B8
:1017C800B4731A6007F50073A3F5B4731B68B3FA12
:1017D80083F3DBB25B09DBB243F00203DBB2022B1B
:1017E80004D1014B1B6A15E00010024007F5007395
:1017F800A3F5B67302221A6007F50073A3F5B67352
:101808001B6893FAA3F207F50073A3F5B8731A607F
:10181800AD4B5B6A07F50072A2F5BA72022111603E
:1018280007F50072A2F5BA72126892FAA2F107F5EA
:101838000072A2F5BC72116007F50072A2F5BC72C5
:101848001268B2FA82F252B242F0400252B2D2B2F6
:1018580002F01F02012101FA02F21340002B81D18C
:1018680097F8FF31012B05D1974BDB69964A23F096
:101878008053D36107F50073A3F5FE731B68DB691A
:10188800002B00F01F82904B5B6803F00C03082BC1
:1018980000F0168207F50073A3F5FE731B68DB6979
:1018A800022B40F0668107F50073A3F5BE734FF075
:1018B80080721A6007F50073A3F5BE731B6893FA6C
:1018C800A3F207F50073A3F5C0731A6007F5007358
:1018D800A3F5C0731B68B3FA83F303F1845303F5CC
:1018E80084139B001A4600231360FFF7C1F9C7F859
:1018F800F8010AE0FFF7BCF90246D7F8F831D31A25
:10190800724A934201D90323DDE107F50073A3F579
:10191800C2734FF000721A6007F50073A3F5C27323
:101928001B6893FAA3F207F50073A3F5C4731A6052
:1019380007F50073A3F5C4731B68B3FA83F3DBB22E
:101948005B09DBB243F00103DBB2012B02D15E4B32
:101958001B6827E007F50073A3F5C6734FF0007204
:101968001A6007F50073A3F5C6731B6893FAA3F210
:1019780007F50073A3F5C8731A6007F50073A3F59C
:10198800CA734FF000721A6007F50073A3F5CA73A3
:101998001B6893FAA3F207F50073A3F5CC731A60DA
:1019A800494B5B6A07F50072A2F5CE724FF00071E1
:1019B800116007F50072A2F5CE72126892FAA2F1D0
:1019C80007F50072A2F5D072116007F50072A2F552
:1019D800D0721268B2FA82F252B242F0200252B2C7
:1019E800D2B202F01F02012101FA02F21340002BC9
:1019F80080D1354B5B6823F4741207F50073A3F5A7
:101A0800FE731B68596A07F50073A3F5FE731B681C
:101A18001B6A0B432C4913434B6007F50073A3F56E
:101A2800D2734FF080721A6007F50073A3F5D27372
:101A38001B6893FAA3F207F50073A3F5D4731A6031
:101A480007F50073A3F5D4731B68B3FA83F303F1A6
:101A5800845303F584139B001A4601231360FFF790
:101A680007F9C7F8F8010AE0FFF702F90246D7F8C4
:101A7800F831D31A154A934201D9032323E107F514
:101A88000073A3F5D6734FF000721A6007F5007360
:101A9800A3F5D6731B6893FAA3F207F50073A3F5B1
:101AA800D8731A6007F50073A3F5D8731B68B3FAE7
:101AB80083F3DBB25B09DBB243F00103DBB2012B3A
:101AC80006D1014B1B682BE000100240400D0300BB
:101AD80007F50073A3F5DA734FF000721A6007F583
:101AE8000073A3F5DA731B6893FAA3F207F5007382
:101AF800A3F5DC731A6007F50073A3F5DE734FF0E6
:101B080000721A6007F50073A3F5DE731B6893FA79
:101B1800A3F207F50073A3F5E0731A606C4B5B6AD8
:101B280007F50072A2F5E2724FF00071116007F537
:101B38000072A2F5E272126892FAA2F107F5007239
:101B4800A2F5E472116007F50072A2F5E47212685A
:101B5800B2FA82F252B242F0200252B2D2B202F08B
:101B68001F02012101FA02F21340002B3FF47CAF5F
:101B7800A8E007F50073A3F5E6734FF080721A60CA
:101B880007F50073A3F5E6731B6893FAA3F207F54C
:101B98000073A3F5E8731A6007F50073A3F5E873FB
:101BA8001B68B3FA83F303F1845303F584139B0092
:101BB8001A4600231360FFF75BF8C7F8F8010AE03C
:101BC800FFF756F80246D7F8F831D31A414A93423C
:101BD80001D9032377E007F50073A3F5EA734FF003
:101BE80000721A6007F50073A3F5EA731B6893FA8D
:101BF800A3F207F50073A3F5EC731A6007F50073F9
:101C0800A3F5EC731B68B3FA83F3DBB25B09DBB2B1
:101C180043F00103DBB2012B02D12D4B1B6827E0F7
:101C280007F50073A3F5EE734FF000721A6007F51D
:101C38000073A3F5EE731B6893FAA3F207F500731C
:101C4800A3F5F0731A6007F50073A3F5F2734FF06C
:101C580000721A6007F50073A3F5F2731B6893FA14
:101C6800A3F207F50073A3F5F4731A60184B5B6AC7
:101C780007F50072A2F5F6724FF00071116007F5D2
:101C88000072A2F5F672126892FAA2F107F50072D4
:101C9800A2F5F872116007F50072A2F5F8721268E1
:101CA800B2FA82F252B242F0200252B2D2B202F03A
:101CB8001F02012101FA02F21340002B80D101E03A
:101CC800012300E00023184607F50077BD4680BDD4
:101CD80000100240400D030080B59CB000AF786052
:101CE80039600023FB66984B1B6803F007033A68CA
:101CF8009A4210D9944B1B6823F0070292493B681B
:101D080013430B60904B1B6803F007033A689A4231
:101D180001D001235AE17B681B6803F00203002B02
:101D280008D08A4B5B6823F0F0027B689B68874980
:101D380013434B607B681B6803F00103002B00F022
:101D48000D817B685B68012B3DD14FF40033BB6686
:101D5800BB6E93FAA3F37B667B6EB3FA83F3DBB2B5
:101D68005B09DBB243F00103DBB2012B02D1774BF5
:101D78001B680FE04FF400333B663B6E93FAA3F306
:101D8800FB654FF40033BB65BB6D93FAA3F37B652A
:101D98006E4B5B6A4FF400323A653A6D92FAA2F2E2
:101DA800FA64FA6CB2FA82F252B242F0200252B2EB
:101DB800D2B202F01F02012101FA02F21340002BF5
:101DC8007DD1012302E17B685B68022B3DD14FF096
:101DD8000073BB64BB6C93FAA3F37B647B6CB3FAAC
:101DE80083F3DBB25B09DBB243F00103DBB2012B07
:101DF80002D1564B1B680FE04FF000733B643B6CFD
:101E080093FAA3F3FB634FF00073BB63BB6B93FAC6
:101E1800A3F37B634D4B5B6A4FF000723A633A6BF6
:101E280092FAA2F2FA62FA6AB2FA82F252B242F074
:101E3800200252B2D2B202F01F02012101FA02F2CC
:101E48001340002B3BD10123C0E00223BB62BB6AD5
:101E580093FAA3F37B627B6AB3FA83F3DBB25B0981
:101E6800DBB243F00103DBB2012B02D1374B1B6815
:101E78000DE002233B623B6A93FAA3F3FB61022362
:101E8800BB61BB6993FAA3F37B61304B5B6A0222A7
:101E98003A613A6992FAA2F2FA60FA68B2FA82F200
:101EA80052B242F0200252B2D2B202F01F02012115
:101EB80001FA02F21340002B01D1012386E0234BE3
:101EC8005B6823F003027B685B68204913434B601F
:101ED800FEF7CEFEF8667B685B68012B12D10AE03C
:101EE800FEF7C6FE0246FB6ED31A41F288329342D1
:101EF80001D903236AE0154B5B6803F00C03042B3C
:101F0800EED12BE07B685B68022B21D10AE0FEF75B
:101F1800AFFE0246FB6ED31A41F28832934201D9D2
:101F2800032353E0094B5B6803F00C03082BEED145
:101F380014E0FEF79DFE0246FB6ED31A41F288328A
:101F4800934205D9032341E00020024000100240DB
:101F5800204B5B6803F00C03002BEAD11E4B1B6877
:101F680003F007033A689A4210D21B4B1B6823F010
:101F7800070219493B6813430B60174B1B6803F0B2
:101F880007033A689A4201D001231FE07B681B6867
:101F980003F00403002B08D00E4B5B6823F4E062C7
:101FA8007B68DB680B4913434B607B681B6803F055
:101FB8000803002B09D0074B5B6823F460527B6849
:101FC8001B69DB00034913434B6000231846703735
:101FD800BD4680BD001002400020024080B400AF22
:101FE8004FF4E1031846BD4680BC704780B487B003
:101FF80000AF7860396000237B610023FB60002319
:102008003B6154E13B681A6801217B6901FA03F3DB
:102018001340FB60FB68002B00F046813B685B685F
:10202800022B03D03B685B68122B23D17B69DA084B
:102038007B68083253F822303B617B6903F0070361
:102048009B000F2202FA03F3DB433A6913403B611A
:102058003B681A697B6903F007039B0002FA03F3E4
:102068003A6913433B617B69DA087B68083239694E
:1020780043F822107B681B683B617B695B00032285
:1020880002FA03F3DB433A6913403B613B685B6840
:1020980003F003027B695B0002FA03F33A69134316
:1020A8003B617B683A691A603B685B68012B0BD01F
:1020B8003B685B68022B07D03B685B68112B03D039
:1020C8003B685B68122B30D17B689B683B617B69FE
:1020D8005B00032202FA03F3DB433A6913403B61D6
:1020E8003B68DA687B695B0002FA03F33A691343D9
:1020F8003B617B683A699A607B685B683B61012257
:102108007B6902FA03F3DB433A6913403B613B689E
:102118005B681B0903F001027B6902FA03F33A6961
:1021280013433B617B683A695A607B68DB683B61B3
:102138007B695B00032202FA03F3DB433A6913402D
:102148003B613B689A687B695B0002FA03F33A6972
:1021580013433B617B683A69DA603B685B6803F06C
:102168008053002B00F0A080584B9B69574A43F0DE
:1021780001039361554B9B6903F00103BB60BB6886
:10218800534A7B699B08023352F823303B617B69D1
:1021980003F003039B000F2202FA03F3DB433A69BF
:1021A80013403B617B68B3F1904F19D07B68494A73
:1021B800934213D07B68484A93420DD07B68474AC4
:1021C800934207D07B68464A934201D1042308E032
:1021D800052306E0032304E0022302E0012300E0D4
:1021E80000237A6902F00302920093403A6913438C
:1021F8003B6137497B699B0802333A6941F82320E0
:10220800384B1B683B61FB68DB433A6913403B6111
:102218003B685B6803F48033002B03D03A69FB68A2
:1022280013433B612F4A3B6913602E4B5B683B614C
:10223800FB68DB433A6913403B613B685B6803F426
:102248000033002B03D03A69FB6813433B61254AEE
:102258003B695360234B9B683B61FB68DB433A69EE
:1022680013403B613B685B6803F48013002B03D089
:102278003A69FB6813433B611A4A3B699360194BFF
:10228800DB683B61FB68DB433A6913403B613B68B1
:102298005B6803F40013002B03D03A69FB6813430F
:1022A8003B61104A3B69D3607B6901337B613B68C2
:1022B8001A687B6922FA03F3002B7FF4A3AE00BFF0
:1022C80000BF1C37BD4680BC704700BF00100240ED
:1022D800000001400004004800080048000C0048C5
:1022E800001000480004014080B483B000AF78605B
:1022F8000B467B8013467B707B78002B03D07A8853
:102308007B689A6102E07A887B689A6200BF0C3722
:10231800BD4680BC7047000080B586B000AF7860CD
:102328000023FB601023FB7500237B810023BB8205
:102338000023FB747B689A687B681B691A437B6877
:102348005B691A437B68DB691343FB607B681B6826
:102358001B6823F4164323F00C037A681268F968A3
:102368000B4313607B681B685B6823F440517B68F0
:10237800DA687B681B680A435A607B689A697B68DD
:102388001B6A1343FB607B681B689B6823F43061FE
:102398007B681B68FA680A439A607B681B68A14AD5
:1023A800934220D1A04B1B6B03F00303032B17D8D8
:1023B80001A252F823F000BFD1230008DD23000852
:1023C800E3230008D72300080123FB75B5E00223A7
:1023D800FB75B2E00423FB75AFE00823FB75ACE0A6
:1023E8001023FB75A9E07B681B68904A934224D1AF
:1023F8008D4B1B6B03F44033B3F5403F11D0B3F55D
:10240800403F17D8B3F5003F11D0B3F5003F11D8BE
:10241800002B03D0B3F5803F06D00BE00023FB75FB
:102428008BE00223FB7588E00423FB7585E0082315
:10243800FB7582E01023FB757FE07B681B687C4A94
:10244800934224D1784B1B6B03F44023B3F5402F00
:1024580011D0B3F5402F17D8B3F5002F11D0B3F52D
:10246800002F11D8002B03D0B3F5802F06D00BE036
:102478000023FB7561E00223FB755EE00423FB7516
:102488005BE00823FB7558E01023FB7555E07B687B
:102498001B68684A934224D1634B1B6B03F44013B7
:1024A800B3F5401F11D0B3F5401F17D8B3F5001F7F
:1024B80011D0B3F5001F11D8002B03D0B3F5801F3E
:1024C80006D00BE00023FB7537E00223FB7534E0F0
:1024D8000423FB7531E00823FB752EE01023FB7500
:1024E8002BE07B681B68544A934224D14E4B1B6BEC
:1024F80003F44003B3F5400F11D0B3F5400F17D8DC
:10250800B3F5000F11D0B3F5000F11D8002B03D08D
:10251800B3F5800F06D00BE00023FB750DE0022316
:10252800FB750AE00423FB7507E00823FB7504E04C
:102538001023FB7501E01023FB757B68DB69B3F59D
:10254800004F7BD1FB7D082B56D801A252F823F00F
:102558007D25000899250008B525000801260008F2
:10256800CF250008012600080126000801260008DA
:10257800EB250008FEF792FB03465A007B685B6870
:102588005B081A447B685B68B2FBF3F3BB8236E0F6
:10259800FFF724FD03465A007B685B685B081A4412
:1025A8007B685B68B2FBF3F3BB8228E07B685B68FF
:1025B8005B0803F1F47303F590437A685268B3FB40
:1025C800F2F3BB821BE0FEF761FB03465A007B680F
:1025D8005B685B081A447B685B68B2FBF3F3BB82F9
:1025E8000DE07B685B685B0803F580327B685B689D
:1025F800B2FBF3F3BB8202E00123FB7400BFBB8A8A
:1026080023F00F037B81BB8A5B109BB203F00703A7
:102618009AB27B8913437B817B681B687A89DA606D
:1026280075E000BF0038014000100240004400403F
:1026380000480040004C004000500040FB7D082B43
:1026480062D801A252F823F07526000895260008E2
:10265800B526000811270008D5260008112700080C
:102668001127000811270008F5260008FEF716FBB9
:1026780002467B685B685B081A447B685B68B2FB50
:10268800F3F39AB27B681B68DA6040E0FFF7A6FCB8
:1026980002467B685B685B081A447B685B68B2FB30
:1026A800F3F39AB27B681B68DA6030E07B685B689A
:1026B8005B0803F5740303F510537A685268B3FB9B
:1026C800F2F39AB27B681B68DA6020E0FEF7DEFA64
:1026D80002467B685B685B081A447B685B68B2FBF0
:1026E800F3F39AB27B681B68DA6010E07B685B687A
:1026F8005B0803F500427B685B68B2FBF3F39AB2B0
:102708007B681B68DA6002E00123FB7400BFFB7C76
:1027180018461837BD4680BD80B586B002AF7860D0
:102728000023FB607B680022DA66FEF7A1FAF860F6
:102738007B681B681B6803F00803082B0ED16FF039
:102748007E430093FB6800224FF40011786800F084
:1027580073F80346002B01D0032322E07B681B6833
:102768001B6803F00403042B0ED16FF07E43009323
:10277800FB6800224FF48001786800F05DF803469A
:10278800002B01D003230CE07B68202283F869200A
:102798007B68202283F86A207B68002283F86820FF
:1027A800002318461037BD4680BD80B582B000AF03
:1027B80078607B68002B01D1012339E07B6893F8AE
:1027C8006930DBB2002B03D17B68002283F86820D4
:1027D8007B68242283F869207B681B681A687B68F9
:1027E8001B6822F001021A607868FFF795FD03461E
:1027F800012B01D101231BE07B681B685A687B68A9
:102808001B6822F490425A607B681B689A687B6850
:102818001B6822F02A029A607B681B681A687B682A
:102828001B6842F001021A607868FFF775FF0346DB
:1028380018460837BD4680BD80B584B000AFF86043
:10284800B9603B601346FB712CE0BB69B3F1FF3FF5
:1028580028D0BB69002B07D0FEF70AFA02463B686E
:10286800D31ABA699A421DD2FB681B681A68FB68BA
:102878001B6822F4D0721A60FB681B689A68FB68B0
:102888001B6822F001029A60FB68202283F8692005
:10289800FB68202283F86A20FB68002283F86820FE
:1028A80003230FE0FB681B68DA69BB681340BA684A
:1028B8009A420CBF01230023DBB21A46FB799A42E5
:1028C800C3D0002318461037BD4680BD80B588B0F8
:1028D80002AFF860B9603B601346FB8000237B6160
:1028E800FB6893F86930DBB2202B76D1BB68002BEC
:1028F80002D0FB88002B01D101236FE0FB6893F81D
:102908006830012B01D1022368E0FB68012283F8BB
:102918006820FB680022DA66FB68212283F86920B8
:10292800FEF7A6F97861FB68FA88A3F85020FB68DF
:10293800FA88A3F8522033E0FB68B3F852309BB210
:10294800013B9AB2FB68A3F852203B6800937B696D
:1029580000228021F868FFF76FFF0346002B01D0A3
:1029680003233BE0FB689B68B3F5805F11D1FB68EC
:102978001B69002B0DD1BB683B613B691A88FB685A
:102988001B68C2F3080292B21A85BB680233BB60A7
:1029980006E0BB685A1CBA601A78FB681B681A857F
:1029A800FB68B3F852309BB2002BC5D13B6800934B
:1029B8007B6900224021F868FFF73EFF0346002BA1
:1029C80001D003230AE0FB68202283F86920FB6812
:1029D800002283F86820002300E0022318461837F5
:1029E800BD4680BD80B58AB002AFF860B9603B6073
:1029F8001346FB800023FB61FB6893F86A30DBB267
:102A0800202B40F09F80BB68002B02D0FB88002B56
:102A180001D1012397E0FB6893F86830012B01D1BD
:102A2800022390E0FB68012283F86820FB681B689A
:102A38004FF0FF321A62FB680022DA66FB68222236
:102A480083F86A20FEF714F9F861FB68FA88A3F89E
:102A58005820FB68FA88A3F85A20FB689B68B3F5EE
:102A6800805F0ED1FB681B69002B05D1FB6840F223
:102A7800FF12A3F85C2015E0FB68FF22A3F85C2096
:102A880010E0FB689B68002B0CD1FB681B69002BCE
:102A980004D1FB68FF22A3F85C2003E0FB687F22D7
:102AA800A3F85C20FB68B3F85C307B833AE0FB68F2
:102AB800B3F85A309BB2013B9AB2FB68A3F85A208C
:102AC8003B680093FB6900222021F868FFF7B4FEF9
:102AD8000346002B01D0032335E0FB689B68B3F560
:102AE800805F12D1FB681B69002B0ED1BB687B612C
:102AF800FB681B689B8C9AB27B8B13409AB27B69EC
:102B08001A80BB680233BB600CE0FB681B689B8CB7
:102B18009BB2D9B27B8BDAB2BB68581CB8600A404A
:102B2800D2B21A70FB68B3F85A309BB2002BBED1F0
:102B3800FB68202283F86A20FB68002283F868205B
:102B4800002300E0022318462037BD4680BD000060
:102B5800002103E00B4B5B58435004310A480B4BF0
:102B680042189A42F6D30A4A02E00023136004325C
:102B7800084B9A42F9D3AFF30080FDF701FBFDF74C
:102B880041FCFEE7D42B00080000002000000020D4
:102B98000000002058010020FEE70000F8B500BF43
:102BA800F8BC08BC9E467047F8B500BFF8BC08BC26
:042BB8009E4670477E
:102BBC0007000000050000000400000002000000F7
:042BCC00FD010008FF
:042BD000D90100081F
:0400000508002B596B
:00000001FF
